{
  "_format": "hh-sol-artifact-1",
  "contractName": "Escrow",
  "sourceName": "contracts/Escrow.sol",
  "abi": [
    {
      "inputs": [
        {
          "internalType": "address",
          "name": "jewelAddress",
          "type": "address"
        },
        {
          "internalType": "address",
          "name": "goldAddress",
          "type": "address"
        },
        {
          "internalType": "address",
          "name": "affiliateAddress",
          "type": "address"
        },
        {
          "internalType": "address",
          "name": "goldOracleAddress",
          "type": "address"
        },
        {
          "internalType": "address",
          "name": "jewelOracleAddress",
          "type": "address"
        },
        {
          "internalType": "address",
          "name": "dfkRevenueShareAddress",
          "type": "address"
        }
      ],
      "stateMutability": "nonpayable",
      "type": "constructor"
    },
    {
      "inputs": [],
      "name": "affiliateContractLink",
      "outputs": [
        {
          "internalType": "address",
          "name": "",
          "type": "address"
        }
      ],
      "stateMutability": "view",
      "type": "function"
    },
    {
      "inputs": [],
      "name": "affiliate_allocation",
      "outputs": [
        {
          "internalType": "uint256",
          "name": "",
          "type": "uint256"
        }
      ],
      "stateMutability": "view",
      "type": "function"
    },
    {
      "inputs": [],
      "name": "battleContractLink",
      "outputs": [
        {
          "internalType": "address",
          "name": "",
          "type": "address"
        }
      ],
      "stateMutability": "view",
      "type": "function"
    },
    {
      "inputs": [
        {
          "components": [
            {
              "internalType": "uint256",
              "name": "id",
              "type": "uint256"
            },
            {
              "components": [
                {
                  "internalType": "uint256",
                  "name": "summonedTime",
                  "type": "uint256"
                },
                {
                  "internalType": "uint256",
                  "name": "nextSummonTime",
                  "type": "uint256"
                },
                {
                  "internalType": "uint256",
                  "name": "summonerId",
                  "type": "uint256"
                },
                {
                  "internalType": "uint256",
                  "name": "assistantId",
                  "type": "uint256"
                },
                {
                  "internalType": "uint256",
                  "name": "summons",
                  "type": "uint256"
                },
                {
                  "internalType": "uint256",
                  "name": "maxSummons",
                  "type": "uint256"
                }
              ],
              "internalType": "struct IHero.SummoningInfo",
              "name": "summoningInfo",
              "type": "tuple"
            },
            {
              "components": [
                {
                  "internalType": "uint256",
                  "name": "statGenes",
                  "type": "uint256"
                },
                {
                  "internalType": "uint256",
                  "name": "visualGenes",
                  "type": "uint256"
                },
                {
                  "internalType": "uint256",
                  "name": "rarity",
                  "type": "uint256"
                },
                {
                  "internalType": "bool",
                  "name": "shiny",
                  "type": "bool"
                },
                {
                  "internalType": "uint256",
                  "name": "generation",
                  "type": "uint256"
                },
                {
                  "internalType": "uint256",
                  "name": "firstName",
                  "type": "uint256"
                },
                {
                  "internalType": "uint256",
                  "name": "lastName",
                  "type": "uint256"
                },
                {
                  "internalType": "uint256",
                  "name": "shinyStyle",
                  "type": "uint256"
                },
                {
                  "internalType": "uint256",
                  "name": "class",
                  "type": "uint256"
                },
                {
                  "internalType": "uint256",
                  "name": "subClass",
                  "type": "uint256"
                }
              ],
              "internalType": "struct IHero.Info",
              "name": "info",
              "type": "tuple"
            },
            {
              "components": [
                {
                  "internalType": "uint256",
                  "name": "staminaFullAt",
                  "type": "uint256"
                },
                {
                  "internalType": "uint256",
                  "name": "hpFullAt",
                  "type": "uint256"
                },
                {
                  "internalType": "uint256",
                  "name": "mpFullAt",
                  "type": "uint256"
                },
                {
                  "internalType": "uint16",
                  "name": "level",
                  "type": "uint16"
                },
                {
                  "internalType": "uint64",
                  "name": "xp",
                  "type": "uint64"
                },
                {
                  "internalType": "address",
                  "name": "currentQuest",
                  "type": "address"
                },
                {
                  "internalType": "uint8",
                  "name": "sp",
                  "type": "uint8"
                },
                {
                  "internalType": "uint8",
                  "name": "status",
                  "type": "uint8"
                }
              ],
              "internalType": "struct IHero.State",
              "name": "state",
              "type": "tuple"
            },
            {
              "components": [
                {
                  "internalType": "uint16",
                  "name": "strength",
                  "type": "uint16"
                },
                {
                  "internalType": "uint16",
                  "name": "intelligence",
                  "type": "uint16"
                },
                {
                  "internalType": "uint16",
                  "name": "wisdom",
                  "type": "uint16"
                },
                {
                  "internalType": "uint16",
                  "name": "luck",
                  "type": "uint16"
                },
                {
                  "internalType": "uint16",
                  "name": "agility",
                  "type": "uint16"
                },
                {
                  "internalType": "uint16",
                  "name": "vitality",
                  "type": "uint16"
                },
                {
                  "internalType": "uint16",
                  "name": "endurance",
                  "type": "uint16"
                },
                {
                  "internalType": "uint16",
                  "name": "dexterity",
                  "type": "uint16"
                },
                {
                  "internalType": "uint16",
                  "name": "hp",
                  "type": "uint16"
                },
                {
                  "internalType": "uint16",
                  "name": "mp",
                  "type": "uint16"
                },
                {
                  "internalType": "uint16",
                  "name": "stamina",
                  "type": "uint16"
                }
              ],
              "internalType": "struct IHero.Stats",
              "name": "stats",
              "type": "tuple"
            }
          ],
          "internalType": "struct IHero.HeroObject",
          "name": "_hero",
          "type": "tuple"
        }
      ],
      "name": "calculate_protocol_fee",
      "outputs": [
        {
          "internalType": "uint256",
          "name": "",
          "type": "uint256"
        }
      ],
      "stateMutability": "view",
      "type": "function"
    },
    {
      "inputs": [],
      "name": "current_month_accumulated_revenue_share",
      "outputs": [
        {
          "internalType": "uint256",
          "name": "",
          "type": "uint256"
        }
      ],
      "stateMutability": "view",
      "type": "function"
    },
    {
      "inputs": [],
      "name": "delegate_address",
      "outputs": [
        {
          "internalType": "address",
          "name": "",
          "type": "address"
        }
      ],
      "stateMutability": "view",
      "type": "function"
    },
    {
      "inputs": [
        {
          "internalType": "uint256",
          "name": "_gold_amount",
          "type": "uint256"
        }
      ],
      "name": "deposit_gold",
      "outputs": [],
      "stateMutability": "payable",
      "type": "function"
    },
    {
      "inputs": [
        {
          "internalType": "address",
          "name": "",
          "type": "address"
        },
        {
          "internalType": "uint256",
          "name": "",
          "type": "uint256"
        }
      ],
      "name": "deposit_history",
      "outputs": [
        {
          "internalType": "address",
          "name": "tokenAddress",
          "type": "address"
        },
        {
          "internalType": "uint256",
          "name": "amount",
          "type": "uint256"
        },
        {
          "internalType": "uint256",
          "name": "time",
          "type": "uint256"
        }
      ],
      "stateMutability": "view",
      "type": "function"
    },
    {
      "inputs": [
        {
          "internalType": "uint256",
          "name": "_jewel_amount",
          "type": "uint256"
        }
      ],
      "name": "deposit_jewel",
      "outputs": [],
      "stateMutability": "payable",
      "type": "function"
    },
    {
      "inputs": [],
      "name": "dfkRevenueShare",
      "outputs": [
        {
          "internalType": "address",
          "name": "",
          "type": "address"
        }
      ],
      "stateMutability": "view",
      "type": "function"
    },
    {
      "inputs": [
        {
          "internalType": "address",
          "name": "user",
          "type": "address"
        }
      ],
      "name": "get_deposit_history",
      "outputs": [
        {
          "components": [
            {
              "internalType": "address",
              "name": "tokenAddress",
              "type": "address"
            },
            {
              "internalType": "uint256",
              "name": "amount",
              "type": "uint256"
            },
            {
              "internalType": "uint256",
              "name": "time",
              "type": "uint256"
            }
          ],
          "internalType": "struct Escrow.Deposit_or_Withdrawal[]",
          "name": "",
          "type": "tuple[]"
        }
      ],
      "stateMutability": "view",
      "type": "function"
    },
    {
      "inputs": [
        {
          "internalType": "address",
          "name": "user",
          "type": "address"
        }
      ],
      "name": "get_gold_balance",
      "outputs": [
        {
          "internalType": "uint256",
          "name": "",
          "type": "uint256"
        }
      ],
      "stateMutability": "view",
      "type": "function"
    },
    {
      "inputs": [
        {
          "internalType": "address",
          "name": "user",
          "type": "address"
        }
      ],
      "name": "get_gold_locked_in_battle_balance",
      "outputs": [
        {
          "internalType": "uint256",
          "name": "",
          "type": "uint256"
        }
      ],
      "stateMutability": "view",
      "type": "function"
    },
    {
      "inputs": [
        {
          "internalType": "address",
          "name": "user",
          "type": "address"
        }
      ],
      "name": "get_jewel_balance",
      "outputs": [
        {
          "internalType": "uint256",
          "name": "",
          "type": "uint256"
        }
      ],
      "stateMutability": "view",
      "type": "function"
    },
    {
      "inputs": [
        {
          "internalType": "address",
          "name": "user",
          "type": "address"
        }
      ],
      "name": "get_jewel_locked_in_battle_balance",
      "outputs": [
        {
          "internalType": "uint256",
          "name": "",
          "type": "uint256"
        }
      ],
      "stateMutability": "view",
      "type": "function"
    },
    {
      "inputs": [
        {
          "internalType": "address",
          "name": "user",
          "type": "address"
        }
      ],
      "name": "get_withdrawal_history",
      "outputs": [
        {
          "components": [
            {
              "internalType": "address",
              "name": "tokenAddress",
              "type": "address"
            },
            {
              "internalType": "uint256",
              "name": "amount",
              "type": "uint256"
            },
            {
              "internalType": "uint256",
              "name": "time",
              "type": "uint256"
            }
          ],
          "internalType": "struct Escrow.Deposit_or_Withdrawal[]",
          "name": "",
          "type": "tuple[]"
        }
      ],
      "stateMutability": "view",
      "type": "function"
    },
    {
      "inputs": [],
      "name": "goldOracleLink",
      "outputs": [
        {
          "internalType": "address",
          "name": "",
          "type": "address"
        }
      ],
      "stateMutability": "view",
      "type": "function"
    },
    {
      "inputs": [],
      "name": "gold_address",
      "outputs": [
        {
          "internalType": "address",
          "name": "",
          "type": "address"
        }
      ],
      "stateMutability": "view",
      "type": "function"
    },
    {
      "inputs": [
        {
          "internalType": "address",
          "name": "",
          "type": "address"
        }
      ],
      "name": "gold_balance",
      "outputs": [
        {
          "internalType": "uint256",
          "name": "",
          "type": "uint256"
        }
      ],
      "stateMutability": "view",
      "type": "function"
    },
    {
      "inputs": [
        {
          "internalType": "address",
          "name": "",
          "type": "address"
        }
      ],
      "name": "gold_locked_in_battle",
      "outputs": [
        {
          "internalType": "uint256",
          "name": "",
          "type": "uint256"
        }
      ],
      "stateMutability": "view",
      "type": "function"
    },
    {
      "inputs": [],
      "name": "gold_tax_rate",
      "outputs": [
        {
          "internalType": "uint256",
          "name": "",
          "type": "uint256"
        }
      ],
      "stateMutability": "view",
      "type": "function"
    },
    {
      "inputs": [
        {
          "internalType": "uint256",
          "name": "hero1_level",
          "type": "uint256"
        },
        {
          "internalType": "uint256",
          "name": "hero2_level",
          "type": "uint256"
        }
      ],
      "name": "hero_level_matching",
      "outputs": [
        {
          "internalType": "bool",
          "name": "",
          "type": "bool"
        }
      ],
      "stateMutability": "nonpayable",
      "type": "function"
    },
    {
      "inputs": [],
      "name": "increased_revenue_split_threshold",
      "outputs": [
        {
          "internalType": "uint256",
          "name": "",
          "type": "uint256"
        }
      ],
      "stateMutability": "view",
      "type": "function"
    },
    {
      "inputs": [],
      "name": "jewelOracleLink",
      "outputs": [
        {
          "internalType": "address",
          "name": "",
          "type": "address"
        }
      ],
      "stateMutability": "view",
      "type": "function"
    },
    {
      "inputs": [],
      "name": "jewel_address",
      "outputs": [
        {
          "internalType": "address",
          "name": "",
          "type": "address"
        }
      ],
      "stateMutability": "view",
      "type": "function"
    },
    {
      "inputs": [
        {
          "internalType": "address",
          "name": "",
          "type": "address"
        }
      ],
      "name": "jewel_balance",
      "outputs": [
        {
          "internalType": "uint256",
          "name": "",
          "type": "uint256"
        }
      ],
      "stateMutability": "view",
      "type": "function"
    },
    {
      "inputs": [
        {
          "internalType": "address",
          "name": "",
          "type": "address"
        }
      ],
      "name": "jewel_locked_in_battle",
      "outputs": [
        {
          "internalType": "uint256",
          "name": "",
          "type": "uint256"
        }
      ],
      "stateMutability": "view",
      "type": "function"
    },
    {
      "inputs": [
        {
          "internalType": "address",
          "name": "user",
          "type": "address"
        },
        {
          "internalType": "uint256",
          "name": "_gold_amount",
          "type": "uint256"
        },
        {
          "internalType": "uint256",
          "name": "_type",
          "type": "uint256"
        },
        {
          "internalType": "bool",
          "name": "_toggle",
          "type": "bool"
        }
      ],
      "name": "lock_unlock_gold_from_battle",
      "outputs": [],
      "stateMutability": "nonpayable",
      "type": "function"
    },
    {
      "inputs": [
        {
          "internalType": "address",
          "name": "user",
          "type": "address"
        },
        {
          "internalType": "uint256",
          "name": "_jewel_amount",
          "type": "uint256"
        },
        {
          "internalType": "uint256",
          "name": "_type",
          "type": "uint256"
        }
      ],
      "name": "lock_unlock_jewel_from_battle",
      "outputs": [],
      "stateMutability": "nonpayable",
      "type": "function"
    },
    {
      "inputs": [],
      "name": "month_start",
      "outputs": [
        {
          "internalType": "uint256",
          "name": "",
          "type": "uint256"
        }
      ],
      "stateMutability": "view",
      "type": "function"
    },
    {
      "inputs": [],
      "name": "owner",
      "outputs": [
        {
          "internalType": "address",
          "name": "",
          "type": "address"
        }
      ],
      "stateMutability": "view",
      "type": "function"
    },
    {
      "inputs": [],
      "name": "protocol_fee",
      "outputs": [
        {
          "internalType": "uint256",
          "name": "",
          "type": "uint256"
        }
      ],
      "stateMutability": "view",
      "type": "function"
    },
    {
      "inputs": [
        {
          "internalType": "address",
          "name": "newGoldOracleLink",
          "type": "address"
        }
      ],
      "name": "setGoldOracleLink",
      "outputs": [],
      "stateMutability": "nonpayable",
      "type": "function"
    },
    {
      "inputs": [
        {
          "internalType": "address",
          "name": "newJewelOracleLink",
          "type": "address"
        }
      ],
      "name": "setJewelOracleLink",
      "outputs": [],
      "stateMutability": "nonpayable",
      "type": "function"
    },
    {
      "inputs": [
        {
          "internalType": "uint256",
          "name": "new_affiliate_allocation",
          "type": "uint256"
        }
      ],
      "name": "set_affiliate_allocation",
      "outputs": [],
      "stateMutability": "nonpayable",
      "type": "function"
    },
    {
      "inputs": [
        {
          "internalType": "address",
          "name": "battle_contract_address",
          "type": "address"
        }
      ],
      "name": "set_battle_contract_link",
      "outputs": [],
      "stateMutability": "nonpayable",
      "type": "function"
    },
    {
      "inputs": [
        {
          "internalType": "address",
          "name": "_contract_address",
          "type": "address"
        }
      ],
      "name": "set_delegate_address",
      "outputs": [],
      "stateMutability": "nonpayable",
      "type": "function"
    },
    {
      "inputs": [
        {
          "internalType": "uint256",
          "name": "new_increased_revenue_split_threshold",
          "type": "uint256"
        }
      ],
      "name": "set_dfk_revenue_split_threshold",
      "outputs": [],
      "stateMutability": "nonpayable",
      "type": "function"
    },
    {
      "inputs": [
        {
          "internalType": "uint256",
          "name": "new_gold_tax_rate",
          "type": "uint256"
        }
      ],
      "name": "set_gold_tax_rate",
      "outputs": [],
      "stateMutability": "nonpayable",
      "type": "function"
    },
    {
      "inputs": [
        {
          "internalType": "uint256",
          "name": "protocol_fee_in_jewel",
          "type": "uint256"
        }
      ],
      "name": "set_protocol_fee",
      "outputs": [],
      "stateMutability": "nonpayable",
      "type": "function"
    },
    {
      "inputs": [
        {
          "internalType": "address",
          "name": "winner",
          "type": "address"
        },
        {
          "internalType": "address",
          "name": "loser",
          "type": "address"
        },
        {
          "internalType": "uint256",
          "name": "_gold_amount",
          "type": "uint256"
        }
      ],
      "name": "transfer_gold_from_loser_to_winner",
      "outputs": [],
      "stateMutability": "nonpayable",
      "type": "function"
    },
    {
      "inputs": [
        {
          "internalType": "address",
          "name": "user",
          "type": "address"
        },
        {
          "internalType": "uint256",
          "name": "_jewel_amount",
          "type": "uint256"
        },
        {
          "internalType": "bool",
          "name": "_toggle",
          "type": "bool"
        }
      ],
      "name": "transfer_jewel_to_owner_post_battle",
      "outputs": [],
      "stateMutability": "nonpayable",
      "type": "function"
    },
    {
      "inputs": [],
      "name": "usd_allocation_multiplier",
      "outputs": [
        {
          "internalType": "uint256",
          "name": "",
          "type": "uint256"
        }
      ],
      "stateMutability": "view",
      "type": "function"
    },
    {
      "inputs": [
        {
          "internalType": "uint256",
          "name": "_gold_amount",
          "type": "uint256"
        }
      ],
      "name": "withdraw_gold",
      "outputs": [],
      "stateMutability": "payable",
      "type": "function"
    },
    {
      "inputs": [
        {
          "internalType": "uint256",
          "name": "_jewel_amount",
          "type": "uint256"
        }
      ],
      "name": "withdraw_jewel",
      "outputs": [],
      "stateMutability": "payable",
      "type": "function"
    },
    {
      "inputs": [
        {
          "internalType": "address",
          "name": "",
          "type": "address"
        },
        {
          "internalType": "uint256",
          "name": "",
          "type": "uint256"
        }
      ],
      "name": "withdrawal_history",
      "outputs": [
        {
          "internalType": "address",
          "name": "tokenAddress",
          "type": "address"
        },
        {
          "internalType": "uint256",
          "name": "amount",
          "type": "uint256"
        },
        {
          "internalType": "uint256",
          "name": "time",
          "type": "uint256"
        }
      ],
      "stateMutability": "view",
      "type": "function"
    }
  ],
  "bytecode": "0x60806040526101ea60095567016345785d8a0000600a55610bb8600b556107d0600c55670de0b6b3a7640000600f553480156200003b57600080fd5b5060405162002f8338038062002f83833981810160405281019062000061919062000251565b336000806101000a81548173ffffffffffffffffffffffffffffffffffffffff021916908373ffffffffffffffffffffffffffffffffffffffff16021790555085600660006101000a81548173ffffffffffffffffffffffffffffffffffffffff021916908373ffffffffffffffffffffffffffffffffffffffff16021790555084600760006101000a81548173ffffffffffffffffffffffffffffffffffffffff021916908373ffffffffffffffffffffffffffffffffffffffff16021790555083600260006101000a81548173ffffffffffffffffffffffffffffffffffffffff021916908373ffffffffffffffffffffffffffffffffffffffff16021790555082600360006101000a81548173ffffffffffffffffffffffffffffffffffffffff021916908373ffffffffffffffffffffffffffffffffffffffff16021790555081600460006101000a81548173ffffffffffffffffffffffffffffffffffffffff021916908373ffffffffffffffffffffffffffffffffffffffff16021790555080600560006101000a81548173ffffffffffffffffffffffffffffffffffffffff021916908373ffffffffffffffffffffffffffffffffffffffff16021790555042600e8190555050505050505062000335565b6000815190506200024b816200031b565b92915050565b60008060008060008060c087890312156200026b57600080fd5b60006200027b89828a016200023a565b96505060206200028e89828a016200023a565b9550506040620002a189828a016200023a565b9450506060620002b489828a016200023a565b9350506080620002c789828a016200023a565b92505060a0620002da89828a016200023a565b9150509295509295509295565b6000620002f482620002fb565b9050919050565b600073ffffffffffffffffffffffffffffffffffffffff82169050919050565b6200032681620002e7565b81146200033257600080fd5b50565b612c3e80620003456000396000f3fe60806040526004361061027d5760003560e01c80635e24e1021161014f578063926456d2116100c1578063bc7caba11161007a578063bc7caba1146109ad578063c2b82de4146109ea578063cb16931e14610a13578063f4b781f914610a50578063f790552614610a8f578063f83daeb114610aab5761027d565b8063926456d21461088b57806398ddcba3146108c85780639dae372d146108f3578063a3af40101461091c578063a7bd629214610947578063b6624a03146109705761027d565b806374d1bca81161011357806374d1bca81461079c578063793dcbca146107c75780637c88af3b146107e35780638ac86c161461080c5780638da5cb5b14610837578063907e286f146108625761027d565b80635e24e1021461069f5780636054b9a3146106de578063677dab56146107095780636b0e3ef5146107345780636ce6b07e146107715761027d565b80632a1f73f9116101f35780634a391225116101ac5780634a3912251461058c5780634a42c973146105b55780634f5d8042146105f2578063576338531461060e578063578b9f411461063957806359c26179146106625761027d565b80632a1f73f9146104565780632ad4a32a146104935780632fabc0fb146104d0578063300c3fa0146104fb57806330e081b5146105385780633c3cfb11146105615761027d565b80631655273211610245578063165527321461035a578063170373f41461038557806318480ce3146103ae5780631b20ed86146103d9578063214472701461040457806327e6bad41461042d5761027d565b806308a95a231461028257806309530dd5146102ad5780630acb1ec3146102d65780630bd976ac146103015780630fd698a21461033e575b600080fd5b34801561028e57600080fd5b50610297610ae8565b6040516102a49190612a0e565b60405180910390f35b3480156102b957600080fd5b506102d460048036038101906102cf919061253d565b610aee565b005b3480156102e257600080fd5b506102eb610c3e565b6040516102f89190612a0e565b60405180910390f35b34801561030d57600080fd5b5061032860048036038101906103239190612514565b610c44565b6040516103359190612a0e565b60405180910390f35b6103586004803603810190610353919061271c565b610c8d565b005b34801561036657600080fd5b5061036f610dd7565b60405161037c9190612a0e565b60405180910390f35b34801561039157600080fd5b506103ac60048036038101906103a79190612666565b610ddd565b005b3480156103ba57600080fd5b506103c3610f30565b6040516103d09190612a0e565b60405180910390f35b3480156103e557600080fd5b506103ee610f36565b6040516103fb91906128cc565b60405180910390f35b34801561041057600080fd5b5061042b60048036038101906104269190612514565b610f5c565b005b34801561043957600080fd5b50610454600480360381019061044f9190612514565b610ff9565b005b34801561046257600080fd5b5061047d60048036038101906104789190612514565b611096565b60405161048a9190612a0e565b60405180910390f35b34801561049f57600080fd5b506104ba60048036038101906104b59190612514565b6110ae565b6040516104c79190612a0e565b60405180910390f35b3480156104dc57600080fd5b506104e56110c6565b6040516104f291906128cc565b60405180910390f35b34801561050757600080fd5b50610522600480360381019061051d91906126f2565b6110ec565b60405161052f9190612a0e565b60405180910390f35b34801561054457600080fd5b5061055f600480360381019061055a91906125c8565b611106565b005b34801561056d57600080fd5b50610576611256565b60405161058391906128cc565b60405180910390f35b34801561059857600080fd5b506105b360048036038101906105ae919061271c565b61127c565b005b3480156105c157600080fd5b506105dc60048036038101906105d79190612514565b6112df565b6040516105e991906129d1565b60405180910390f35b61060c6004803603810190610607919061271c565b6113e7565b005b34801561061a57600080fd5b50610623611531565b60405161063091906128cc565b60405180910390f35b34801561064557600080fd5b50610660600480360381019061065b9190612617565b611557565b005b34801561066e57600080fd5b5061068960048036038101906106849190612514565b6116a7565b6040516106969190612a0e565b60405180910390f35b3480156106ab57600080fd5b506106c660048036038101906106c1919061258c565b6116bf565b6040516106d593929190612955565b60405180910390f35b3480156106ea57600080fd5b506106f3611726565b6040516107009190612a0e565b60405180910390f35b34801561071557600080fd5b5061071e61172c565b60405161072b91906128cc565b60405180910390f35b34801561074057600080fd5b5061075b60048036038101906107569190612514565b611752565b6040516107689190612a0e565b60405180910390f35b34801561077d57600080fd5b5061078661176a565b6040516107939190612a0e565b60405180910390f35b3480156107a857600080fd5b506107b1611770565b6040516107be91906128cc565b60405180910390f35b6107e160048036038101906107dc919061271c565b611796565b005b3480156107ef57600080fd5b5061080a60048036038101906108059190612514565b6118e0565b005b34801561081857600080fd5b5061082161197d565b60405161082e9190612a0e565b60405180910390f35b34801561084357600080fd5b5061084c611983565b60405161085991906128cc565b60405180910390f35b34801561086e57600080fd5b506108896004803603810190610884919061271c565b6119a7565b005b34801561089757600080fd5b506108b260048036038101906108ad9190612745565b611a0a565b6040516108bf91906129f3565b60405180910390f35b3480156108d457600080fd5b506108dd611b57565b6040516108ea91906128cc565b60405180910390f35b3480156108ff57600080fd5b5061091a6004803603810190610915919061271c565b611b7d565b005b34801561092857600080fd5b50610931611be0565b60405161093e91906128cc565b60405180910390f35b34801561095357600080fd5b5061096e60048036038101906109699190612514565b611c06565b005b34801561097c57600080fd5b5061099760048036038101906109929190612514565b611ca3565b6040516109a49190612a0e565b60405180910390f35b3480156109b957600080fd5b506109d460048036038101906109cf9190612514565b611cec565b6040516109e191906129d1565b60405180910390f35b3480156109f657600080fd5b50610a116004803603810190610a0c919061271c565b611df4565b005b348015610a1f57600080fd5b50610a3a6004803603810190610a359190612514565b611e57565b604051610a479190612a0e565b60405180910390f35b348015610a5c57600080fd5b50610a776004803603810190610a72919061258c565b611ea0565b604051610a8693929190612955565b60405180910390f35b610aa96004803603810190610aa4919061271c565b611f07565b005b348015610ab757600080fd5b50610ad26004803603810190610acd9190612514565b612051565b604051610adf9190612a0e565b60405180910390f35b600c5481565b60006060600860009054906101000a900473ffffffffffffffffffffffffffffffffffffffff1673ffffffffffffffffffffffffffffffffffffffff16858585604051602401610b40939291906128e7565b6040516020818303038152906040527f09530dd5000000000000000000000000000000000000000000000000000000007bffffffffffffffffffffffffffffffffffffffffffffffffffffffff19166020820180517bffffffffffffffffffffffffffffffffffffffffffffffffffffffff8381831617835250505050604051610bca91906128b5565b600060405180830381855af49150503d8060008114610c05576040519150601f19603f3d011682016040523d82523d6000602084013e610c0a565b606091505b508092508193505050600015158215151415610c3757600081511415610c2f57600080fd5b805181602001fd5b5050505050565b600b5481565b6000601060008373ffffffffffffffffffffffffffffffffffffffff1673ffffffffffffffffffffffffffffffffffffffff168152602001908152602001600020549050919050565b60006060600860009054906101000a900473ffffffffffffffffffffffffffffffffffffffff1673ffffffffffffffffffffffffffffffffffffffff1683604051602401610cdb9190612a0e565b6040516020818303038152906040527f0fd698a2000000000000000000000000000000000000000000000000000000007bffffffffffffffffffffffffffffffffffffffffffffffffffffffff19166020820180517bffffffffffffffffffffffffffffffffffffffffffffffffffffffff8381831617835250505050604051610d6591906128b5565b600060405180830381855af49150503d8060008114610da0576040519150601f19603f3d011682016040523d82523d6000602084013e610da5565b606091505b508092508193505050600015158215151415610dd257600081511415610dca57600080fd5b805181602001fd5b505050565b600a5481565b60006060600860009054906101000a900473ffffffffffffffffffffffffffffffffffffffff1673ffffffffffffffffffffffffffffffffffffffff1686868686604051602401610e31949392919061298c565b6040516020818303038152906040527f170373f4000000000000000000000000000000000000000000000000000000007bffffffffffffffffffffffffffffffffffffffffffffffffffffffff19166020820180517bffffffffffffffffffffffffffffffffffffffffffffffffffffffff8381831617835250505050604051610ebb91906128b5565b600060405180830381855af49150503d8060008114610ef6576040519150601f19603f3d011682016040523d82523d6000602084013e610efb565b606091505b508092508193505050600015158215151415610f2857600081511415610f2057600080fd5b805181602001fd5b505050505050565b60095481565b600360009054906101000a900473ffffffffffffffffffffffffffffffffffffffff1681565b60008054906101000a900473ffffffffffffffffffffffffffffffffffffffff1673ffffffffffffffffffffffffffffffffffffffff163373ffffffffffffffffffffffffffffffffffffffff1614610fb457610ff6565b80600460006101000a81548173ffffffffffffffffffffffffffffffffffffffff021916908373ffffffffffffffffffffffffffffffffffffffff1602179055505b50565b60008054906101000a900473ffffffffffffffffffffffffffffffffffffffff1673ffffffffffffffffffffffffffffffffffffffff163373ffffffffffffffffffffffffffffffffffffffff161461105157611093565b80600160006101000a81548173ffffffffffffffffffffffffffffffffffffffff021916908373ffffffffffffffffffffffffffffffffffffffff1602179055505b50565b60116020528060005260406000206000915090505481565b60126020528060005260406000206000915090505481565b600560009054906101000a900473ffffffffffffffffffffffffffffffffffffffff1681565b6000600a5482606001516060015161ffff16029050919050565b60006060600860009054906101000a900473ffffffffffffffffffffffffffffffffffffffff1673ffffffffffffffffffffffffffffffffffffffff168585856040516024016111589392919061291e565b6040516020818303038152906040527f30e081b5000000000000000000000000000000000000000000000000000000007bffffffffffffffffffffffffffffffffffffffffffffffffffffffff19166020820180517bffffffffffffffffffffffffffffffffffffffffffffffffffffffff83818316178352505050506040516111e291906128b5565b600060405180830381855af49150503d806000811461121d576040519150601f19603f3d011682016040523d82523d6000602084013e611222565b606091505b50809250819350505060001515821515141561124f5760008151141561124757600080fd5b805181602001fd5b5050505050565b600160009054906101000a900473ffffffffffffffffffffffffffffffffffffffff1681565b60008054906101000a900473ffffffffffffffffffffffffffffffffffffffff1673ffffffffffffffffffffffffffffffffffffffff163373ffffffffffffffffffffffffffffffffffffffff16146112d4576112dc565b80600c819055505b50565b6060601460008373ffffffffffffffffffffffffffffffffffffffff1673ffffffffffffffffffffffffffffffffffffffff168152602001908152602001600020805480602002602001604051908101604052809291908181526020016000905b828210156113dc57838290600052602060002090600302016040518060600160405290816000820160009054906101000a900473ffffffffffffffffffffffffffffffffffffffff1673ffffffffffffffffffffffffffffffffffffffff1673ffffffffffffffffffffffffffffffffffffffff1681526020016001820154815260200160028201548152505081526020019060010190611340565b505050509050919050565b60006060600860009054906101000a900473ffffffffffffffffffffffffffffffffffffffff1673ffffffffffffffffffffffffffffffffffffffff16836040516024016114359190612a0e565b6040516020818303038152906040527f4f5d8042000000000000000000000000000000000000000000000000000000007bffffffffffffffffffffffffffffffffffffffffffffffffffffffff19166020820180517bffffffffffffffffffffffffffffffffffffffffffffffffffffffff83818316178352505050506040516114bf91906128b5565b600060405180830381855af49150503d80600081146114fa576040519150601f19603f3d011682016040523d82523d6000602084013e6114ff565b606091505b50809250819350505060001515821515141561152c5760008151141561152457600080fd5b805181602001fd5b505050565b600460009054906101000a900473ffffffffffffffffffffffffffffffffffffffff1681565b60006060600860009054906101000a900473ffffffffffffffffffffffffffffffffffffffff1673ffffffffffffffffffffffffffffffffffffffff168585856040516024016115a993929190612955565b6040516020818303038152906040527f578b9f41000000000000000000000000000000000000000000000000000000007bffffffffffffffffffffffffffffffffffffffffffffffffffffffff19166020820180517bffffffffffffffffffffffffffffffffffffffffffffffffffffffff838183161783525050505060405161163391906128b5565b600060405180830381855af49150503d806000811461166e576040519150601f19603f3d011682016040523d82523d6000602084013e611673565b606091505b5080925081935050506000151582151514156116a05760008151141561169857600080fd5b805181602001fd5b5050505050565b60106020528060005260406000206000915090505481565b601460205281600052604060002081815481106116db57600080fd5b9060005260206000209060030201600091509150508060000160009054906101000a900473ffffffffffffffffffffffffffffffffffffffff16908060010154908060020154905083565b600f5481565b600660009054906101000a900473ffffffffffffffffffffffffffffffffffffffff1681565b60136020528060005260406000206000915090505481565b600e5481565b600860009054906101000a900473ffffffffffffffffffffffffffffffffffffffff1681565b60006060600860009054906101000a900473ffffffffffffffffffffffffffffffffffffffff1673ffffffffffffffffffffffffffffffffffffffff16836040516024016117e49190612a0e565b6040516020818303038152906040527f793dcbca000000000000000000000000000000000000000000000000000000007bffffffffffffffffffffffffffffffffffffffffffffffffffffffff19166020820180517bffffffffffffffffffffffffffffffffffffffffffffffffffffffff838183161783525050505060405161186e91906128b5565b600060405180830381855af49150503d80600081146118a9576040519150601f19603f3d011682016040523d82523d6000602084013e6118ae565b606091505b5080925081935050506000151582151514156118db576000815114156118d357600080fd5b805181602001fd5b505050565b60008054906101000a900473ffffffffffffffffffffffffffffffffffffffff1673ffffffffffffffffffffffffffffffffffffffff163373ffffffffffffffffffffffffffffffffffffffff16146119385761197a565b80600360006101000a81548173ffffffffffffffffffffffffffffffffffffffff021916908373ffffffffffffffffffffffffffffffffffffffff1602179055505b50565b600d5481565b60008054906101000a900473ffffffffffffffffffffffffffffffffffffffff1681565b60008054906101000a900473ffffffffffffffffffffffffffffffffffffffff1673ffffffffffffffffffffffffffffffffffffffff163373ffffffffffffffffffffffffffffffffffffffff16146119ff57611a07565b806009819055505b50565b6000808383604051602401611a20929190612a29565b6040516020818303038152906040527f926456d2000000000000000000000000000000000000000000000000000000007bffffffffffffffffffffffffffffffffffffffffffffffffffffffff19166020820180517bffffffffffffffffffffffffffffffffffffffffffffffffffffffff83818316178352505050509050600080600860009054906101000a900473ffffffffffffffffffffffffffffffffffffffff1673ffffffffffffffffffffffffffffffffffffffff16600084604051611aeb91906128b5565b60006040518083038185875af1925050503d8060008114611b28576040519150601f19603f3d011682016040523d82523d6000602084013e611b2d565b606091505b5091509150600081806020019051810190611b4891906126c9565b90508094505050505092915050565b600260009054906101000a900473ffffffffffffffffffffffffffffffffffffffff1681565b60008054906101000a900473ffffffffffffffffffffffffffffffffffffffff1673ffffffffffffffffffffffffffffffffffffffff163373ffffffffffffffffffffffffffffffffffffffff1614611bd557611bdd565b80600b819055505b50565b600760009054906101000a900473ffffffffffffffffffffffffffffffffffffffff1681565b60008054906101000a900473ffffffffffffffffffffffffffffffffffffffff1673ffffffffffffffffffffffffffffffffffffffff163373ffffffffffffffffffffffffffffffffffffffff1614611c5e57611ca0565b80600860006101000a81548173ffffffffffffffffffffffffffffffffffffffff021916908373ffffffffffffffffffffffffffffffffffffffff1602179055505b50565b6000601160008373ffffffffffffffffffffffffffffffffffffffff1673ffffffffffffffffffffffffffffffffffffffff168152602001908152602001600020549050919050565b6060601560008373ffffffffffffffffffffffffffffffffffffffff1673ffffffffffffffffffffffffffffffffffffffff168152602001908152602001600020805480602002602001604051908101604052809291908181526020016000905b82821015611de957838290600052602060002090600302016040518060600160405290816000820160009054906101000a900473ffffffffffffffffffffffffffffffffffffffff1673ffffffffffffffffffffffffffffffffffffffff1673ffffffffffffffffffffffffffffffffffffffff1681526020016001820154815260200160028201548152505081526020019060010190611d4d565b505050509050919050565b60008054906101000a900473ffffffffffffffffffffffffffffffffffffffff1673ffffffffffffffffffffffffffffffffffffffff163373ffffffffffffffffffffffffffffffffffffffff1614611e4c57611e54565b80600a819055505b50565b6000601360008373ffffffffffffffffffffffffffffffffffffffff1673ffffffffffffffffffffffffffffffffffffffff168152602001908152602001600020549050919050565b60156020528160005260406000208181548110611ebc57600080fd5b9060005260206000209060030201600091509150508060000160009054906101000a900473ffffffffffffffffffffffffffffffffffffffff16908060010154908060020154905083565b60006060600860009054906101000a900473ffffffffffffffffffffffffffffffffffffffff1673ffffffffffffffffffffffffffffffffffffffff1683604051602401611f559190612a0e565b6040516020818303038152906040527ff7905526000000000000000000000000000000000000000000000000000000007bffffffffffffffffffffffffffffffffffffffffffffffffffffffff19166020820180517bffffffffffffffffffffffffffffffffffffffffffffffffffffffff8381831617835250505050604051611fdf91906128b5565b600060405180830381855af49150503d806000811461201a576040519150601f19603f3d011682016040523d82523d6000602084013e61201f565b606091505b50809250819350505060001515821515141561204c5760008151141561204457600080fd5b805181602001fd5b505050565b6000601260008373ffffffffffffffffffffffffffffffffffffffff1673ffffffffffffffffffffffffffffffffffffffff168152602001908152602001600020549050919050565b6000813590506120a981612b7e565b92915050565b6000813590506120be81612b95565b92915050565b6000815190506120d381612b95565b92915050565b600061048082840312156120ec57600080fd5b6120f660a0612a52565b90506000612106848285016124d5565b600083015250602061211a84828501612424565b60208301525060e061212e84828501612164565b60408301525061022061214384828501612256565b6060830152506103206121588482850161231c565b60808301525092915050565b6000610140828403121561217757600080fd5b612182610140612a52565b90506000612192848285016124d5565b60008301525060206121a6848285016124d5565b60208301525060406121ba848285016124d5565b60408301525060606121ce848285016120af565b60608301525060806121e2848285016124d5565b60808301525060a06121f6848285016124d5565b60a08301525060c061220a848285016124d5565b60c08301525060e061221e848285016124d5565b60e083015250610100612233848285016124d5565b61010083015250610120612249848285016124d5565b6101208301525092915050565b6000610100828403121561226957600080fd5b612274610100612a52565b90506000612284848285016124d5565b6000830152506020612298848285016124d5565b60208301525060406122ac848285016124d5565b60408301525060606122c0848285016124c0565b60608301525060806122d4848285016124ea565b60808301525060a06122e88482850161209a565b60a08301525060c06122fc848285016124ff565b60c08301525060e0612310848285016124ff565b60e08301525092915050565b6000610160828403121561232f57600080fd5b61233a610160612a52565b9050600061234a848285016124c0565b600083015250602061235e848285016124c0565b6020830152506040612372848285016124c0565b6040830152506060612386848285016124c0565b606083015250608061239a848285016124c0565b60808301525060a06123ae848285016124c0565b60a08301525060c06123c2848285016124c0565b60c08301525060e06123d6848285016124c0565b60e0830152506101006123eb848285016124c0565b61010083015250610120612401848285016124c0565b61012083015250610140612417848285016124c0565b6101408301525092915050565b600060c0828403121561243657600080fd5b61244060c0612a52565b90506000612450848285016124d5565b6000830152506020612464848285016124d5565b6020830152506040612478848285016124d5565b604083015250606061248c848285016124d5565b60608301525060806124a0848285016124d5565b60808301525060a06124b4848285016124d5565b60a08301525092915050565b6000813590506124cf81612bac565b92915050565b6000813590506124e481612bc3565b92915050565b6000813590506124f981612bda565b92915050565b60008135905061250e81612bf1565b92915050565b60006020828403121561252657600080fd5b60006125348482850161209a565b91505092915050565b60008060006060848603121561255257600080fd5b60006125608682870161209a565b93505060206125718682870161209a565b9250506040612582868287016124d5565b9150509250925092565b6000806040838503121561259f57600080fd5b60006125ad8582860161209a565b92505060206125be858286016124d5565b9150509250929050565b6000806000606084860312156125dd57600080fd5b60006125eb8682870161209a565b93505060206125fc868287016124d5565b925050604061260d868287016120af565b9150509250925092565b60008060006060848603121561262c57600080fd5b600061263a8682870161209a565b935050602061264b868287016124d5565b925050604061265c868287016124d5565b9150509250925092565b6000806000806080858703121561267c57600080fd5b600061268a8782880161209a565b945050602061269b878288016124d5565b93505060406126ac878288016124d5565b92505060606126bd878288016120af565b91505092959194509250565b6000602082840312156126db57600080fd5b60006126e9848285016120c4565b91505092915050565b6000610480828403121561270557600080fd5b6000612713848285016120d9565b91505092915050565b60006020828403121561272e57600080fd5b600061273c848285016124d5565b91505092915050565b6000806040838503121561275857600080fd5b6000612766858286016124d5565b9250506020612777858286016124d5565b9150509250929050565b600061278d8383612855565b60608301905092915050565b6127a281612ad2565b82525050565b6127b181612ad2565b82525050565b60006127c282612a93565b6127cc8185612ab6565b93506127d783612a83565b8060005b838110156128085781516127ef8882612781565b97506127fa83612aa9565b9250506001810190506127db565b5085935050505092915050565b61281e81612ae4565b82525050565b600061282f82612a9e565b6128398185612ac7565b9350612849818560208601612b49565b80840191505092915050565b60608201600082015161286b6000850182612799565b50602082015161287e6020850182612897565b5060408201516128916040850182612897565b50505050565b6128a081612b1e565b82525050565b6128af81612b1e565b82525050565b60006128c18284612824565b915081905092915050565b60006020820190506128e160008301846127a8565b92915050565b60006060820190506128fc60008301866127a8565b61290960208301856127a8565b61291660408301846128a6565b949350505050565b600060608201905061293360008301866127a8565b61294060208301856128a6565b61294d6040830184612815565b949350505050565b600060608201905061296a60008301866127a8565b61297760208301856128a6565b61298460408301846128a6565b949350505050565b60006080820190506129a160008301876127a8565b6129ae60208301866128a6565b6129bb60408301856128a6565b6129c86060830184612815565b95945050505050565b600060208201905081810360008301526129eb81846127b7565b905092915050565b6000602082019050612a086000830184612815565b92915050565b6000602082019050612a2360008301846128a6565b92915050565b6000604082019050612a3e60008301856128a6565b612a4b60208301846128a6565b9392505050565b6000604051905081810181811067ffffffffffffffff82111715612a7957612a78612b7c565b5b8060405250919050565b6000819050602082019050919050565b600081519050919050565b600081519050919050565b6000602082019050919050565b600082825260208201905092915050565b600081905092915050565b6000612add82612afe565b9050919050565b60008115159050919050565b600061ffff82169050919050565b600073ffffffffffffffffffffffffffffffffffffffff82169050919050565b6000819050919050565b600067ffffffffffffffff82169050919050565b600060ff82169050919050565b60005b83811015612b67578082015181840152602081019050612b4c565b83811115612b76576000848401525b50505050565bfe5b612b8781612ad2565b8114612b9257600080fd5b50565b612b9e81612ae4565b8114612ba957600080fd5b50565b612bb581612af0565b8114612bc057600080fd5b50565b612bcc81612b1e565b8114612bd757600080fd5b50565b612be381612b28565b8114612bee57600080fd5b50565b612bfa81612b3c565b8114612c0557600080fd5b5056fea26469706673582212206435526f94cfc3b59651160da338592969e084b554b95af8e7ffac6cd313eb2164736f6c63430007060033",
  "linkReferences": {},
  "deployedLinkReferences": {}
}