{
  "_format": "hh-sol-artifact-1",
  "contractName": "EscrowProxy",
  "sourceName": "contracts/EscrowProxy.sol",
  "abi": [
    {
      "inputs": [],
      "stateMutability": "nonpayable",
      "type": "constructor"
    },
    {
      "inputs": [],
      "name": "affiliateContractLink",
      "outputs": [
        {
          "internalType": "address",
          "name": "",
          "type": "address"
        }
      ],
      "stateMutability": "view",
      "type": "function"
    },
    {
      "inputs": [],
      "name": "affiliate_allocation",
      "outputs": [
        {
          "internalType": "uint256",
          "name": "",
          "type": "uint256"
        }
      ],
      "stateMutability": "view",
      "type": "function"
    },
    {
      "inputs": [],
      "name": "battleContractLink",
      "outputs": [
        {
          "internalType": "address",
          "name": "",
          "type": "address"
        }
      ],
      "stateMutability": "view",
      "type": "function"
    },
    {
      "inputs": [],
      "name": "current_month_accumulated_revenue_share",
      "outputs": [
        {
          "internalType": "uint256",
          "name": "",
          "type": "uint256"
        }
      ],
      "stateMutability": "view",
      "type": "function"
    },
    {
      "inputs": [],
      "name": "delegate_address",
      "outputs": [
        {
          "internalType": "address",
          "name": "",
          "type": "address"
        }
      ],
      "stateMutability": "view",
      "type": "function"
    },
    {
      "inputs": [
        {
          "internalType": "uint256",
          "name": "_gold_amount",
          "type": "uint256"
        }
      ],
      "name": "deposit_gold",
      "outputs": [],
      "stateMutability": "payable",
      "type": "function"
    },
    {
      "inputs": [
        {
          "internalType": "address",
          "name": "",
          "type": "address"
        },
        {
          "internalType": "uint256",
          "name": "",
          "type": "uint256"
        }
      ],
      "name": "deposit_history",
      "outputs": [
        {
          "internalType": "address",
          "name": "tokenAddress",
          "type": "address"
        },
        {
          "internalType": "uint256",
          "name": "amount",
          "type": "uint256"
        },
        {
          "internalType": "uint256",
          "name": "time",
          "type": "uint256"
        }
      ],
      "stateMutability": "view",
      "type": "function"
    },
    {
      "inputs": [
        {
          "internalType": "uint256",
          "name": "_jewel_amount",
          "type": "uint256"
        }
      ],
      "name": "deposit_jewel",
      "outputs": [],
      "stateMutability": "payable",
      "type": "function"
    },
    {
      "inputs": [],
      "name": "dfkRevenueShare",
      "outputs": [
        {
          "internalType": "address",
          "name": "",
          "type": "address"
        }
      ],
      "stateMutability": "view",
      "type": "function"
    },
    {
      "inputs": [],
      "name": "goldOracleLink",
      "outputs": [
        {
          "internalType": "address",
          "name": "",
          "type": "address"
        }
      ],
      "stateMutability": "view",
      "type": "function"
    },
    {
      "inputs": [],
      "name": "gold_address",
      "outputs": [
        {
          "internalType": "address",
          "name": "",
          "type": "address"
        }
      ],
      "stateMutability": "view",
      "type": "function"
    },
    {
      "inputs": [
        {
          "internalType": "address",
          "name": "",
          "type": "address"
        }
      ],
      "name": "gold_balance",
      "outputs": [
        {
          "internalType": "uint256",
          "name": "",
          "type": "uint256"
        }
      ],
      "stateMutability": "view",
      "type": "function"
    },
    {
      "inputs": [
        {
          "internalType": "address",
          "name": "",
          "type": "address"
        }
      ],
      "name": "gold_locked_in_battle",
      "outputs": [
        {
          "internalType": "uint256",
          "name": "",
          "type": "uint256"
        }
      ],
      "stateMutability": "view",
      "type": "function"
    },
    {
      "inputs": [],
      "name": "gold_tax_rate",
      "outputs": [
        {
          "internalType": "uint256",
          "name": "",
          "type": "uint256"
        }
      ],
      "stateMutability": "view",
      "type": "function"
    },
    {
      "inputs": [
        {
          "internalType": "uint256",
          "name": "hero1_level",
          "type": "uint256"
        },
        {
          "internalType": "uint256",
          "name": "hero2_level",
          "type": "uint256"
        }
      ],
      "name": "hero_level_matching",
      "outputs": [
        {
          "internalType": "bool",
          "name": "",
          "type": "bool"
        }
      ],
      "stateMutability": "view",
      "type": "function"
    },
    {
      "inputs": [],
      "name": "increased_revenue_split_threshold",
      "outputs": [
        {
          "internalType": "uint256",
          "name": "",
          "type": "uint256"
        }
      ],
      "stateMutability": "view",
      "type": "function"
    },
    {
      "inputs": [],
      "name": "jewelOracleLink",
      "outputs": [
        {
          "internalType": "address",
          "name": "",
          "type": "address"
        }
      ],
      "stateMutability": "view",
      "type": "function"
    },
    {
      "inputs": [],
      "name": "jewel_address",
      "outputs": [
        {
          "internalType": "address",
          "name": "",
          "type": "address"
        }
      ],
      "stateMutability": "view",
      "type": "function"
    },
    {
      "inputs": [
        {
          "internalType": "address",
          "name": "",
          "type": "address"
        }
      ],
      "name": "jewel_balance",
      "outputs": [
        {
          "internalType": "uint256",
          "name": "",
          "type": "uint256"
        }
      ],
      "stateMutability": "view",
      "type": "function"
    },
    {
      "inputs": [
        {
          "internalType": "address",
          "name": "",
          "type": "address"
        }
      ],
      "name": "jewel_locked_in_battle",
      "outputs": [
        {
          "internalType": "uint256",
          "name": "",
          "type": "uint256"
        }
      ],
      "stateMutability": "view",
      "type": "function"
    },
    {
      "inputs": [
        {
          "internalType": "address",
          "name": "user",
          "type": "address"
        },
        {
          "internalType": "uint256",
          "name": "_gold_amount",
          "type": "uint256"
        },
        {
          "internalType": "uint256",
          "name": "_type",
          "type": "uint256"
        },
        {
          "internalType": "bool",
          "name": "_toggle",
          "type": "bool"
        }
      ],
      "name": "lock_unlock_gold_from_battle",
      "outputs": [],
      "stateMutability": "nonpayable",
      "type": "function"
    },
    {
      "inputs": [
        {
          "internalType": "address",
          "name": "user",
          "type": "address"
        },
        {
          "internalType": "uint256",
          "name": "_jewel_amount",
          "type": "uint256"
        },
        {
          "internalType": "uint256",
          "name": "_type",
          "type": "uint256"
        }
      ],
      "name": "lock_unlock_jewel_from_battle",
      "outputs": [],
      "stateMutability": "nonpayable",
      "type": "function"
    },
    {
      "inputs": [],
      "name": "month_start",
      "outputs": [
        {
          "internalType": "uint256",
          "name": "",
          "type": "uint256"
        }
      ],
      "stateMutability": "view",
      "type": "function"
    },
    {
      "inputs": [],
      "name": "owner",
      "outputs": [
        {
          "internalType": "address",
          "name": "",
          "type": "address"
        }
      ],
      "stateMutability": "view",
      "type": "function"
    },
    {
      "inputs": [],
      "name": "protocol_fee",
      "outputs": [
        {
          "internalType": "uint256",
          "name": "",
          "type": "uint256"
        }
      ],
      "stateMutability": "view",
      "type": "function"
    },
    {
      "inputs": [
        {
          "internalType": "address",
          "name": "winner",
          "type": "address"
        },
        {
          "internalType": "address",
          "name": "loser",
          "type": "address"
        },
        {
          "internalType": "uint256",
          "name": "_gold_amount",
          "type": "uint256"
        }
      ],
      "name": "transfer_gold_from_loser_to_winner",
      "outputs": [],
      "stateMutability": "nonpayable",
      "type": "function"
    },
    {
      "inputs": [
        {
          "internalType": "address",
          "name": "user",
          "type": "address"
        },
        {
          "internalType": "uint256",
          "name": "_jewel_amount",
          "type": "uint256"
        },
        {
          "internalType": "bool",
          "name": "_toggle",
          "type": "bool"
        }
      ],
      "name": "transfer_jewel_to_owner_post_battle",
      "outputs": [],
      "stateMutability": "nonpayable",
      "type": "function"
    },
    {
      "inputs": [],
      "name": "usd_allocation_multiplier",
      "outputs": [
        {
          "internalType": "uint256",
          "name": "",
          "type": "uint256"
        }
      ],
      "stateMutability": "view",
      "type": "function"
    },
    {
      "inputs": [
        {
          "internalType": "uint256",
          "name": "_gold_amount",
          "type": "uint256"
        }
      ],
      "name": "withdraw_gold",
      "outputs": [],
      "stateMutability": "payable",
      "type": "function"
    },
    {
      "inputs": [
        {
          "internalType": "uint256",
          "name": "_jewel_amount",
          "type": "uint256"
        }
      ],
      "name": "withdraw_jewel",
      "outputs": [],
      "stateMutability": "payable",
      "type": "function"
    },
    {
      "inputs": [
        {
          "internalType": "address",
          "name": "",
          "type": "address"
        },
        {
          "internalType": "uint256",
          "name": "",
          "type": "uint256"
        }
      ],
      "name": "withdrawal_history",
      "outputs": [
        {
          "internalType": "address",
          "name": "tokenAddress",
          "type": "address"
        },
        {
          "internalType": "uint256",
          "name": "amount",
          "type": "uint256"
        },
        {
          "internalType": "uint256",
          "name": "time",
          "type": "uint256"
        }
      ],
      "stateMutability": "view",
      "type": "function"
    }
  ],
  "bytecode": "0x60806040526101ea60095567016345785d8a0000600a55610bb8600b556107d0600c55670de0b6b3a7640000600f5534801561003a57600080fd5b50336000806101000a81548173ffffffffffffffffffffffffffffffffffffffff021916908373ffffffffffffffffffffffffffffffffffffffff16021790555061378c8061008a6000396000f3fe6080604052600436106101d85760003560e01c8063578b9f4111610102578063793dcbca1161009557806398ddcba31161006457806398ddcba31461069f578063a3af4010146106ca578063f4b781f9146106f5578063f790552614610734576101d8565b8063793dcbca146105f05780638ac86c161461060c5780638da5cb5b14610637578063926456d214610662576101d8565b8063677dab56116100d1578063677dab56146105325780636b0e3ef51461055d5780636ce6b07e1461059a57806374d1bca8146105c5576101d8565b8063578b9f411461046257806359c261791461048b5780635e24e102146104c85780636054b9a314610507576101d8565b80631b20ed861161017a57806330e081b51161014957806330e081b5146103c75780633c3cfb11146103f05780634f5d80421461041b5780635763385314610437576101d8565b80631b20ed86146102f75780632a1f73f9146103225780632ad4a32a1461035f5780632fabc0fb1461039c576101d8565b80630fd698a2116101b65780630fd698a21461025c5780631655273214610278578063170373f4146102a357806318480ce3146102cc576101d8565b806308a95a23146101dd57806309530dd5146102085780630acb1ec314610231575b600080fd5b3480156101e957600080fd5b506101f2610750565b6040516101ff91906135b5565b60405180910390f35b34801561021457600080fd5b5061022f600480360381019061022a9190612fc0565b610756565b005b34801561023d57600080fd5b50610246610915565b60405161025391906135b5565b60405180910390f35b6102766004803603810190610271919061318d565b61091b565b005b34801561028457600080fd5b5061028d610be2565b60405161029a91906135b5565b60405180910390f35b3480156102af57600080fd5b506102ca60048036038101906102c591906130e9565b610be8565b005b3480156102d857600080fd5b506102e16119e4565b6040516102ee91906135b5565b60405180910390f35b34801561030357600080fd5b5061030c6119ea565b60405161031991906133f6565b60405180910390f35b34801561032e57600080fd5b5061034960048036038101906103449190612f97565b611a10565b60405161035691906135b5565b60405180910390f35b34801561036b57600080fd5b5061038660048036038101906103819190612f97565b611a28565b60405161039391906135b5565b60405180910390f35b3480156103a857600080fd5b506103b1611a40565b6040516103be91906133f6565b60405180910390f35b3480156103d357600080fd5b506103ee60048036038101906103e9919061304b565b611a66565b005b3480156103fc57600080fd5b50610405611e99565b60405161041291906133f6565b60405180910390f35b6104356004803603810190610430919061318d565b611ebf565b005b34801561044357600080fd5b5061044c612186565b60405161045991906133f6565b60405180910390f35b34801561046e57600080fd5b506104896004803603810190610484919061309a565b6121ac565b005b34801561049757600080fd5b506104b260048036038101906104ad9190612f97565b6124a4565b6040516104bf91906135b5565b60405180910390f35b3480156104d457600080fd5b506104ef60048036038101906104ea919061300f565b6124bc565b6040516104fe93929190613471565b60405180910390f35b34801561051357600080fd5b5061051c612523565b60405161052991906135b5565b60405180910390f35b34801561053e57600080fd5b50610547612529565b60405161055491906133f6565b60405180910390f35b34801561056957600080fd5b50610584600480360381019061057f9190612f97565b61254f565b60405161059191906135b5565b60405180910390f35b3480156105a657600080fd5b506105af612567565b6040516105bc91906135b5565b60405180910390f35b3480156105d157600080fd5b506105da61256d565b6040516105e791906133f6565b60405180910390f35b61060a6004803603810190610605919061318d565b612593565b005b34801561061857600080fd5b506106216127da565b60405161062e91906135b5565b60405180910390f35b34801561064357600080fd5b5061064c6127e0565b60405161065991906133f6565b60405180910390f35b34801561066e57600080fd5b50610689600480360381019061068491906131df565b612804565b60405161069691906134a8565b60405180910390f35b3480156106ab57600080fd5b506106b461289e565b6040516106c191906133f6565b60405180910390f35b3480156106d657600080fd5b506106df6128c4565b6040516106ec91906133f6565b60405180910390f35b34801561070157600080fd5b5061071c6004803603810190610717919061300f565b6128ea565b60405161072b93929190613471565b60405180910390f35b61074e6004803603810190610749919061318d565b612951565b005b600c5481565b600160009054906101000a900473ffffffffffffffffffffffffffffffffffffffff1673ffffffffffffffffffffffffffffffffffffffff163373ffffffffffffffffffffffffffffffffffffffff16146107e6576040517f08c379a00000000000000000000000000000000000000000000000000000000081526004016107dd90613535565b60405180910390fd5b61083881601260008573ffffffffffffffffffffffffffffffffffffffff1673ffffffffffffffffffffffffffffffffffffffff16815260200190815260200160002054612b9890919063ffffffff16565b601260008473ffffffffffffffffffffffffffffffffffffffff1673ffffffffffffffffffffffffffffffffffffffff168152602001908152602001600020819055506108cd81601260008673ffffffffffffffffffffffffffffffffffffffff1673ffffffffffffffffffffffffffffffffffffffff16815260200190815260200160002054612be290919063ffffffff16565b601260008573ffffffffffffffffffffffffffffffffffffffff1673ffffffffffffffffffffffffffffffffffffffff16815260200190815260200160002081905550505050565b600b5481565b80601060003373ffffffffffffffffffffffffffffffffffffffff1673ffffffffffffffffffffffffffffffffffffffff16815260200190815260200160002054101561099d576040517f08c379a000000000000000000000000000000000000000000000000000000000815260040161099490613575565b60405180910390fd5b6109ef81601060003373ffffffffffffffffffffffffffffffffffffffff1673ffffffffffffffffffffffffffffffffffffffff16815260200190815260200160002054612b9890919063ffffffff16565b601060003373ffffffffffffffffffffffffffffffffffffffff1673ffffffffffffffffffffffffffffffffffffffff16815260200190815260200160002081905550600760009054906101000a900473ffffffffffffffffffffffffffffffffffffffff1673ffffffffffffffffffffffffffffffffffffffff1663a9059cbb33836040518363ffffffff1660e01b8152600401610a8f929190613448565b600060405180830381600087803b158015610aa957600080fd5b505af1158015610abd573d6000803e3d6000fd5b5050505060006040518060600160405280600760009054906101000a900473ffffffffffffffffffffffffffffffffffffffff1673ffffffffffffffffffffffffffffffffffffffff168152602001838152602001428152509050601560003373ffffffffffffffffffffffffffffffffffffffff1673ffffffffffffffffffffffffffffffffffffffff16815260200190815260200160002081908060018154018082558091505060019003906000526020600020906003020160009091909190915060008201518160000160006101000a81548173ffffffffffffffffffffffffffffffffffffffff021916908373ffffffffffffffffffffffffffffffffffffffff160217905550602082015181600101556040820151816002015550505050565b600a5481565b600160009054906101000a900473ffffffffffffffffffffffffffffffffffffffff1673ffffffffffffffffffffffffffffffffffffffff163373ffffffffffffffffffffffffffffffffffffffff1614610c78576040517f08c379a0000000000000000000000000000000000000000000000000000000008152600401610c6f90613535565b60405180910390fd5b6001821415610db057610cd383601060008773ffffffffffffffffffffffffffffffffffffffff1673ffffffffffffffffffffffffffffffffffffffff16815260200190815260200160002054612b9890919063ffffffff16565b601060008673ffffffffffffffffffffffffffffffffffffffff1673ffffffffffffffffffffffffffffffffffffffff16815260200190815260200160002081905550610d6883601260008773ffffffffffffffffffffffffffffffffffffffff1673ffffffffffffffffffffffffffffffffffffffff16815260200190815260200160002054612be290919063ffffffff16565b601260008673ffffffffffffffffffffffffffffffffffffffff1673ffffffffffffffffffffffffffffffffffffffff1681526020019081526020016000208190555061195c565b6000821415610ee857610e0b83601260008773ffffffffffffffffffffffffffffffffffffffff1673ffffffffffffffffffffffffffffffffffffffff16815260200190815260200160002054612b9890919063ffffffff16565b601260008673ffffffffffffffffffffffffffffffffffffffff1673ffffffffffffffffffffffffffffffffffffffff16815260200190815260200160002081905550610ea083601060008773ffffffffffffffffffffffffffffffffffffffff1673ffffffffffffffffffffffffffffffffffffffff16815260200190815260200160002054612be290919063ffffffff16565b601060008673ffffffffffffffffffffffffffffffffffffffff1673ffffffffffffffffffffffffffffffffffffffff1681526020019081526020016000208190555061195b565b6000610f13612710610f0560095487612c3790919063ffffffff16565b612ca790919063ffffffff16565b90506000610f2a8286612b9890919063ffffffff16565b9050610f7e85601260008973ffffffffffffffffffffffffffffffffffffffff1673ffffffffffffffffffffffffffffffffffffffff16815260200190815260200160002054612b9890919063ffffffff16565b601260008873ffffffffffffffffffffffffffffffffffffffff1673ffffffffffffffffffffffffffffffffffffffff1681526020019081526020016000208190555061101381601060008973ffffffffffffffffffffffffffffffffffffffff1673ffffffffffffffffffffffffffffffffffffffff16815260200190815260200160002054612be290919063ffffffff16565b601060008873ffffffffffffffffffffffffffffffffffffffff1673ffffffffffffffffffffffffffffffffffffffff168152602001908152602001600020819055506000600260009054906101000a900473ffffffffffffffffffffffffffffffffffffffff1673ffffffffffffffffffffffffffffffffffffffff166394bab3f4886040518263ffffffff1660e01b81526004016110b391906133f6565b60006040518083038186803b1580156110cb57600080fd5b505afa1580156110df573d6000803e3d6000fd5b505050506040513d6000823e3d601f19601f82011682018060405250810190611108919061314c565b600001519050600073ffffffffffffffffffffffffffffffffffffffff168173ffffffffffffffffffffffffffffffffffffffff161461164d57600061114d84612cf1565b905060006111648286612b9890919063ffffffff16565b90506111b881601060008673ffffffffffffffffffffffffffffffffffffffff1673ffffffffffffffffffffffffffffffffffffffff16815260200190815260200160002054612be290919063ffffffff16565b601060008573ffffffffffffffffffffffffffffffffffffffff1673ffffffffffffffffffffffffffffffffffffffff16815260200190815260200160002081905550600260009054906101000a900473ffffffffffffffffffffffffffffffffffffffff1673ffffffffffffffffffffffffffffffffffffffff166327975a3f600260009054906101000a900473ffffffffffffffffffffffffffffffffffffffff1673ffffffffffffffffffffffffffffffffffffffff166394bab3f48c6040518263ffffffff1660e01b815260040161129491906133f6565b60006040518083038186803b1580156112ac57600080fd5b505afa1580156112c0573d6000803e3d6000fd5b505050506040513d6000823e3d601f19601f820116820180604052508101906112e9919061314c565b60200151836040518363ffffffff1660e01b815260040161130b9291906134e5565b600060405180830381600087803b15801561132557600080fd5b505af1158015611339573d6000803e3d6000fd5b505050506000801515871515141561147d576000611355612d49565b90506000600360009054906101000a900473ffffffffffffffffffffffffffffffffffffffff1673ffffffffffffffffffffffffffffffffffffffff1663e58c9fc16040518163ffffffff1660e01b815260040160206040518083038186803b1580156113c157600080fd5b505afa1580156113d5573d6000803e3d6000fd5b505050506040513d601f19601f820116820180604052508101906113f991906131b6565b90506114226127106114148488612c3790919063ffffffff16565b612ca790919063ffffffff16565b9250600061144d8261143f600f5487612c3790919063ffffffff16565b612ca790919063ffffffff16565b905080600d5401600d8190555062278d00600e5401421115611479576000600d8190555042600e819055505b5050505b60006114928285612b9890919063ffffffff16565b905061150781601060008060009054906101000a900473ffffffffffffffffffffffffffffffffffffffff1673ffffffffffffffffffffffffffffffffffffffff1673ffffffffffffffffffffffffffffffffffffffff16815260200190815260200160002054612be290919063ffffffff16565b601060008060009054906101000a900473ffffffffffffffffffffffffffffffffffffffff1673ffffffffffffffffffffffffffffffffffffffff1673ffffffffffffffffffffffffffffffffffffffff168152602001908152602001600020819055506115df8260106000600560009054906101000a900473ffffffffffffffffffffffffffffffffffffffff1673ffffffffffffffffffffffffffffffffffffffff1673ffffffffffffffffffffffffffffffffffffffff16815260200190815260200160002054612be290919063ffffffff16565b60106000600560009054906101000a900473ffffffffffffffffffffffffffffffffffffffff1673ffffffffffffffffffffffffffffffffffffffff1673ffffffffffffffffffffffffffffffffffffffff1681526020019081526020016000208190555050505050611957565b6000801515851515141561178d576000611665612d49565b90506000600360009054906101000a900473ffffffffffffffffffffffffffffffffffffffff1673ffffffffffffffffffffffffffffffffffffffff1663e58c9fc16040518163ffffffff1660e01b815260040160206040518083038186803b1580156116d157600080fd5b505afa1580156116e5573d6000803e3d6000fd5b505050506040513d601f19601f8201168201806040525081019061170991906131b6565b90506117326127106117248489612c3790919063ffffffff16565b612ca790919063ffffffff16565b9250600061175d8261174f600f5487612c3790919063ffffffff16565b612ca790919063ffffffff16565b905080600d5401600d8190555062278d00600e5401421115611789576000600d8190555042600e819055505b5050505b60006117a28286612b9890919063ffffffff16565b905061181781601060008060009054906101000a900473ffffffffffffffffffffffffffffffffffffffff1673ffffffffffffffffffffffffffffffffffffffff1673ffffffffffffffffffffffffffffffffffffffff16815260200190815260200160002054612be290919063ffffffff16565b601060008060009054906101000a900473ffffffffffffffffffffffffffffffffffffffff1673ffffffffffffffffffffffffffffffffffffffff1673ffffffffffffffffffffffffffffffffffffffff168152602001908152602001600020819055506118ef8260106000600560009054906101000a900473ffffffffffffffffffffffffffffffffffffffff1673ffffffffffffffffffffffffffffffffffffffff1673ffffffffffffffffffffffffffffffffffffffff16815260200190815260200160002054612be290919063ffffffff16565b60106000600560009054906101000a900473ffffffffffffffffffffffffffffffffffffffff1673ffffffffffffffffffffffffffffffffffffffff1673ffffffffffffffffffffffffffffffffffffffff1681526020019081526020016000208190555050505b5050505b5b600360009054906101000a900473ffffffffffffffffffffffffffffffffffffffff1673ffffffffffffffffffffffffffffffffffffffff1663f681471b6040518163ffffffff1660e01b8152600401600060405180830381600087803b1580156119c657600080fd5b505af11580156119da573d6000803e3d6000fd5b5050505050505050565b60095481565b600360009054906101000a900473ffffffffffffffffffffffffffffffffffffffff1681565b60116020528060005260406000206000915090505481565b60126020528060005260406000206000915090505481565b600560009054906101000a900473ffffffffffffffffffffffffffffffffffffffff1681565b600160009054906101000a900473ffffffffffffffffffffffffffffffffffffffff1673ffffffffffffffffffffffffffffffffffffffff163373ffffffffffffffffffffffffffffffffffffffff1614611af6576040517f08c379a0000000000000000000000000000000000000000000000000000000008152600401611aed90613535565b60405180910390fd5b611b4882601360008673ffffffffffffffffffffffffffffffffffffffff1673ffffffffffffffffffffffffffffffffffffffff16815260200190815260200160002054612b9890919063ffffffff16565b601360008573ffffffffffffffffffffffffffffffffffffffff1673ffffffffffffffffffffffffffffffffffffffff1681526020019081526020016000208190555060008015158215151415611ccb576000611ba3612d49565b90506000600460009054906101000a900473ffffffffffffffffffffffffffffffffffffffff1673ffffffffffffffffffffffffffffffffffffffff1663895fa9226040518163ffffffff1660e01b815260040160206040518083038186803b158015611c0f57600080fd5b505afa158015611c23573d6000803e3d6000fd5b505050506040513d601f19601f82011682018060405250810190611c4791906131b6565b9050611c70612710611c628488612c3790919063ffffffff16565b612ca790919063ffffffff16565b92506000611c9b82611c8d600f5487612c3790919063ffffffff16565b612ca790919063ffffffff16565b905080600d5401600d8190555062278d00600e5401421115611cc7576000600d8190555042600e819055505b5050505b6000611ce08285612b9890919063ffffffff16565b9050611d5581601160008060009054906101000a900473ffffffffffffffffffffffffffffffffffffffff1673ffffffffffffffffffffffffffffffffffffffff1673ffffffffffffffffffffffffffffffffffffffff16815260200190815260200160002054612be290919063ffffffff16565b601160008060009054906101000a900473ffffffffffffffffffffffffffffffffffffffff1673ffffffffffffffffffffffffffffffffffffffff1673ffffffffffffffffffffffffffffffffffffffff16815260200190815260200160002081905550611e2d8260116000600560009054906101000a900473ffffffffffffffffffffffffffffffffffffffff1673ffffffffffffffffffffffffffffffffffffffff1673ffffffffffffffffffffffffffffffffffffffff16815260200190815260200160002054612be290919063ffffffff16565b60116000600560009054906101000a900473ffffffffffffffffffffffffffffffffffffffff1673ffffffffffffffffffffffffffffffffffffffff1673ffffffffffffffffffffffffffffffffffffffff168152602001908152602001600020819055505050505050565b600160009054906101000a900473ffffffffffffffffffffffffffffffffffffffff1681565b80601160003373ffffffffffffffffffffffffffffffffffffffff1673ffffffffffffffffffffffffffffffffffffffff168152602001908152602001600020541015611f41576040517f08c379a0000000000000000000000000000000000000000000000000000000008152600401611f3890613515565b60405180910390fd5b611f9381601160003373ffffffffffffffffffffffffffffffffffffffff1673ffffffffffffffffffffffffffffffffffffffff16815260200190815260200160002054612b9890919063ffffffff16565b601160003373ffffffffffffffffffffffffffffffffffffffff1673ffffffffffffffffffffffffffffffffffffffff16815260200190815260200160002081905550600660009054906101000a900473ffffffffffffffffffffffffffffffffffffffff1673ffffffffffffffffffffffffffffffffffffffff1663a9059cbb33836040518363ffffffff1660e01b8152600401612033929190613448565b600060405180830381600087803b15801561204d57600080fd5b505af1158015612061573d6000803e3d6000fd5b5050505060006040518060600160405280600660009054906101000a900473ffffffffffffffffffffffffffffffffffffffff1673ffffffffffffffffffffffffffffffffffffffff168152602001838152602001428152509050601560003373ffffffffffffffffffffffffffffffffffffffff1673ffffffffffffffffffffffffffffffffffffffff16815260200190815260200160002081908060018154018082558091505060019003906000526020600020906003020160009091909190915060008201518160000160006101000a81548173ffffffffffffffffffffffffffffffffffffffff021916908373ffffffffffffffffffffffffffffffffffffffff160217905550602082015181600101556040820151816002015550505050565b600460009054906101000a900473ffffffffffffffffffffffffffffffffffffffff1681565b600160009054906101000a900473ffffffffffffffffffffffffffffffffffffffff1673ffffffffffffffffffffffffffffffffffffffff163373ffffffffffffffffffffffffffffffffffffffff161461223c576040517f08c379a000000000000000000000000000000000000000000000000000000000815260040161223390613535565b60405180910390fd5b60018114156123745761229782601160008673ffffffffffffffffffffffffffffffffffffffff1673ffffffffffffffffffffffffffffffffffffffff16815260200190815260200160002054612b9890919063ffffffff16565b601160008573ffffffffffffffffffffffffffffffffffffffff1673ffffffffffffffffffffffffffffffffffffffff1681526020019081526020016000208190555061232c82601360008673ffffffffffffffffffffffffffffffffffffffff1673ffffffffffffffffffffffffffffffffffffffff16815260200190815260200160002054612be290919063ffffffff16565b601360008573ffffffffffffffffffffffffffffffffffffffff1673ffffffffffffffffffffffffffffffffffffffff1681526020019081526020016000208190555061249f565b6123c682601360008673ffffffffffffffffffffffffffffffffffffffff1673ffffffffffffffffffffffffffffffffffffffff16815260200190815260200160002054612b9890919063ffffffff16565b601360008573ffffffffffffffffffffffffffffffffffffffff1673ffffffffffffffffffffffffffffffffffffffff1681526020019081526020016000208190555061245b82601160008673ffffffffffffffffffffffffffffffffffffffff1673ffffffffffffffffffffffffffffffffffffffff16815260200190815260200160002054612be290919063ffffffff16565b601160008573ffffffffffffffffffffffffffffffffffffffff1673ffffffffffffffffffffffffffffffffffffffff168152602001908152602001600020819055505b505050565b60106020528060005260406000206000915090505481565b601460205281600052604060002081815481106124d857600080fd5b9060005260206000209060030201600091509150508060000160009054906101000a900473ffffffffffffffffffffffffffffffffffffffff16908060010154908060020154905083565b600f5481565b600660009054906101000a900473ffffffffffffffffffffffffffffffffffffffff1681565b60136020528060005260406000206000915090505481565b600e5481565b600860009054906101000a900473ffffffffffffffffffffffffffffffffffffffff1681565b600660009054906101000a900473ffffffffffffffffffffffffffffffffffffffff1673ffffffffffffffffffffffffffffffffffffffff166323b872dd3330846040518463ffffffff1660e01b81526004016125f293929190613411565b600060405180830381600087803b15801561260c57600080fd5b505af1158015612620573d6000803e3d6000fd5b5050505061267681601160003373ffffffffffffffffffffffffffffffffffffffff1673ffffffffffffffffffffffffffffffffffffffff16815260200190815260200160002054612be290919063ffffffff16565b601160003373ffffffffffffffffffffffffffffffffffffffff1673ffffffffffffffffffffffffffffffffffffffff1681526020019081526020016000208190555060006040518060600160405280600660009054906101000a900473ffffffffffffffffffffffffffffffffffffffff1673ffffffffffffffffffffffffffffffffffffffff168152602001838152602001428152509050601460003373ffffffffffffffffffffffffffffffffffffffff1673ffffffffffffffffffffffffffffffffffffffff16815260200190815260200160002081908060018154018082558091505060019003906000526020600020906003020160009091909190915060008201518160000160006101000a81548173ffffffffffffffffffffffffffffffffffffffff021916908373ffffffffffffffffffffffffffffffffffffffff160217905550602082015181600101556040820151816002015550505050565b600d5481565b60008054906101000a900473ffffffffffffffffffffffffffffffffffffffff1681565b6000600583101561282a5760058210156128215760019050612898565b60009050612898565b606483141561284e57605f8211156128455760019050612898565b60009050612898565b6000612864600585612ca790919063ffffffff16565b9050600061287c600585612ca790919063ffffffff16565b90508082141561289157600192505050612898565b6000925050505b92915050565b600260009054906101000a900473ffffffffffffffffffffffffffffffffffffffff1681565b600760009054906101000a900473ffffffffffffffffffffffffffffffffffffffff1681565b6015602052816000526040600020818154811061290657600080fd5b9060005260206000209060030201600091509150508060000160009054906101000a900473ffffffffffffffffffffffffffffffffffffffff16908060010154908060020154905083565b600760009054906101000a900473ffffffffffffffffffffffffffffffffffffffff1673ffffffffffffffffffffffffffffffffffffffff166323b872dd3330846040518463ffffffff1660e01b81526004016129b093929190613411565b600060405180830381600087803b1580156129ca57600080fd5b505af11580156129de573d6000803e3d6000fd5b50505050612a3481601060003373ffffffffffffffffffffffffffffffffffffffff1673ffffffffffffffffffffffffffffffffffffffff16815260200190815260200160002054612be290919063ffffffff16565b601060003373ffffffffffffffffffffffffffffffffffffffff1673ffffffffffffffffffffffffffffffffffffffff1681526020019081526020016000208190555060006040518060600160405280600760009054906101000a900473ffffffffffffffffffffffffffffffffffffffff1673ffffffffffffffffffffffffffffffffffffffff168152602001838152602001428152509050601460003373ffffffffffffffffffffffffffffffffffffffff1673ffffffffffffffffffffffffffffffffffffffff16815260200190815260200160002081908060018154018082558091505060019003906000526020600020906003020160009091909190915060008201518160000160006101000a81548173ffffffffffffffffffffffffffffffffffffffff021916908373ffffffffffffffffffffffffffffffffffffffff160217905550602082015181600101556040820151816002015550505050565b6000612bda83836040518060400160405280601e81526020017f536166654d6174683a207375627472616374696f6e206f766572666c6f770000815250612d7d565b905092915050565b600080828401905083811015612c2d576040517f08c379a0000000000000000000000000000000000000000000000000000000008152600401612c2490613555565b60405180910390fd5b8091505092915050565b600080831415612c4a5760009050612ca1565b6000828402905082848281612c5b57fe5b0414612c9c576040517f08c379a0000000000000000000000000000000000000000000000000000000008152600401612c9390613595565b60405180910390fd5b809150505b92915050565b6000612ce983836040518060400160405280601a81526020017f536166654d6174683a206469766973696f6e206279207a65726f000000000000815250612dd8565b905092915050565b60008061271090506000612d10600b5483612b9890919063ffffffff16565b90506000612d278286612c3790919063ffffffff16565b9050612d3c8382612ca790919063ffffffff16565b9050809350505050919050565b6000600c54612d65600f54600d54612ca790919063ffffffff16565b10612d74576113889050612d7a565b6103e890505b90565b6000838311158290612dc5576040517f08c379a0000000000000000000000000000000000000000000000000000000008152600401612dbc91906134c3565b60405180910390fd5b5060008385039050809150509392505050565b60008083118290612e1f576040517f08c379a0000000000000000000000000000000000000000000000000000000008152600401612e1691906134c3565b60405180910390fd5b506000838581612e2b57fe5b049050809150509392505050565b6000612e4c612e4784613601565b6135d0565b905082815260208101848484011115612e6457600080fd5b612e6f8482856136cb565b509392505050565b600081359050612e8681613711565b92915050565b600081519050612e9b81613711565b92915050565b600081359050612eb081613728565b92915050565b600081519050612ec581613728565b92915050565b600082601f830112612edc57600080fd5b8151612eec848260208601612e39565b91505092915050565b600060608284031215612f0757600080fd5b612f1160606135d0565b90506000612f2184828501612e8c565b600083015250602082015167ffffffffffffffff811115612f4157600080fd5b612f4d84828501612ecb565b6020830152506040612f6184828501612eb6565b60408301525092915050565b600081359050612f7c8161373f565b92915050565b600081519050612f918161373f565b92915050565b600060208284031215612fa957600080fd5b6000612fb784828501612e77565b91505092915050565b600080600060608486031215612fd557600080fd5b6000612fe386828701612e77565b9350506020612ff486828701612e77565b925050604061300586828701612f6d565b9150509250925092565b6000806040838503121561302257600080fd5b600061303085828601612e77565b925050602061304185828601612f6d565b9150509250929050565b60008060006060848603121561306057600080fd5b600061306e86828701612e77565b935050602061307f86828701612f6d565b925050604061309086828701612ea1565b9150509250925092565b6000806000606084860312156130af57600080fd5b60006130bd86828701612e77565b93505060206130ce86828701612f6d565b92505060406130df86828701612f6d565b9150509250925092565b600080600080608085870312156130ff57600080fd5b600061310d87828801612e77565b945050602061311e87828801612f6d565b935050604061312f87828801612f6d565b925050606061314087828801612ea1565b91505092959194509250565b60006020828403121561315e57600080fd5b600082015167ffffffffffffffff81111561317857600080fd5b61318484828501612ef5565b91505092915050565b60006020828403121561319f57600080fd5b60006131ad84828501612f6d565b91505092915050565b6000602082840312156131c857600080fd5b60006131d684828501612f82565b91505092915050565b600080604083850312156131f257600080fd5b600061320085828601612f6d565b925050602061321185828601612f6d565b9150509250929050565b61322481613695565b82525050565b6132338161364d565b82525050565b6132428161365f565b82525050565b600061325382613631565b61325d818561363c565b935061326d8185602086016136cb565b61327681613700565b840191505092915050565b600061328e601c8361363c565b91507f4e6f7420656e6f756768206a6577656c20746f207769746864726177000000006000830152602082019050919050565b60006132ce601c8361363c565b91507f4f6e6c7920426174746c65436f6e74726163742063616e2063616c6c000000006000830152602082019050919050565b600061330e601b8361363c565b91507f536166654d6174683a206164646974696f6e206f766572666c6f7700000000006000830152602082019050919050565b600061334e601b8361363c565b91507f4e6f7420656e6f75676820676f6c6420746f20776974686472617700000000006000830152602082019050919050565b600061338e60218361363c565b91507f536166654d6174683a206d756c7469706c69636174696f6e206f766572666c6f60008301527f77000000000000000000000000000000000000000000000000000000000000006020830152604082019050919050565b6133f08161368b565b82525050565b600060208201905061340b600083018461322a565b92915050565b6000606082019050613426600083018661321b565b613433602083018561322a565b61344060408301846133e7565b949350505050565b600060408201905061345d600083018561321b565b61346a60208301846133e7565b9392505050565b6000606082019050613486600083018661322a565b61349360208301856133e7565b6134a060408301846133e7565b949350505050565b60006020820190506134bd6000830184613239565b92915050565b600060208201905081810360008301526134dd8184613248565b905092915050565b600060408201905081810360008301526134ff8185613248565b905061350e60208301846133e7565b9392505050565b6000602082019050818103600083015261352e81613281565b9050919050565b6000602082019050818103600083015261354e816132c1565b9050919050565b6000602082019050818103600083015261356e81613301565b9050919050565b6000602082019050818103600083015261358e81613341565b9050919050565b600060208201905081810360008301526135ae81613381565b9050919050565b60006020820190506135ca60008301846133e7565b92915050565b6000604051905081810181811067ffffffffffffffff821117156135f7576135f66136fe565b5b8060405250919050565b600067ffffffffffffffff82111561361c5761361b6136fe565b5b601f19601f8301169050602081019050919050565b600081519050919050565b600082825260208201905092915050565b60006136588261366b565b9050919050565b60008115159050919050565b600073ffffffffffffffffffffffffffffffffffffffff82169050919050565b6000819050919050565b60006136a0826136a7565b9050919050565b60006136b2826136b9565b9050919050565b60006136c48261366b565b9050919050565b60005b838110156136e95780820151818401526020810190506136ce565b838111156136f8576000848401525b50505050565bfe5b6000601f19601f8301169050919050565b61371a8161364d565b811461372557600080fd5b50565b6137318161365f565b811461373c57600080fd5b50565b6137488161368b565b811461375357600080fd5b5056fea264697066735822122033971ba52f57f865abe39f26a8ac9aa9a69eb283c4f1435bb6b522bfe8f20a7a64736f6c63430007060033",
  "linkReferences": {},
  "deployedLinkReferences": {}
}