{
  "_format": "hh-sol-artifact-1",
  "contractName": "Auction",
  "sourceName": "contracts/Auction.sol",
  "abi": [
    {
      "inputs": [],
      "stateMutability": "nonpayable",
      "type": "constructor"
    },
    {
      "inputs": [],
      "name": "admin1",
      "outputs": [
        {
          "internalType": "address",
          "name": "",
          "type": "address"
        }
      ],
      "stateMutability": "view",
      "type": "function"
    },
    {
      "inputs": [
        {
          "internalType": "address",
          "name": "",
          "type": "address"
        },
        {
          "internalType": "uint256",
          "name": "",
          "type": "uint256"
        }
      ],
      "name": "currentOpenAuctions",
      "outputs": [
        {
          "internalType": "uint256",
          "name": "",
          "type": "uint256"
        }
      ],
      "stateMutability": "view",
      "type": "function"
    },
    {
      "inputs": [
        {
          "internalType": "address",
          "name": "user_address",
          "type": "address"
        }
      ],
      "name": "getUserAuctions",
      "outputs": [
        {
          "internalType": "uint256[]",
          "name": "",
          "type": "uint256[]"
        }
      ],
      "stateMutability": "nonpayable",
      "type": "function"
    },
    {
      "inputs": [
        {
          "internalType": "uint256",
          "name": "heroId",
          "type": "uint256"
        }
      ],
      "name": "setNewAuction",
      "outputs": [],
      "stateMutability": "nonpayable",
      "type": "function"
    }
  ],
  "bytecode": "0x608060405234801561001057600080fd5b50336000806101000a81548173ffffffffffffffffffffffffffffffffffffffff021916908373ffffffffffffffffffffffffffffffffffffffff1602179055506104cc806100606000396000f3fe608060405234801561001057600080fd5b506004361061004c5760003560e01c80630ea7033314610051578063115976c41461008157806336c1c07c1461009f578063ff3ad0b4146100bb575b600080fd5b61006b60048036038101906100669190610293565b6100eb565b60405161007891906103d8565b60405180910390f35b61008961011c565b604051610096919061039b565b60405180910390f35b6100b960048036038101906100b491906102cf565b610140565b005b6100d560048036038101906100d0919061026a565b6101a9565b6040516100e291906103b6565b60405180910390f35b6001602052816000526040600020818154811061010757600080fd5b90600052602060002001600091509150505481565b60008054906101000a900473ffffffffffffffffffffffffffffffffffffffff1681565b600160003373ffffffffffffffffffffffffffffffffffffffff1673ffffffffffffffffffffffffffffffffffffffff16815260200190815260200160002081908060018154018082558091505060019003906000526020600020016000909190919091505550565b6060600160008373ffffffffffffffffffffffffffffffffffffffff1673ffffffffffffffffffffffffffffffffffffffff16815260200190815260200160002080548060200260200160405190810160405280929190818152602001828054801561023457602002820191906000526020600020905b815481526020019060010190808311610220575b50505050509050919050565b60008135905061024f81610468565b92915050565b6000813590506102648161047f565b92915050565b60006020828403121561027c57600080fd5b600061028a84828501610240565b91505092915050565b600080604083850312156102a657600080fd5b60006102b485828601610240565b92505060206102c585828601610255565b9150509250929050565b6000602082840312156102e157600080fd5b60006102ef84828501610255565b91505092915050565b6000610304838361037d565b60208301905092915050565b6103198161042c565b82525050565b600061032a82610403565b610334818561041b565b935061033f836103f3565b8060005b8381101561037057815161035788826102f8565b97506103628361040e565b925050600181019050610343565b5085935050505092915050565b6103868161045e565b82525050565b6103958161045e565b82525050565b60006020820190506103b06000830184610310565b92915050565b600060208201905081810360008301526103d0818461031f565b905092915050565b60006020820190506103ed600083018461038c565b92915050565b6000819050602082019050919050565b600081519050919050565b6000602082019050919050565b600082825260208201905092915050565b60006104378261043e565b9050919050565b600073ffffffffffffffffffffffffffffffffffffffff82169050919050565b6000819050919050565b6104718161042c565b811461047c57600080fd5b50565b6104888161045e565b811461049357600080fd5b5056fea2646970667358221220546351399c1350022925b49e976a51af3e48116ceacef52e6799df28be9ac9be64736f6c63430007060033",
  "linkReferences": {},
  "deployedLinkReferences": {}
}