{
  "_format": "hh-sol-artifact-1",
  "contractName": "Hero",
  "sourceName": "contracts/Hero.sol",
  "abi": [
    {
      "inputs": [],
      "stateMutability": "nonpayable",
      "type": "constructor"
    },
    {
      "anonymous": false,
      "inputs": [
        {
          "indexed": true,
          "internalType": "address",
          "name": "owner",
          "type": "address"
        },
        {
          "indexed": true,
          "internalType": "address",
          "name": "approved",
          "type": "address"
        },
        {
          "indexed": true,
          "internalType": "uint256",
          "name": "tokenId",
          "type": "uint256"
        }
      ],
      "name": "Approval",
      "type": "event"
    },
    {
      "anonymous": false,
      "inputs": [
        {
          "indexed": true,
          "internalType": "address",
          "name": "owner",
          "type": "address"
        },
        {
          "indexed": true,
          "internalType": "address",
          "name": "operator",
          "type": "address"
        },
        {
          "indexed": false,
          "internalType": "bool",
          "name": "approved",
          "type": "bool"
        }
      ],
      "name": "ApprovalForAll",
      "type": "event"
    },
    {
      "anonymous": false,
      "inputs": [
        {
          "indexed": true,
          "internalType": "address",
          "name": "from",
          "type": "address"
        },
        {
          "indexed": true,
          "internalType": "address",
          "name": "to",
          "type": "address"
        },
        {
          "indexed": true,
          "internalType": "uint256",
          "name": "tokenId",
          "type": "uint256"
        }
      ],
      "name": "Transfer",
      "type": "event"
    },
    {
      "inputs": [],
      "name": "admin1",
      "outputs": [
        {
          "internalType": "address",
          "name": "",
          "type": "address"
        }
      ],
      "stateMutability": "view",
      "type": "function"
    },
    {
      "inputs": [
        {
          "internalType": "address",
          "name": "to",
          "type": "address"
        },
        {
          "internalType": "uint256",
          "name": "tokenId",
          "type": "uint256"
        }
      ],
      "name": "approve",
      "outputs": [],
      "stateMutability": "nonpayable",
      "type": "function"
    },
    {
      "inputs": [
        {
          "internalType": "address",
          "name": "owner",
          "type": "address"
        }
      ],
      "name": "balanceOf",
      "outputs": [
        {
          "internalType": "uint256",
          "name": "",
          "type": "uint256"
        }
      ],
      "stateMutability": "view",
      "type": "function"
    },
    {
      "inputs": [],
      "name": "baseURI",
      "outputs": [
        {
          "internalType": "string",
          "name": "",
          "type": "string"
        }
      ],
      "stateMutability": "view",
      "type": "function"
    },
    {
      "inputs": [],
      "name": "ceoAddress",
      "outputs": [
        {
          "internalType": "address",
          "name": "",
          "type": "address"
        }
      ],
      "stateMutability": "nonpayable",
      "type": "function"
    },
    {
      "inputs": [
        {
          "internalType": "uint256",
          "name": "tokenId",
          "type": "uint256"
        }
      ],
      "name": "getApproved",
      "outputs": [
        {
          "internalType": "address",
          "name": "",
          "type": "address"
        }
      ],
      "stateMutability": "view",
      "type": "function"
    },
    {
      "inputs": [
        {
          "internalType": "uint256",
          "name": "heroId",
          "type": "uint256"
        }
      ],
      "name": "getHero",
      "outputs": [
        {
          "components": [
            {
              "internalType": "uint256",
              "name": "id",
              "type": "uint256"
            },
            {
              "components": [
                {
                  "internalType": "uint256",
                  "name": "summonedTime",
                  "type": "uint256"
                },
                {
                  "internalType": "uint256",
                  "name": "nextSummonTime",
                  "type": "uint256"
                },
                {
                  "internalType": "uint256",
                  "name": "summonerId",
                  "type": "uint256"
                },
                {
                  "internalType": "uint256",
                  "name": "assistantId",
                  "type": "uint256"
                },
                {
                  "internalType": "uint256",
                  "name": "summons",
                  "type": "uint256"
                },
                {
                  "internalType": "uint256",
                  "name": "maxSummons",
                  "type": "uint256"
                }
              ],
              "internalType": "struct Hero.SummoningInfo",
              "name": "summoningInfo",
              "type": "tuple"
            },
            {
              "components": [
                {
                  "internalType": "uint256",
                  "name": "statGenes",
                  "type": "uint256"
                },
                {
                  "internalType": "uint256",
                  "name": "visualGenes",
                  "type": "uint256"
                },
                {
                  "internalType": "uint256",
                  "name": "rarity",
                  "type": "uint256"
                },
                {
                  "internalType": "bool",
                  "name": "shiny",
                  "type": "bool"
                },
                {
                  "internalType": "uint256",
                  "name": "generation",
                  "type": "uint256"
                },
                {
                  "internalType": "uint256",
                  "name": "firstName",
                  "type": "uint256"
                },
                {
                  "internalType": "uint256",
                  "name": "lastName",
                  "type": "uint256"
                },
                {
                  "internalType": "uint256",
                  "name": "shinyStyle",
                  "type": "uint256"
                },
                {
                  "internalType": "uint256",
                  "name": "class",
                  "type": "uint256"
                },
                {
                  "internalType": "uint256",
                  "name": "subClass",
                  "type": "uint256"
                }
              ],
              "internalType": "struct Hero.Info",
              "name": "info",
              "type": "tuple"
            },
            {
              "components": [
                {
                  "internalType": "uint256",
                  "name": "staminaFullAt",
                  "type": "uint256"
                },
                {
                  "internalType": "uint256",
                  "name": "hpFullAt",
                  "type": "uint256"
                },
                {
                  "internalType": "uint256",
                  "name": "mpFullAt",
                  "type": "uint256"
                },
                {
                  "internalType": "uint16",
                  "name": "level",
                  "type": "uint16"
                },
                {
                  "internalType": "uint64",
                  "name": "xp",
                  "type": "uint64"
                },
                {
                  "internalType": "address",
                  "name": "currentQuest",
                  "type": "address"
                },
                {
                  "internalType": "uint8",
                  "name": "sp",
                  "type": "uint8"
                },
                {
                  "internalType": "uint8",
                  "name": "status",
                  "type": "uint8"
                }
              ],
              "internalType": "struct Hero.State",
              "name": "state",
              "type": "tuple"
            },
            {
              "components": [
                {
                  "internalType": "uint16",
                  "name": "strength",
                  "type": "uint16"
                },
                {
                  "internalType": "uint16",
                  "name": "intelligence",
                  "type": "uint16"
                },
                {
                  "internalType": "uint16",
                  "name": "wisdom",
                  "type": "uint16"
                },
                {
                  "internalType": "uint16",
                  "name": "luck",
                  "type": "uint16"
                },
                {
                  "internalType": "uint16",
                  "name": "agility",
                  "type": "uint16"
                },
                {
                  "internalType": "uint16",
                  "name": "vitality",
                  "type": "uint16"
                },
                {
                  "internalType": "uint16",
                  "name": "endurance",
                  "type": "uint16"
                },
                {
                  "internalType": "uint16",
                  "name": "dexterity",
                  "type": "uint16"
                },
                {
                  "internalType": "uint16",
                  "name": "hp",
                  "type": "uint16"
                },
                {
                  "internalType": "uint16",
                  "name": "mp",
                  "type": "uint16"
                },
                {
                  "internalType": "uint16",
                  "name": "stamina",
                  "type": "uint16"
                }
              ],
              "internalType": "struct Hero.Stats",
              "name": "stats",
              "type": "tuple"
            },
            {
              "components": [
                {
                  "internalType": "uint256",
                  "name": "strength",
                  "type": "uint256"
                },
                {
                  "internalType": "uint256",
                  "name": "wisdom",
                  "type": "uint256"
                },
                {
                  "internalType": "uint256",
                  "name": "agility",
                  "type": "uint256"
                },
                {
                  "internalType": "uint256",
                  "name": "endurance",
                  "type": "uint256"
                },
                {
                  "internalType": "uint256",
                  "name": "hpSm",
                  "type": "uint256"
                },
                {
                  "internalType": "uint256",
                  "name": "hpLg",
                  "type": "uint256"
                },
                {
                  "internalType": "uint256",
                  "name": "mpRg",
                  "type": "uint256"
                },
                {
                  "internalType": "uint256",
                  "name": "intelligence",
                  "type": "uint256"
                },
                {
                  "internalType": "uint256",
                  "name": "luck",
                  "type": "uint256"
                },
                {
                  "internalType": "uint256",
                  "name": "vitality",
                  "type": "uint256"
                },
                {
                  "internalType": "uint256",
                  "name": "dexterity",
                  "type": "uint256"
                },
                {
                  "internalType": "uint256",
                  "name": "hpRg",
                  "type": "uint256"
                },
                {
                  "internalType": "uint256",
                  "name": "mpSm",
                  "type": "uint256"
                },
                {
                  "internalType": "uint256",
                  "name": "mpLg",
                  "type": "uint256"
                }
              ],
              "internalType": "struct Hero.PrimaryStateGrowth",
              "name": "primaryStatGrowth",
              "type": "tuple"
            },
            {
              "components": [
                {
                  "internalType": "uint256",
                  "name": "strength",
                  "type": "uint256"
                },
                {
                  "internalType": "uint256",
                  "name": "wisdom",
                  "type": "uint256"
                },
                {
                  "internalType": "uint256",
                  "name": "agility",
                  "type": "uint256"
                },
                {
                  "internalType": "uint256",
                  "name": "endurance",
                  "type": "uint256"
                },
                {
                  "internalType": "uint256",
                  "name": "hpSm",
                  "type": "uint256"
                },
                {
                  "internalType": "uint256",
                  "name": "hpLg",
                  "type": "uint256"
                },
                {
                  "internalType": "uint256",
                  "name": "mpRg",
                  "type": "uint256"
                },
                {
                  "internalType": "uint256",
                  "name": "intelligence",
                  "type": "uint256"
                },
                {
                  "internalType": "uint256",
                  "name": "luck",
                  "type": "uint256"
                },
                {
                  "internalType": "uint256",
                  "name": "vitality",
                  "type": "uint256"
                },
                {
                  "internalType": "uint256",
                  "name": "dexterity",
                  "type": "uint256"
                },
                {
                  "internalType": "uint256",
                  "name": "hpRg",
                  "type": "uint256"
                },
                {
                  "internalType": "uint256",
                  "name": "mpSm",
                  "type": "uint256"
                },
                {
                  "internalType": "uint256",
                  "name": "mpLg",
                  "type": "uint256"
                }
              ],
              "internalType": "struct Hero.SecondaryStatGrowth",
              "name": "secondaryStatGrowth",
              "type": "tuple"
            },
            {
              "components": [
                {
                  "internalType": "uint256",
                  "name": "mining",
                  "type": "uint256"
                },
                {
                  "internalType": "uint256",
                  "name": "gardening",
                  "type": "uint256"
                },
                {
                  "internalType": "uint256",
                  "name": "foraging",
                  "type": "uint256"
                },
                {
                  "internalType": "uint256",
                  "name": "fishing",
                  "type": "uint256"
                }
              ],
              "internalType": "struct Hero.Professions",
              "name": "professions",
              "type": "tuple"
            }
          ],
          "internalType": "struct Hero.HeroObject",
          "name": "",
          "type": "tuple"
        }
      ],
      "stateMutability": "view",
      "type": "function"
    },
    {
      "inputs": [
        {
          "internalType": "uint256",
          "name": "heroId",
          "type": "uint256"
        }
      ],
      "name": "heroIndexToOwner",
      "outputs": [
        {
          "internalType": "address",
          "name": "",
          "type": "address"
        }
      ],
      "stateMutability": "nonpayable",
      "type": "function"
    },
    {
      "inputs": [
        {
          "internalType": "uint256",
          "name": "",
          "type": "uint256"
        }
      ],
      "name": "heroMapping",
      "outputs": [
        {
          "internalType": "uint256",
          "name": "id",
          "type": "uint256"
        },
        {
          "components": [
            {
              "internalType": "uint256",
              "name": "summonedTime",
              "type": "uint256"
            },
            {
              "internalType": "uint256",
              "name": "nextSummonTime",
              "type": "uint256"
            },
            {
              "internalType": "uint256",
              "name": "summonerId",
              "type": "uint256"
            },
            {
              "internalType": "uint256",
              "name": "assistantId",
              "type": "uint256"
            },
            {
              "internalType": "uint256",
              "name": "summons",
              "type": "uint256"
            },
            {
              "internalType": "uint256",
              "name": "maxSummons",
              "type": "uint256"
            }
          ],
          "internalType": "struct Hero.SummoningInfo",
          "name": "summoningInfo",
          "type": "tuple"
        },
        {
          "components": [
            {
              "internalType": "uint256",
              "name": "statGenes",
              "type": "uint256"
            },
            {
              "internalType": "uint256",
              "name": "visualGenes",
              "type": "uint256"
            },
            {
              "internalType": "uint256",
              "name": "rarity",
              "type": "uint256"
            },
            {
              "internalType": "bool",
              "name": "shiny",
              "type": "bool"
            },
            {
              "internalType": "uint256",
              "name": "generation",
              "type": "uint256"
            },
            {
              "internalType": "uint256",
              "name": "firstName",
              "type": "uint256"
            },
            {
              "internalType": "uint256",
              "name": "lastName",
              "type": "uint256"
            },
            {
              "internalType": "uint256",
              "name": "shinyStyle",
              "type": "uint256"
            },
            {
              "internalType": "uint256",
              "name": "class",
              "type": "uint256"
            },
            {
              "internalType": "uint256",
              "name": "subClass",
              "type": "uint256"
            }
          ],
          "internalType": "struct Hero.Info",
          "name": "info",
          "type": "tuple"
        },
        {
          "components": [
            {
              "internalType": "uint256",
              "name": "staminaFullAt",
              "type": "uint256"
            },
            {
              "internalType": "uint256",
              "name": "hpFullAt",
              "type": "uint256"
            },
            {
              "internalType": "uint256",
              "name": "mpFullAt",
              "type": "uint256"
            },
            {
              "internalType": "uint16",
              "name": "level",
              "type": "uint16"
            },
            {
              "internalType": "uint64",
              "name": "xp",
              "type": "uint64"
            },
            {
              "internalType": "address",
              "name": "currentQuest",
              "type": "address"
            },
            {
              "internalType": "uint8",
              "name": "sp",
              "type": "uint8"
            },
            {
              "internalType": "uint8",
              "name": "status",
              "type": "uint8"
            }
          ],
          "internalType": "struct Hero.State",
          "name": "state",
          "type": "tuple"
        },
        {
          "components": [
            {
              "internalType": "uint16",
              "name": "strength",
              "type": "uint16"
            },
            {
              "internalType": "uint16",
              "name": "intelligence",
              "type": "uint16"
            },
            {
              "internalType": "uint16",
              "name": "wisdom",
              "type": "uint16"
            },
            {
              "internalType": "uint16",
              "name": "luck",
              "type": "uint16"
            },
            {
              "internalType": "uint16",
              "name": "agility",
              "type": "uint16"
            },
            {
              "internalType": "uint16",
              "name": "vitality",
              "type": "uint16"
            },
            {
              "internalType": "uint16",
              "name": "endurance",
              "type": "uint16"
            },
            {
              "internalType": "uint16",
              "name": "dexterity",
              "type": "uint16"
            },
            {
              "internalType": "uint16",
              "name": "hp",
              "type": "uint16"
            },
            {
              "internalType": "uint16",
              "name": "mp",
              "type": "uint16"
            },
            {
              "internalType": "uint16",
              "name": "stamina",
              "type": "uint16"
            }
          ],
          "internalType": "struct Hero.Stats",
          "name": "stats",
          "type": "tuple"
        },
        {
          "components": [
            {
              "internalType": "uint256",
              "name": "strength",
              "type": "uint256"
            },
            {
              "internalType": "uint256",
              "name": "wisdom",
              "type": "uint256"
            },
            {
              "internalType": "uint256",
              "name": "agility",
              "type": "uint256"
            },
            {
              "internalType": "uint256",
              "name": "endurance",
              "type": "uint256"
            },
            {
              "internalType": "uint256",
              "name": "hpSm",
              "type": "uint256"
            },
            {
              "internalType": "uint256",
              "name": "hpLg",
              "type": "uint256"
            },
            {
              "internalType": "uint256",
              "name": "mpRg",
              "type": "uint256"
            },
            {
              "internalType": "uint256",
              "name": "intelligence",
              "type": "uint256"
            },
            {
              "internalType": "uint256",
              "name": "luck",
              "type": "uint256"
            },
            {
              "internalType": "uint256",
              "name": "vitality",
              "type": "uint256"
            },
            {
              "internalType": "uint256",
              "name": "dexterity",
              "type": "uint256"
            },
            {
              "internalType": "uint256",
              "name": "hpRg",
              "type": "uint256"
            },
            {
              "internalType": "uint256",
              "name": "mpSm",
              "type": "uint256"
            },
            {
              "internalType": "uint256",
              "name": "mpLg",
              "type": "uint256"
            }
          ],
          "internalType": "struct Hero.PrimaryStateGrowth",
          "name": "primaryStatGrowth",
          "type": "tuple"
        },
        {
          "components": [
            {
              "internalType": "uint256",
              "name": "strength",
              "type": "uint256"
            },
            {
              "internalType": "uint256",
              "name": "wisdom",
              "type": "uint256"
            },
            {
              "internalType": "uint256",
              "name": "agility",
              "type": "uint256"
            },
            {
              "internalType": "uint256",
              "name": "endurance",
              "type": "uint256"
            },
            {
              "internalType": "uint256",
              "name": "hpSm",
              "type": "uint256"
            },
            {
              "internalType": "uint256",
              "name": "hpLg",
              "type": "uint256"
            },
            {
              "internalType": "uint256",
              "name": "mpRg",
              "type": "uint256"
            },
            {
              "internalType": "uint256",
              "name": "intelligence",
              "type": "uint256"
            },
            {
              "internalType": "uint256",
              "name": "luck",
              "type": "uint256"
            },
            {
              "internalType": "uint256",
              "name": "vitality",
              "type": "uint256"
            },
            {
              "internalType": "uint256",
              "name": "dexterity",
              "type": "uint256"
            },
            {
              "internalType": "uint256",
              "name": "hpRg",
              "type": "uint256"
            },
            {
              "internalType": "uint256",
              "name": "mpSm",
              "type": "uint256"
            },
            {
              "internalType": "uint256",
              "name": "mpLg",
              "type": "uint256"
            }
          ],
          "internalType": "struct Hero.SecondaryStatGrowth",
          "name": "secondaryStatGrowth",
          "type": "tuple"
        },
        {
          "components": [
            {
              "internalType": "uint256",
              "name": "mining",
              "type": "uint256"
            },
            {
              "internalType": "uint256",
              "name": "gardening",
              "type": "uint256"
            },
            {
              "internalType": "uint256",
              "name": "foraging",
              "type": "uint256"
            },
            {
              "internalType": "uint256",
              "name": "fishing",
              "type": "uint256"
            }
          ],
          "internalType": "struct Hero.Professions",
          "name": "professions",
          "type": "tuple"
        }
      ],
      "stateMutability": "view",
      "type": "function"
    },
    {
      "inputs": [
        {
          "internalType": "address",
          "name": "owner",
          "type": "address"
        },
        {
          "internalType": "address",
          "name": "operator",
          "type": "address"
        }
      ],
      "name": "isApprovedForAll",
      "outputs": [
        {
          "internalType": "bool",
          "name": "",
          "type": "bool"
        }
      ],
      "stateMutability": "view",
      "type": "function"
    },
    {
      "inputs": [
        {
          "internalType": "address",
          "name": "to",
          "type": "address"
        },
        {
          "internalType": "uint256",
          "name": "tokenId",
          "type": "uint256"
        }
      ],
      "name": "mint",
      "outputs": [],
      "stateMutability": "nonpayable",
      "type": "function"
    },
    {
      "inputs": [],
      "name": "name",
      "outputs": [
        {
          "internalType": "string",
          "name": "",
          "type": "string"
        }
      ],
      "stateMutability": "view",
      "type": "function"
    },
    {
      "inputs": [
        {
          "internalType": "uint256",
          "name": "tokenId",
          "type": "uint256"
        }
      ],
      "name": "ownerOf",
      "outputs": [
        {
          "internalType": "address",
          "name": "",
          "type": "address"
        }
      ],
      "stateMutability": "view",
      "type": "function"
    },
    {
      "inputs": [
        {
          "internalType": "address",
          "name": "from",
          "type": "address"
        },
        {
          "internalType": "address",
          "name": "to",
          "type": "address"
        },
        {
          "internalType": "uint256",
          "name": "tokenId",
          "type": "uint256"
        }
      ],
      "name": "safeTransferFrom",
      "outputs": [],
      "stateMutability": "nonpayable",
      "type": "function"
    },
    {
      "inputs": [
        {
          "internalType": "address",
          "name": "from",
          "type": "address"
        },
        {
          "internalType": "address",
          "name": "to",
          "type": "address"
        },
        {
          "internalType": "uint256",
          "name": "tokenId",
          "type": "uint256"
        },
        {
          "internalType": "bytes",
          "name": "_data",
          "type": "bytes"
        }
      ],
      "name": "safeTransferFrom",
      "outputs": [],
      "stateMutability": "nonpayable",
      "type": "function"
    },
    {
      "inputs": [
        {
          "internalType": "address",
          "name": "operator",
          "type": "address"
        },
        {
          "internalType": "bool",
          "name": "approved",
          "type": "bool"
        }
      ],
      "name": "setApprovalForAll",
      "outputs": [],
      "stateMutability": "nonpayable",
      "type": "function"
    },
    {
      "inputs": [
        {
          "internalType": "bytes4",
          "name": "interfaceId",
          "type": "bytes4"
        }
      ],
      "name": "supportsInterface",
      "outputs": [
        {
          "internalType": "bool",
          "name": "",
          "type": "bool"
        }
      ],
      "stateMutability": "view",
      "type": "function"
    },
    {
      "inputs": [],
      "name": "symbol",
      "outputs": [
        {
          "internalType": "string",
          "name": "",
          "type": "string"
        }
      ],
      "stateMutability": "view",
      "type": "function"
    },
    {
      "inputs": [
        {
          "internalType": "uint256",
          "name": "index",
          "type": "uint256"
        }
      ],
      "name": "tokenByIndex",
      "outputs": [
        {
          "internalType": "uint256",
          "name": "",
          "type": "uint256"
        }
      ],
      "stateMutability": "view",
      "type": "function"
    },
    {
      "inputs": [
        {
          "internalType": "address",
          "name": "owner",
          "type": "address"
        },
        {
          "internalType": "uint256",
          "name": "index",
          "type": "uint256"
        }
      ],
      "name": "tokenOfOwnerByIndex",
      "outputs": [
        {
          "internalType": "uint256",
          "name": "",
          "type": "uint256"
        }
      ],
      "stateMutability": "view",
      "type": "function"
    },
    {
      "inputs": [
        {
          "internalType": "uint256",
          "name": "tokenId",
          "type": "uint256"
        }
      ],
      "name": "tokenURI",
      "outputs": [
        {
          "internalType": "string",
          "name": "",
          "type": "string"
        }
      ],
      "stateMutability": "view",
      "type": "function"
    },
    {
      "inputs": [],
      "name": "totalSupply",
      "outputs": [
        {
          "internalType": "uint256",
          "name": "",
          "type": "uint256"
        }
      ],
      "stateMutability": "view",
      "type": "function"
    },
    {
      "inputs": [
        {
          "internalType": "address",
          "name": "from",
          "type": "address"
        },
        {
          "internalType": "address",
          "name": "to",
          "type": "address"
        },
        {
          "internalType": "uint256",
          "name": "tokenId",
          "type": "uint256"
        }
      ],
      "name": "transferFrom",
      "outputs": [],
      "stateMutability": "nonpayable",
      "type": "function"
    }
  ],
  "bytecode": "0x60806040523480156200001157600080fd5b506040518060400160405280600881526020017f44464b204865726f0000000000000000000000000000000000000000000000008152506040518060400160405280600481526020017f4865726f00000000000000000000000000000000000000000000000000000000815250620000966301ffc9a760e01b6200015960201b60201c565b8160069080519060200190620000ae92919062000262565b508060079080519060200190620000c792919062000262565b50620000e06380ac58cd60e01b6200015960201b60201c565b620000f8635b5e139f60e01b6200015960201b60201c565b6200011063780e9d6360e01b6200015960201b60201c565b505033600a60006101000a81548173ffffffffffffffffffffffffffffffffffffffff021916908373ffffffffffffffffffffffffffffffffffffffff16021790555062000318565b63ffffffff60e01b817bffffffffffffffffffffffffffffffffffffffffffffffffffffffff19161415620001f6576040517f08c379a000000000000000000000000000000000000000000000000000000000815260040180806020018281038252601c8152602001807f4552433136353a20696e76616c696420696e746572666163652069640000000081525060200191505060405180910390fd5b6001600080837bffffffffffffffffffffffffffffffffffffffffffffffffffffffff19167bffffffffffffffffffffffffffffffffffffffffffffffffffffffff1916815260200190815260200160002060006101000a81548160ff02191690831515021790555050565b828054600181600116156101000203166002900490600052602060002090601f0160209004810192826200029a5760008555620002e6565b82601f10620002b557805160ff1916838001178555620002e6565b82800160010185558215620002e6579182015b82811115620002e5578251825591602001919060010190620002c8565b5b509050620002f59190620002f9565b5090565b5b8082111562000314576000816000905550600101620002fa565b5090565b614ced80620003286000396000f3fe608060405234801561001057600080fd5b506004361061014d5760003560e01c806342842e0e116100c35780639dcde4651161007c5780639dcde465146103c6578063a22cb465146103fd578063aa54beac14610419578063b88d4fde14610449578063c87b56dd14610465578063e985e9c5146104955761014d565b806342842e0e146102de5780634f6ccce7146102fa5780636352211e1461032a5780636c0360eb1461035a57806370a082311461037857806395d89b41146103a85761014d565b8063115976c411610115578063115976c41461020a57806318160ddd1461022857806321d801111461024657806323b872dd146102765780632f745c591461029257806340c10f19146102c25761014d565b806301ffc9a71461015257806306fdde0314610182578063081812fc146101a0578063095ea7b3146101d05780630a0f8168146101ec575b600080fd5b61016c60048036038101906101679190613b10565b6104c5565b60405161017991906147a2565b60405180910390f35b61018a61052c565b60405161019791906147bd565b60405180910390f35b6101ba60048036038101906101b59190613b39565b6105ce565b6040516101c79190614787565b60405180910390f35b6101ea60048036038101906101e59190613ad4565b610669565b005b6101f46107ad565b6040516102019190614787565b60405180910390f35b6102126107d7565b60405161021f9190614787565b60405180910390f35b6102306107fd565b60405161023d91906147fb565b60405180910390f35b610260600480360381019061025b9190613b39565b61080e565b60405161026d91906147df565b60405180910390f35b610290600480360381019061028b91906139ce565b610d28565b005b6102ac60048036038101906102a79190613ad4565b610d9e565b6040516102b991906147fb565b60405180910390f35b6102dc60048036038101906102d79190613ad4565b610df9565b005b6102f860048036038101906102f391906139ce565b610e10565b005b610314600480360381019061030f9190613b39565b610e30565b60405161032191906147fb565b60405180910390f35b610344600480360381019061033f9190613b39565b610e53565b6040516103519190614787565b60405180910390f35b610362610e8a565b60405161036f91906147bd565b60405180910390f35b610392600480360381019061038d9190613969565b610f2c565b60405161039f91906147fb565b60405180910390f35b6103b0611001565b6040516103bd91906147bd565b60405180910390f35b6103e060048036038101906103db9190613b39565b6110a3565b6040516103f4989796959493929190614816565b60405180910390f35b61041760048036038101906104129190613a98565b611587565b005b610433600480360381019061042e9190613b39565b61173d565b6040516104409190614787565b60405180910390f35b610463600480360381019061045e9190613a1d565b61174f565b005b61047f600480360381019061047a9190613b39565b6117c7565b60405161048c91906147bd565b60405180910390f35b6104af60048036038101906104aa9190613992565b611a98565b6040516104bc91906147a2565b60405180910390f35b6000806000837bffffffffffffffffffffffffffffffffffffffffffffffffffffffff19167bffffffffffffffffffffffffffffffffffffffffffffffffffffffff1916815260200190815260200160002060009054906101000a900460ff169050919050565b606060068054600181600116156101000203166002900480601f0160208091040260200160405190810160405280929190818152602001828054600181600116156101000203166002900480156105c45780601f10610599576101008083540402835291602001916105c4565b820191906000526020600020905b8154815290600101906020018083116105a757829003601f168201915b5050505050905090565b60006105d982611b2c565b61062e576040517f08c379a000000000000000000000000000000000000000000000000000000000815260040180806020018281038252602c815260200180614be2602c913960400191505060405180910390fd5b6004600083815260200190815260200160002060009054906101000a900473ffffffffffffffffffffffffffffffffffffffff169050919050565b600061067482610e53565b90508073ffffffffffffffffffffffffffffffffffffffff168373ffffffffffffffffffffffffffffffffffffffff1614156106fb576040517f08c379a0000000000000000000000000000000000000000000000000000000008152600401808060200182810382526021815260200180614c666021913960400191505060405180910390fd5b8073ffffffffffffffffffffffffffffffffffffffff1661071a611b49565b73ffffffffffffffffffffffffffffffffffffffff161480610749575061074881610743611b49565b611a98565b5b61079e576040517f08c379a0000000000000000000000000000000000000000000000000000000008152600401808060200182810382526038815260200180614b356038913960400191505060405180910390fd5b6107a88383611b51565b505050565b6000600a60009054906101000a900473ffffffffffffffffffffffffffffffffffffffff16905090565b600a60009054906101000a900473ffffffffffffffffffffffffffffffffffffffff1681565b60006108096002611c0a565b905090565b6108166135b8565b600b60008381526020019081526020016000206040518061010001604052908160008201548152602001600182016040518060c00160405290816000820154815260200160018201548152602001600282015481526020016003820154815260200160048201548152602001600582015481525050815260200160078201604051806101400160405290816000820154815260200160018201548152602001600282015481526020016003820160009054906101000a900460ff161515151581526020016004820154815260200160058201548152602001600682015481526020016007820154815260200160088201548152602001600982015481525050815260200160118201604051806101000160405290816000820154815260200160018201548152602001600282015481526020016003820160009054906101000a900461ffff1661ffff1661ffff1681526020016003820160029054906101000a900467ffffffffffffffff1667ffffffffffffffff1667ffffffffffffffff16815260200160038201600a9054906101000a900473ffffffffffffffffffffffffffffffffffffffff1673ffffffffffffffffffffffffffffffffffffffff1673ffffffffffffffffffffffffffffffffffffffff16815260200160038201601e9054906101000a900460ff1660ff1660ff16815260200160038201601f9054906101000a900460ff1660ff1660ff1681525050815260200160158201604051806101600160405290816000820160009054906101000a900461ffff1661ffff1661ffff1681526020016000820160029054906101000a900461ffff1661ffff1661ffff1681526020016000820160049054906101000a900461ffff1661ffff1661ffff1681526020016000820160069054906101000a900461ffff1661ffff1661ffff1681526020016000820160089054906101000a900461ffff1661ffff1661ffff16815260200160008201600a9054906101000a900461ffff1661ffff1661ffff16815260200160008201600c9054906101000a900461ffff1661ffff1661ffff16815260200160008201600e9054906101000a900461ffff1661ffff1661ffff1681526020016000820160109054906101000a900461ffff1661ffff1661ffff1681526020016000820160129054906101000a900461ffff1661ffff1661ffff1681526020016000820160149054906101000a900461ffff1661ffff1661ffff1681525050815260200160168201604051806101c001604052908160008201548152602001600182015481526020016002820154815260200160038201548152602001600482015481526020016005820154815260200160068201548152602001600782015481526020016008820154815260200160098201548152602001600a8201548152602001600b8201548152602001600c8201548152602001600d82015481525050815260200160248201604051806101c001604052908160008201548152602001600182015481526020016002820154815260200160038201548152602001600482015481526020016005820154815260200160068201548152602001600782015481526020016008820154815260200160098201548152602001600a8201548152602001600b8201548152602001600c8201548152602001600d82015481525050815260200160328201604051806080016040529081600082015481526020016001820154815260200160028201548152602001600382015481525050815250509050919050565b610d39610d33611b49565b82611c1f565b610d8e576040517f08c379a0000000000000000000000000000000000000000000000000000000008152600401808060200182810382526031815260200180614c876031913960400191505060405180910390fd5b610d99838383611d13565b505050565b6000610df182600160008673ffffffffffffffffffffffffffffffffffffffff1673ffffffffffffffffffffffffffffffffffffffff168152602001908152602001600020611f5690919063ffffffff16565b905092915050565b610e038282611f70565b610e0c81612164565b5050565b610e2b8383836040518060200160405280600081525061174f565b505050565b600080610e478360026129b190919063ffffffff16565b50905080915050919050565b6000610e8382604051806060016040528060298152602001614b976029913960026129dd9092919063ffffffff16565b9050919050565b606060098054600181600116156101000203166002900480601f016020809104026020016040519081016040528092919081815260200182805460018160011615610100020316600290048015610f225780601f10610ef757610100808354040283529160200191610f22565b820191906000526020600020905b815481529060010190602001808311610f0557829003601f168201915b5050505050905090565b60008073ffffffffffffffffffffffffffffffffffffffff168273ffffffffffffffffffffffffffffffffffffffff161415610fb3576040517f08c379a000000000000000000000000000000000000000000000000000000000815260040180806020018281038252602a815260200180614b6d602a913960400191505060405180910390fd5b610ffa600160008473ffffffffffffffffffffffffffffffffffffffff1673ffffffffffffffffffffffffffffffffffffffff1681526020019081526020016000206129fc565b9050919050565b606060078054600181600116156101000203166002900480601f0160208091040260200160405190810160405280929190818152602001828054600181600116156101000203166002900480156110995780601f1061106e57610100808354040283529160200191611099565b820191906000526020600020905b81548152906001019060200180831161107c57829003601f168201915b5050505050905090565b600b602052806000526040600020600091509050806000015490806001016040518060c001604052908160008201548152602001600182015481526020016002820154815260200160038201548152602001600482015481526020016005820154815250509080600701604051806101400160405290816000820154815260200160018201548152602001600282015481526020016003820160009054906101000a900460ff1615151515815260200160048201548152602001600582015481526020016006820154815260200160078201548152602001600882015481526020016009820154815250509080601101604051806101000160405290816000820154815260200160018201548152602001600282015481526020016003820160009054906101000a900461ffff1661ffff1661ffff1681526020016003820160029054906101000a900467ffffffffffffffff1667ffffffffffffffff1667ffffffffffffffff16815260200160038201600a9054906101000a900473ffffffffffffffffffffffffffffffffffffffff1673ffffffffffffffffffffffffffffffffffffffff1673ffffffffffffffffffffffffffffffffffffffff16815260200160038201601e9054906101000a900460ff1660ff1660ff16815260200160038201601f9054906101000a900460ff1660ff1660ff16815250509080601501604051806101600160405290816000820160009054906101000a900461ffff1661ffff1661ffff1681526020016000820160029054906101000a900461ffff1661ffff1661ffff1681526020016000820160049054906101000a900461ffff1661ffff1661ffff1681526020016000820160069054906101000a900461ffff1661ffff1661ffff1681526020016000820160089054906101000a900461ffff1661ffff1661ffff16815260200160008201600a9054906101000a900461ffff1661ffff1661ffff16815260200160008201600c9054906101000a900461ffff1661ffff1661ffff16815260200160008201600e9054906101000a900461ffff1661ffff1661ffff1681526020016000820160109054906101000a900461ffff1661ffff1661ffff1681526020016000820160129054906101000a900461ffff1661ffff1661ffff1681526020016000820160149054906101000a900461ffff1661ffff1661ffff16815250509080601601604051806101c001604052908160008201548152602001600182015481526020016002820154815260200160038201548152602001600482015481526020016005820154815260200160068201548152602001600782015481526020016008820154815260200160098201548152602001600a8201548152602001600b8201548152602001600c8201548152602001600d820154815250509080602401604051806101c001604052908160008201548152602001600182015481526020016002820154815260200160038201548152602001600482015481526020016005820154815260200160068201548152602001600782015481526020016008820154815260200160098201548152602001600a8201548152602001600b8201548152602001600c8201548152602001600d820154815250509080603201604051806080016040529081600082015481526020016001820154815260200160028201548152602001600382015481525050905088565b61158f611b49565b73ffffffffffffffffffffffffffffffffffffffff168273ffffffffffffffffffffffffffffffffffffffff161415611630576040517f08c379a00000000000000000000000000000000000000000000000000000000081526004018080602001828103825260198152602001807f4552433732313a20617070726f766520746f2063616c6c65720000000000000081525060200191505060405180910390fd5b806005600061163d611b49565b73ffffffffffffffffffffffffffffffffffffffff1673ffffffffffffffffffffffffffffffffffffffff16815260200190815260200160002060008473ffffffffffffffffffffffffffffffffffffffff1673ffffffffffffffffffffffffffffffffffffffff16815260200190815260200160002060006101000a81548160ff0219169083151502179055508173ffffffffffffffffffffffffffffffffffffffff166116ea611b49565b73ffffffffffffffffffffffffffffffffffffffff167f17307eab39ab6107e8899845ad3d59bd9653f200f220920489ca2b5937696c318360405180821515815260200191505060405180910390a35050565b600061174882610e53565b9050919050565b61176061175a611b49565b83611c1f565b6117b5576040517f08c379a0000000000000000000000000000000000000000000000000000000008152600401808060200182810382526031815260200180614c876031913960400191505060405180910390fd5b6117c184848484612a11565b50505050565b60606117d282611b2c565b611827576040517f08c379a000000000000000000000000000000000000000000000000000000000815260040180806020018281038252602f815260200180614c37602f913960400191505060405180910390fd5b6000600860008481526020019081526020016000208054600181600116156101000203166002900480601f0160208091040260200160405190810160405280929190818152602001828054600181600116156101000203166002900480156118d05780601f106118a5576101008083540402835291602001916118d0565b820191906000526020600020905b8154815290600101906020018083116118b357829003601f168201915b5050505050905060006118e1610e8a565b90506000815114156118f7578192505050611a93565b6000825111156119c85780826040516020018083805190602001908083835b602083106119395780518252602082019150602081019050602083039250611916565b6001836020036101000a03801982511681845116808217855250505050505090500182805190602001908083835b6020831061198a5780518252602082019150602081019050602083039250611967565b6001836020036101000a0380198251168184511680821785525050505050509050019250505060405160208183030381529060405292505050611a93565b806119d285612a83565b6040516020018083805190602001908083835b60208310611a0857805182526020820191506020810190506020830392506119e5565b6001836020036101000a03801982511681845116808217855250505050505090500182805190602001908083835b60208310611a595780518252602082019150602081019050602083039250611a36565b6001836020036101000a03801982511681845116808217855250505050505090500192505050604051602081830303815290604052925050505b919050565b6000600560008473ffffffffffffffffffffffffffffffffffffffff1673ffffffffffffffffffffffffffffffffffffffff16815260200190815260200160002060008373ffffffffffffffffffffffffffffffffffffffff1673ffffffffffffffffffffffffffffffffffffffff16815260200190815260200160002060009054906101000a900460ff16905092915050565b6000611b42826002612bca90919063ffffffff16565b9050919050565b600033905090565b816004600083815260200190815260200160002060006101000a81548173ffffffffffffffffffffffffffffffffffffffff021916908373ffffffffffffffffffffffffffffffffffffffff160217905550808273ffffffffffffffffffffffffffffffffffffffff16611bc483610e53565b73ffffffffffffffffffffffffffffffffffffffff167f8c5be1e5ebec7d5bd14f71427d1e84f3dd0314c0f7b2291e5b200ac8c7c3b92560405160405180910390a45050565b6000611c1882600001612be4565b9050919050565b6000611c2a82611b2c565b611c7f576040517f08c379a000000000000000000000000000000000000000000000000000000000815260040180806020018281038252602c815260200180614b09602c913960400191505060405180910390fd5b6000611c8a83610e53565b90508073ffffffffffffffffffffffffffffffffffffffff168473ffffffffffffffffffffffffffffffffffffffff161480611cf957508373ffffffffffffffffffffffffffffffffffffffff16611ce1846105ce565b73ffffffffffffffffffffffffffffffffffffffff16145b80611d0a5750611d098185611a98565b5b91505092915050565b8273ffffffffffffffffffffffffffffffffffffffff16611d3382610e53565b73ffffffffffffffffffffffffffffffffffffffff1614611d9f576040517f08c379a0000000000000000000000000000000000000000000000000000000008152600401808060200182810382526029815260200180614c0e6029913960400191505060405180910390fd5b600073ffffffffffffffffffffffffffffffffffffffff168273ffffffffffffffffffffffffffffffffffffffff161415611e25576040517f08c379a0000000000000000000000000000000000000000000000000000000008152600401808060200182810382526024815260200180614abf6024913960400191505060405180910390fd5b611e30838383612bf5565b611e3b600082611b51565b611e8c81600160008673ffffffffffffffffffffffffffffffffffffffff1673ffffffffffffffffffffffffffffffffffffffff168152602001908152602001600020612bfa90919063ffffffff16565b50611ede81600160008573ffffffffffffffffffffffffffffffffffffffff1673ffffffffffffffffffffffffffffffffffffffff168152602001908152602001600020612c1490919063ffffffff16565b50611ef581836002612c2e9092919063ffffffff16565b50808273ffffffffffffffffffffffffffffffffffffffff168473ffffffffffffffffffffffffffffffffffffffff167fddf252ad1be2c89b69c2b068fc378daa952ba7f163c4a11628f55a4df523b3ef60405160405180910390a4505050565b6000611f658360000183612c63565b60001c905092915050565b600073ffffffffffffffffffffffffffffffffffffffff168273ffffffffffffffffffffffffffffffffffffffff161415612013576040517f08c379a00000000000000000000000000000000000000000000000000000000081526004018080602001828103825260208152602001807f4552433732313a206d696e7420746f20746865207a65726f206164647265737381525060200191505060405180910390fd5b61201c81611b2c565b1561208f576040517f08c379a000000000000000000000000000000000000000000000000000000000815260040180806020018281038252601c8152602001807f4552433732313a20746f6b656e20616c7265616479206d696e7465640000000081525060200191505060405180910390fd5b61209b60008383612bf5565b6120ec81600160008573ffffffffffffffffffffffffffffffffffffffff1673ffffffffffffffffffffffffffffffffffffffff168152602001908152602001600020612c1490919063ffffffff16565b5061210381836002612c2e9092919063ffffffff16565b50808273ffffffffffffffffffffffffffffffffffffffff16600073ffffffffffffffffffffffffffffffffffffffff167fddf252ad1be2c89b69c2b068fc378daa952ba7f163c4a11628f55a4df523b3ef60405160405180910390a45050565b600060c8821480612175575060c982145b15612182576363d94b9390505b600082905061012c831480612198575061012d83145b156121a257600090505b60168161ffff1611156121c15760168161ffff16816121bd57fe5b0690505b60006040518060c001604052806001815260200160028152602001600381526020016004815260200160058152602001600681525090506000604051806101400160405280600781526020016008815260200160098152602001600015158152602001600b8152602001600b8152602001600b8152602001600c8152602001600d8152602001600e8152509050600060039050600486141561226257600490505b6000604051806101000160405280600f8152602001601081526020018781526020018361ffff168152602001601367ffffffffffffffff168152602001600073ffffffffffffffffffffffffffffffffffffffff168152602001601460ff168152602001601560ff168152509050600060405180610160016040528087601b0161ffff1681526020018760160361ffff16815260200187601c0361ffff1681526020018760170161ffff16815260200187601d0161ffff1681526020018760180361ffff16815260200187601e0361ffff1681526020018760190161ffff1681526020018760c80161ffff16815260200187601a0361ffff1681526020018760200361ffff1681525090506000604051806101c00160405280602181526020016022815260200160238152602001602481526020016025815260200160268152602001602781526020016028815260200160298152602001602a8152602001602b8152602001602c8152602001602d8152602001602e81525090506000604051806101c00160405280602f815260200160308152602001603181526020016032815260200160338152602001603481526020016035815260200160368152602001603781526020016038815260200160398152602001603a8152602001603b8152602001603c815250905060006040518060800160405280603d8152602001603e8152602001603f81526020016040815250905060006040518061010001604052808d81526020018a815260200189815260200187815260200186815260200185815260200184815260200183815250905080600b60008e815260200190815260200160002060008201518160000155602082015181600101600082015181600001556020820151816001015560408201518160020155606082015181600301556080820151816004015560a08201518160050155505060408201518160070160008201518160000155602082015181600101556040820151816002015560608201518160030160006101000a81548160ff0219169083151502179055506080820151816004015560a0820151816005015560c0820151816006015560e0820151816007015561010082015181600801556101208201518160090155505060608201518160110160008201518160000155602082015181600101556040820151816002015560608201518160030160006101000a81548161ffff021916908361ffff16021790555060808201518160030160026101000a81548167ffffffffffffffff021916908367ffffffffffffffff16021790555060a082015181600301600a6101000a81548173ffffffffffffffffffffffffffffffffffffffff021916908373ffffffffffffffffffffffffffffffffffffffff16021790555060c082015181600301601e6101000a81548160ff021916908360ff16021790555060e082015181600301601f6101000a81548160ff021916908360ff160217905550505060808201518160150160008201518160000160006101000a81548161ffff021916908361ffff16021790555060208201518160000160026101000a81548161ffff021916908361ffff16021790555060408201518160000160046101000a81548161ffff021916908361ffff16021790555060608201518160000160066101000a81548161ffff021916908361ffff16021790555060808201518160000160086101000a81548161ffff021916908361ffff16021790555060a082015181600001600a6101000a81548161ffff021916908361ffff16021790555060c082015181600001600c6101000a81548161ffff021916908361ffff16021790555060e082015181600001600e6101000a81548161ffff021916908361ffff1602179055506101008201518160000160106101000a81548161ffff021916908361ffff1602179055506101208201518160000160126101000a81548161ffff021916908361ffff1602179055506101408201518160000160146101000a81548161ffff021916908361ffff160217905550505060a082015181601601600082015181600001556020820151816001015560408201518160020155606082015181600301556080820151816004015560a0820151816005015560c0820151816006015560e082015181600701556101008201518160080155610120820151816009015561014082015181600a015561016082015181600b015561018082015181600c01556101a082015181600d0155505060c082015181602401600082015181600001556020820151816001015560408201518160020155606082015181600301556080820151816004015560a0820151816005015560c0820151816006015560e082015181600701556101008201518160080155610120820151816009015561014082015181600a015561016082015181600b015561018082015181600c01556101a082015181600d0155505060e082015181603201600082015181600001556020820151816001015560408201518160020155606082015181600301555050905050505050505050505050505050565b6000806000806129c48660000186612ce6565b915091508160001c8160001c9350935050509250929050565b60006129f0846000018460001b84612d7f565b60001c90509392505050565b6000612a0a82600001612e75565b9050919050565b612a1c848484611d13565b612a2884848484612e86565b612a7d576040517f08c379a0000000000000000000000000000000000000000000000000000000008152600401808060200182810382526032815260200180614a8d6032913960400191505060405180910390fd5b50505050565b60606000821415612acb576040518060400160405280600181526020017f30000000000000000000000000000000000000000000000000000000000000008152509050612bc5565b600082905060005b60008214612af5578080600101915050600a8281612aed57fe5b049150612ad3565b60008167ffffffffffffffff81118015612b0e57600080fd5b506040519080825280601f01601f191660200182016040528015612b415781602001600182028036833780820191505090505b50905060006001830390508593505b60008414612bbd57600a8481612b6257fe5b0660300160f81b82828060019003935081518110612b7c57fe5b60200101907effffffffffffffffffffffffffffffffffffffffffffffffffffffffffffff1916908160001a905350600a8481612bb557fe5b049350612b50565b819450505050505b919050565b6000612bdc836000018360001b61309f565b905092915050565b600081600001805490509050919050565b505050565b6000612c0c836000018360001b6130c2565b905092915050565b6000612c26836000018360001b6131aa565b905092915050565b6000612c5a846000018460001b8473ffffffffffffffffffffffffffffffffffffffff1660001b61321a565b90509392505050565b600081836000018054905011612cc4576040517f08c379a0000000000000000000000000000000000000000000000000000000008152600401808060200182810382526022815260200180614a6b6022913960400191505060405180910390fd5b826000018281548110612cd357fe5b9060005260206000200154905092915050565b60008082846000018054905011612d48576040517f08c379a0000000000000000000000000000000000000000000000000000000008152600401808060200182810382526022815260200180614bc06022913960400191505060405180910390fd5b6000846000018481548110612d5957fe5b906000526020600020906002020190508060000154816001015492509250509250929050565b60008084600101600085815260200190815260200160002054905060008114158390612e46576040517f08c379a00000000000000000000000000000000000000000000000000000000081526004018080602001828103825283818151815260200191508051906020019080838360005b83811015612e0b578082015181840152602081019050612df0565b50505050905090810190601f168015612e385780820380516001836020036101000a031916815260200191505b509250505060405180910390fd5b50846000016001820381548110612e5957fe5b9060005260206000209060020201600101549150509392505050565b600081600001805490509050919050565b6000612ea78473ffffffffffffffffffffffffffffffffffffffff166132f6565b612eb45760019050613097565b600061301e63150b7a0260e01b612ec9611b49565b888787604051602401808573ffffffffffffffffffffffffffffffffffffffff1681526020018473ffffffffffffffffffffffffffffffffffffffff16815260200183815260200180602001828103825283818151815260200191508051906020019080838360005b83811015612f4d578082015181840152602081019050612f32565b50505050905090810190601f168015612f7a5780820380516001836020036101000a031916815260200191505b5095505050505050604051602081830303815290604052907bffffffffffffffffffffffffffffffffffffffffffffffffffffffff19166020820180517bffffffffffffffffffffffffffffffffffffffffffffffffffffffff8381831617835250505050604051806060016040528060328152602001614a8d603291398773ffffffffffffffffffffffffffffffffffffffff166133099092919063ffffffff16565b9050600081806020019051602081101561303757600080fd5b8101908080519060200190929190505050905063150b7a0260e01b7bffffffffffffffffffffffffffffffffffffffffffffffffffffffff1916817bffffffffffffffffffffffffffffffffffffffffffffffffffffffff191614925050505b949350505050565b600080836001016000848152602001908152602001600020541415905092915050565b6000808360010160008481526020019081526020016000205490506000811461319e576000600182039050600060018660000180549050039050600086600001828154811061310d57fe5b906000526020600020015490508087600001848154811061312a57fe5b906000526020600020018190555060018301876001016000838152602001908152602001600020819055508660000180548061316257fe5b600190038181906000526020600020016000905590558660010160008781526020019081526020016000206000905560019450505050506131a4565b60009150505b92915050565b60006131b68383613321565b61320f578260000182908060018154018082558091505060019003906000526020600020016000909190919091505582600001805490508360010160008481526020019081526020016000208190555060019050613214565b600090505b92915050565b60008084600101600085815260200190815260200160002054905060008114156132c1578460000160405180604001604052808681526020018581525090806001815401808255809150506001900390600052602060002090600202016000909190919091506000820151816000015560208201518160010155505084600001805490508560010160008681526020019081526020016000208190555060019150506132ef565b828560000160018303815481106132d457fe5b90600052602060002090600202016001018190555060009150505b9392505050565b600080823b905060008111915050919050565b60606133188484600085613344565b90509392505050565b600080836001016000848152602001908152602001600020541415905092915050565b60608247101561339f576040517f08c379a0000000000000000000000000000000000000000000000000000000008152600401808060200182810382526026815260200180614ae36026913960400191505060405180910390fd5b6133a8856132f6565b61341a576040517f08c379a000000000000000000000000000000000000000000000000000000000815260040180806020018281038252601d8152602001807f416464726573733a2063616c6c20746f206e6f6e2d636f6e747261637400000081525060200191505060405180910390fd5b6000808673ffffffffffffffffffffffffffffffffffffffff1685876040518082805190602001908083835b602083106134695780518252602082019150602081019050602083039250613446565b6001836020036101000a03801982511681845116808217855250505050505090500191505060006040518083038185875af1925050503d80600081146134cb576040519150601f19603f3d011682016040523d82523d6000602084013e6134d0565b606091505b50915091506134e08282866134ec565b92505050949350505050565b606083156134fc578290506135b1565b60008351111561350f5782518084602001fd5b816040517f08c379a00000000000000000000000000000000000000000000000000000000081526004018080602001828103825283818151815260200191508051906020019080838360005b8381101561357657808201518184015260208101905061355b565b50505050905090810190601f1680156135a35780820380516001836020036101000a031916815260200191505b509250505060405180910390fd5b9392505050565b604051806101000160405280600081526020016135d3613627565b81526020016135e061365d565b81526020016135ed6136b2565b81526020016135fa613721565b81526020016136076137a7565b8152602001613614613816565b8152602001613621613885565b81525090565b6040518060c001604052806000815260200160008152602001600081526020016000815260200160008152602001600081525090565b6040518061014001604052806000815260200160008152602001600081526020016000151581526020016000815260200160008152602001600081526020016000815260200160008152602001600081525090565b604051806101000160405280600081526020016000815260200160008152602001600061ffff168152602001600067ffffffffffffffff168152602001600073ffffffffffffffffffffffffffffffffffffffff168152602001600060ff168152602001600060ff1681525090565b604051806101600160405280600061ffff168152602001600061ffff168152602001600061ffff168152602001600061ffff168152602001600061ffff168152602001600061ffff168152602001600061ffff168152602001600061ffff168152602001600061ffff168152602001600061ffff168152602001600061ffff1681525090565b604051806101c0016040528060008152602001600081526020016000815260200160008152602001600081526020016000815260200160008152602001600081526020016000815260200160008152602001600081526020016000815260200160008152602001600081525090565b604051806101c0016040528060008152602001600081526020016000815260200160008152602001600081526020016000815260200160008152602001600081526020016000815260200160008152602001600081526020016000815260200160008152602001600081525090565b6040518060800160405280600081526020016000815260200160008152602001600081525090565b60006138c06138bb846148ca565b614899565b9050828152602081018484840111156138d857600080fd5b6138e38482856149b9565b509392505050565b6000813590506138fa81614a0e565b92915050565b60008135905061390f81614a25565b92915050565b60008135905061392481614a3c565b92915050565b600082601f83011261393b57600080fd5b813561394b8482602086016138ad565b91505092915050565b60008135905061396381614a53565b92915050565b60006020828403121561397b57600080fd5b6000613989848285016138eb565b91505092915050565b600080604083850312156139a557600080fd5b60006139b3858286016138eb565b92505060206139c4858286016138eb565b9150509250929050565b6000806000606084860312156139e357600080fd5b60006139f1868287016138eb565b9350506020613a02868287016138eb565b9250506040613a1386828701613954565b9150509250925092565b60008060008060808587031215613a3357600080fd5b6000613a41878288016138eb565b9450506020613a52878288016138eb565b9350506040613a6387828801613954565b925050606085013567ffffffffffffffff811115613a8057600080fd5b613a8c8782880161392a565b91505092959194509250565b60008060408385031215613aab57600080fd5b6000613ab9858286016138eb565b9250506020613aca85828601613900565b9150509250929050565b60008060408385031215613ae757600080fd5b6000613af5858286016138eb565b9250506020613b0685828601613954565b9150509250929050565b600060208284031215613b2257600080fd5b6000613b3084828501613915565b91505092915050565b600060208284031215613b4b57600080fd5b6000613b5984828501613954565b91505092915050565b613b6b81614916565b82525050565b613b7a81614916565b82525050565b613b8981614928565b82525050565b613b9881614928565b82525050565b6000613ba9826148fa565b613bb38185614905565b9350613bc38185602086016149c8565b613bcc816149fd565b840191505092915050565b61088082016000820151613bee600085018261474b565b506020820151613c016020850182614646565b506040820151613c1460e0850182613c7e565b506060820151613c28610220850182614340565b506080820151613c3c610320850182614484565b5060a0820151613c50610480850182613e16565b5060c0820151613c64610640850182614100565b5060e0820151613c78610800850182614056565b50505050565b61014082016000820151613c95600085018261474b565b506020820151613ca8602085018261474b565b506040820151613cbb604085018261474b565b506060820151613cce6060850182613b80565b506080820151613ce1608085018261474b565b5060a0820151613cf460a085018261474b565b5060c0820151613d0760c085018261474b565b5060e0820151613d1a60e085018261474b565b50610100820151613d2f61010085018261474b565b50610120820151613d4461012085018261474b565b50505050565b61014082016000820151613d61600085018261474b565b506020820151613d74602085018261474b565b506040820151613d87604085018261474b565b506060820151613d9a6060850182613b80565b506080820151613dad608085018261474b565b5060a0820151613dc060a085018261474b565b5060c0820151613dd360c085018261474b565b5060e0820151613de660e085018261474b565b50610100820151613dfb61010085018261474b565b50610120820151613e1061012085018261474b565b50505050565b6101c082016000820151613e2d600085018261474b565b506020820151613e40602085018261474b565b506040820151613e53604085018261474b565b506060820151613e66606085018261474b565b506080820151613e79608085018261474b565b5060a0820151613e8c60a085018261474b565b5060c0820151613e9f60c085018261474b565b5060e0820151613eb260e085018261474b565b50610100820151613ec761010085018261474b565b50610120820151613edc61012085018261474b565b50610140820151613ef161014085018261474b565b50610160820151613f0661016085018261474b565b50610180820151613f1b61018085018261474b565b506101a0820151613f306101a085018261474b565b50505050565b6101c082016000820151613f4d600085018261474b565b506020820151613f60602085018261474b565b506040820151613f73604085018261474b565b506060820151613f86606085018261474b565b506080820151613f99608085018261474b565b5060a0820151613fac60a085018261474b565b5060c0820151613fbf60c085018261474b565b5060e0820151613fd260e085018261474b565b50610100820151613fe761010085018261474b565b50610120820151613ffc61012085018261474b565b5061014082015161401161014085018261474b565b5061016082015161402661016085018261474b565b5061018082015161403b61018085018261474b565b506101a08201516140506101a085018261474b565b50505050565b60808201600082015161406c600085018261474b565b50602082015161407f602085018261474b565b506040820151614092604085018261474b565b5060608201516140a5606085018261474b565b50505050565b6080820160008201516140c1600085018261474b565b5060208201516140d4602085018261474b565b5060408201516140e7604085018261474b565b5060608201516140fa606085018261474b565b50505050565b6101c082016000820151614117600085018261474b565b50602082015161412a602085018261474b565b50604082015161413d604085018261474b565b506060820151614150606085018261474b565b506080820151614163608085018261474b565b5060a082015161417660a085018261474b565b5060c082015161418960c085018261474b565b5060e082015161419c60e085018261474b565b506101008201516141b161010085018261474b565b506101208201516141c661012085018261474b565b506101408201516141db61014085018261474b565b506101608201516141f061016085018261474b565b5061018082015161420561018085018261474b565b506101a082015161421a6101a085018261474b565b50505050565b6101c082016000820151614237600085018261474b565b50602082015161424a602085018261474b565b50604082015161425d604085018261474b565b506060820151614270606085018261474b565b506080820151614283608085018261474b565b5060a082015161429660a085018261474b565b5060c08201516142a960c085018261474b565b5060e08201516142bc60e085018261474b565b506101008201516142d161010085018261474b565b506101208201516142e661012085018261474b565b506101408201516142fb61014085018261474b565b5061016082015161431061016085018261474b565b5061018082015161432561018085018261474b565b506101a082015161433a6101a085018261474b565b50505050565b61010082016000820151614357600085018261474b565b50602082015161436a602085018261474b565b50604082015161437d604085018261474b565b506060820151614390606085018261473c565b5060808201516143a36080850182614769565b5060a08201516143b660a0850182613b62565b5060c08201516143c960c0850182614778565b5060e08201516143dc60e0850182614778565b50505050565b610100820160008201516143f9600085018261474b565b50602082015161440c602085018261474b565b50604082015161441f604085018261474b565b506060820151614432606085018261473c565b5060808201516144456080850182614769565b5060a082015161445860a0850182613b62565b5060c082015161446b60c0850182614778565b5060e082015161447e60e0850182614778565b50505050565b6101608201600082015161449b600085018261473c565b5060208201516144ae602085018261473c565b5060408201516144c1604085018261473c565b5060608201516144d4606085018261473c565b5060808201516144e7608085018261473c565b5060a08201516144fa60a085018261473c565b5060c082015161450d60c085018261473c565b5060e082015161452060e085018261473c565b5061010082015161453561010085018261473c565b5061012082015161454a61012085018261473c565b5061014082015161455f61014085018261473c565b50505050565b6101608201600082015161457c600085018261473c565b50602082015161458f602085018261473c565b5060408201516145a2604085018261473c565b5060608201516145b5606085018261473c565b5060808201516145c8608085018261473c565b5060a08201516145db60a085018261473c565b5060c08201516145ee60c085018261473c565b5060e082015161460160e085018261473c565b5061010082015161461661010085018261473c565b5061012082015161462b61012085018261473c565b5061014082015161464061014085018261473c565b50505050565b60c08201600082015161465c600085018261474b565b50602082015161466f602085018261474b565b506040820151614682604085018261474b565b506060820151614695606085018261474b565b5060808201516146a8608085018261474b565b5060a08201516146bb60a085018261474b565b50505050565b60c0820160008201516146d7600085018261474b565b5060208201516146ea602085018261474b565b5060408201516146fd604085018261474b565b506060820151614710606085018261474b565b506080820151614723608085018261474b565b5060a082015161473660a085018261474b565b50505050565b61474581614960565b82525050565b6147548161498e565b82525050565b6147638161498e565b82525050565b61477281614998565b82525050565b614781816149ac565b82525050565b600060208201905061479c6000830184613b71565b92915050565b60006020820190506147b76000830184613b8f565b92915050565b600060208201905081810360008301526147d78184613b9e565b905092915050565b6000610880820190506147f56000830184613bd7565b92915050565b6000602082019050614810600083018461475a565b92915050565b60006108808201905061482c600083018b61475a565b614839602083018a6146c1565b61484660e0830189613d4a565b6148546102208301886143e2565b614862610320830187614565565b614870610480830186613f36565b61487e610640830185614220565b61488c6108008301846140ab565b9998505050505050505050565b6000604051905081810181811067ffffffffffffffff821117156148c0576148bf6149fb565b5b8060405250919050565b600067ffffffffffffffff8211156148e5576148e46149fb565b5b601f19601f8301169050602081019050919050565b600081519050919050565b600082825260208201905092915050565b60006149218261496e565b9050919050565b60008115159050919050565b60007fffffffff0000000000000000000000000000000000000000000000000000000082169050919050565b600061ffff82169050919050565b600073ffffffffffffffffffffffffffffffffffffffff82169050919050565b6000819050919050565b600067ffffffffffffffff82169050919050565b600060ff82169050919050565b82818337600083830152505050565b60005b838110156149e65780820151818401526020810190506149cb565b838111156149f5576000848401525b50505050565bfe5b6000601f19601f8301169050919050565b614a1781614916565b8114614a2257600080fd5b50565b614a2e81614928565b8114614a3957600080fd5b50565b614a4581614934565b8114614a5057600080fd5b50565b614a5c8161498e565b8114614a6757600080fd5b5056fe456e756d657261626c655365743a20696e646578206f7574206f6620626f756e64734552433732313a207472616e7366657220746f206e6f6e20455243373231526563656976657220696d706c656d656e7465724552433732313a207472616e7366657220746f20746865207a65726f2061646472657373416464726573733a20696e73756666696369656e742062616c616e636520666f722063616c6c4552433732313a206f70657261746f7220717565727920666f72206e6f6e6578697374656e7420746f6b656e4552433732313a20617070726f76652063616c6c6572206973206e6f74206f776e6572206e6f7220617070726f76656420666f7220616c6c4552433732313a2062616c616e636520717565727920666f7220746865207a65726f20616464726573734552433732313a206f776e657220717565727920666f72206e6f6e6578697374656e7420746f6b656e456e756d657261626c654d61703a20696e646578206f7574206f6620626f756e64734552433732313a20617070726f76656420717565727920666f72206e6f6e6578697374656e7420746f6b656e4552433732313a207472616e73666572206f6620746f6b656e2074686174206973206e6f74206f776e4552433732314d657461646174613a2055524920717565727920666f72206e6f6e6578697374656e7420746f6b656e4552433732313a20617070726f76616c20746f2063757272656e74206f776e65724552433732313a207472616e736665722063616c6c6572206973206e6f74206f776e6572206e6f7220617070726f766564a2646970667358221220cced797437459095798a0f04cc832342b7354ba9658506c56cbb3012d8ddb38b64736f6c63430007060033",
  "linkReferences": {},
  "deployedLinkReferences": {}
}