{
  "_format": "hh-sol-artifact-1",
  "contractName": "Profiles",
  "sourceName": "contracts/Profiles.sol",
  "abi": [
    {
      "anonymous": false,
      "inputs": [
        {
          "indexed": false,
          "internalType": "uint256",
          "name": "profileId",
          "type": "uint256"
        },
        {
          "indexed": false,
          "internalType": "address",
          "name": "owner",
          "type": "address"
        },
        {
          "indexed": false,
          "internalType": "string",
          "name": "name",
          "type": "string"
        },
        {
          "indexed": false,
          "internalType": "uint64",
          "name": "created",
          "type": "uint64"
        },
        {
          "indexed": false,
          "internalType": "uint8",
          "name": "picId",
          "type": "uint8"
        }
      ],
      "name": "ProfileCreated",
      "type": "event"
    },
    {
      "anonymous": false,
      "inputs": [
        {
          "indexed": false,
          "internalType": "uint256",
          "name": "profileId",
          "type": "uint256"
        },
        {
          "indexed": false,
          "internalType": "address",
          "name": "owner",
          "type": "address"
        },
        {
          "indexed": false,
          "internalType": "string",
          "name": "name",
          "type": "string"
        },
        {
          "indexed": false,
          "internalType": "uint64",
          "name": "created",
          "type": "uint64"
        },
        {
          "indexed": false,
          "internalType": "uint8",
          "name": "picId",
          "type": "uint8"
        },
        {
          "indexed": false,
          "internalType": "uint256",
          "name": "heroId",
          "type": "uint256"
        }
      ],
      "name": "ProfileUpdated",
      "type": "event"
    },
    {
      "anonymous": false,
      "inputs": [
        {
          "indexed": true,
          "internalType": "bytes32",
          "name": "role",
          "type": "bytes32"
        },
        {
          "indexed": true,
          "internalType": "bytes32",
          "name": "previousAdminRole",
          "type": "bytes32"
        },
        {
          "indexed": true,
          "internalType": "bytes32",
          "name": "newAdminRole",
          "type": "bytes32"
        }
      ],
      "name": "RoleAdminChanged",
      "type": "event"
    },
    {
      "anonymous": false,
      "inputs": [
        {
          "indexed": true,
          "internalType": "bytes32",
          "name": "role",
          "type": "bytes32"
        },
        {
          "indexed": true,
          "internalType": "address",
          "name": "account",
          "type": "address"
        },
        {
          "indexed": true,
          "internalType": "address",
          "name": "sender",
          "type": "address"
        }
      ],
      "name": "RoleGranted",
      "type": "event"
    },
    {
      "anonymous": false,
      "inputs": [
        {
          "indexed": true,
          "internalType": "bytes32",
          "name": "role",
          "type": "bytes32"
        },
        {
          "indexed": true,
          "internalType": "address",
          "name": "account",
          "type": "address"
        },
        {
          "indexed": true,
          "internalType": "address",
          "name": "sender",
          "type": "address"
        }
      ],
      "name": "RoleRevoked",
      "type": "event"
    },
    {
      "inputs": [],
      "name": "DEFAULT_ADMIN_ROLE",
      "outputs": [
        {
          "internalType": "bytes32",
          "name": "",
          "type": "bytes32"
        }
      ],
      "stateMutability": "view",
      "type": "function"
    },
    {
      "inputs": [],
      "name": "MODERATOR_ROLE",
      "outputs": [
        {
          "internalType": "bytes32",
          "name": "",
          "type": "bytes32"
        }
      ],
      "stateMutability": "view",
      "type": "function"
    },
    {
      "inputs": [],
      "name": "POINTS_ROLE",
      "outputs": [
        {
          "internalType": "bytes32",
          "name": "",
          "type": "bytes32"
        }
      ],
      "stateMutability": "view",
      "type": "function"
    },
    {
      "inputs": [
        {
          "internalType": "address",
          "name": "_address",
          "type": "address"
        },
        {
          "internalType": "uint256",
          "name": "_points",
          "type": "uint256"
        }
      ],
      "name": "addPoints",
      "outputs": [
        {
          "internalType": "bool",
          "name": "success",
          "type": "bool"
        }
      ],
      "stateMutability": "nonpayable",
      "type": "function"
    },
    {
      "inputs": [
        {
          "internalType": "address",
          "name": "",
          "type": "address"
        }
      ],
      "name": "addressToIndex",
      "outputs": [
        {
          "internalType": "uint256",
          "name": "",
          "type": "uint256"
        }
      ],
      "stateMutability": "view",
      "type": "function"
    },
    {
      "inputs": [
        {
          "internalType": "uint256",
          "name": "",
          "type": "uint256"
        }
      ],
      "name": "addresses",
      "outputs": [
        {
          "internalType": "address",
          "name": "",
          "type": "address"
        }
      ],
      "stateMutability": "view",
      "type": "function"
    },
    {
      "inputs": [
        {
          "internalType": "uint256",
          "name": "profileId",
          "type": "uint256"
        },
        {
          "internalType": "uint256",
          "name": "_heroId",
          "type": "uint256"
        }
      ],
      "name": "changeHeroPic",
      "outputs": [
        {
          "internalType": "bool",
          "name": "success",
          "type": "bool"
        }
      ],
      "stateMutability": "nonpayable",
      "type": "function"
    },
    {
      "inputs": [
        {
          "internalType": "uint256",
          "name": "profileId",
          "type": "uint256"
        },
        {
          "internalType": "string",
          "name": "_name",
          "type": "string"
        }
      ],
      "name": "changeName",
      "outputs": [
        {
          "internalType": "bool",
          "name": "success",
          "type": "bool"
        }
      ],
      "stateMutability": "nonpayable",
      "type": "function"
    },
    {
      "inputs": [
        {
          "internalType": "uint256",
          "name": "profileId",
          "type": "uint256"
        },
        {
          "internalType": "uint8",
          "name": "_picId",
          "type": "uint8"
        }
      ],
      "name": "changePic",
      "outputs": [
        {
          "internalType": "bool",
          "name": "success",
          "type": "bool"
        }
      ],
      "stateMutability": "nonpayable",
      "type": "function"
    },
    {
      "inputs": [
        {
          "internalType": "string",
          "name": "_name",
          "type": "string"
        },
        {
          "internalType": "uint8",
          "name": "_picId",
          "type": "uint8"
        }
      ],
      "name": "createProfile",
      "outputs": [
        {
          "internalType": "bool",
          "name": "success",
          "type": "bool"
        }
      ],
      "stateMutability": "nonpayable",
      "type": "function"
    },
    {
      "inputs": [
        {
          "internalType": "string",
          "name": "name",
          "type": "string"
        }
      ],
      "name": "getAddressByName",
      "outputs": [
        {
          "internalType": "address",
          "name": "profileAddress",
          "type": "address"
        }
      ],
      "stateMutability": "view",
      "type": "function"
    },
    {
      "inputs": [
        {
          "internalType": "address",
          "name": "profileAddress",
          "type": "address"
        }
      ],
      "name": "getProfileByAddress",
      "outputs": [
        {
          "internalType": "uint256",
          "name": "_id",
          "type": "uint256"
        },
        {
          "internalType": "address",
          "name": "_owner",
          "type": "address"
        },
        {
          "internalType": "string",
          "name": "_name",
          "type": "string"
        },
        {
          "internalType": "uint64",
          "name": "_created",
          "type": "uint64"
        },
        {
          "internalType": "uint8",
          "name": "_picId",
          "type": "uint8"
        },
        {
          "internalType": "uint256",
          "name": "_heroId",
          "type": "uint256"
        },
        {
          "internalType": "uint256",
          "name": "_points",
          "type": "uint256"
        }
      ],
      "stateMutability": "view",
      "type": "function"
    },
    {
      "inputs": [
        {
          "internalType": "string",
          "name": "name",
          "type": "string"
        }
      ],
      "name": "getProfileByName",
      "outputs": [
        {
          "internalType": "uint256",
          "name": "_id",
          "type": "uint256"
        },
        {
          "internalType": "address",
          "name": "_owner",
          "type": "address"
        },
        {
          "internalType": "string",
          "name": "_name",
          "type": "string"
        },
        {
          "internalType": "uint64",
          "name": "_created",
          "type": "uint64"
        },
        {
          "internalType": "uint8",
          "name": "_picId",
          "type": "uint8"
        },
        {
          "internalType": "uint256",
          "name": "_heroId",
          "type": "uint256"
        },
        {
          "internalType": "uint256",
          "name": "_points",
          "type": "uint256"
        }
      ],
      "stateMutability": "view",
      "type": "function"
    },
    {
      "inputs": [],
      "name": "getProfileCount",
      "outputs": [
        {
          "internalType": "uint256",
          "name": "count",
          "type": "uint256"
        }
      ],
      "stateMutability": "view",
      "type": "function"
    },
    {
      "inputs": [
        {
          "internalType": "bytes32",
          "name": "role",
          "type": "bytes32"
        }
      ],
      "name": "getRoleAdmin",
      "outputs": [
        {
          "internalType": "bytes32",
          "name": "",
          "type": "bytes32"
        }
      ],
      "stateMutability": "view",
      "type": "function"
    },
    {
      "inputs": [
        {
          "internalType": "bytes32",
          "name": "role",
          "type": "bytes32"
        },
        {
          "internalType": "uint256",
          "name": "index",
          "type": "uint256"
        }
      ],
      "name": "getRoleMember",
      "outputs": [
        {
          "internalType": "address",
          "name": "",
          "type": "address"
        }
      ],
      "stateMutability": "view",
      "type": "function"
    },
    {
      "inputs": [
        {
          "internalType": "bytes32",
          "name": "role",
          "type": "bytes32"
        }
      ],
      "name": "getRoleMemberCount",
      "outputs": [
        {
          "internalType": "uint256",
          "name": "",
          "type": "uint256"
        }
      ],
      "stateMutability": "view",
      "type": "function"
    },
    {
      "inputs": [
        {
          "internalType": "bytes32",
          "name": "role",
          "type": "bytes32"
        },
        {
          "internalType": "address",
          "name": "account",
          "type": "address"
        }
      ],
      "name": "grantRole",
      "outputs": [],
      "stateMutability": "nonpayable",
      "type": "function"
    },
    {
      "inputs": [
        {
          "internalType": "bytes32",
          "name": "role",
          "type": "bytes32"
        },
        {
          "internalType": "address",
          "name": "account",
          "type": "address"
        }
      ],
      "name": "hasRole",
      "outputs": [
        {
          "internalType": "bool",
          "name": "",
          "type": "bool"
        }
      ],
      "stateMutability": "view",
      "type": "function"
    },
    {
      "inputs": [],
      "name": "heroesNftContract",
      "outputs": [
        {
          "internalType": "contract IHero",
          "name": "",
          "type": "address"
        }
      ],
      "stateMutability": "view",
      "type": "function"
    },
    {
      "inputs": [],
      "name": "initialize",
      "outputs": [],
      "stateMutability": "nonpayable",
      "type": "function"
    },
    {
      "inputs": [
        {
          "internalType": "string",
          "name": "name",
          "type": "string"
        }
      ],
      "name": "nameTaken",
      "outputs": [
        {
          "internalType": "bool",
          "name": "taken",
          "type": "bool"
        }
      ],
      "stateMutability": "view",
      "type": "function"
    },
    {
      "inputs": [
        {
          "internalType": "string",
          "name": "",
          "type": "string"
        }
      ],
      "name": "nameToIndex",
      "outputs": [
        {
          "internalType": "uint256",
          "name": "",
          "type": "uint256"
        }
      ],
      "stateMutability": "view",
      "type": "function"
    },
    {
      "inputs": [
        {
          "internalType": "uint256",
          "name": "",
          "type": "uint256"
        }
      ],
      "name": "points",
      "outputs": [
        {
          "internalType": "uint256",
          "name": "",
          "type": "uint256"
        }
      ],
      "stateMutability": "view",
      "type": "function"
    },
    {
      "inputs": [
        {
          "internalType": "address",
          "name": "profileAddress",
          "type": "address"
        }
      ],
      "name": "profileExists",
      "outputs": [
        {
          "internalType": "bool",
          "name": "exists",
          "type": "bool"
        }
      ],
      "stateMutability": "view",
      "type": "function"
    },
    {
      "inputs": [
        {
          "internalType": "uint256",
          "name": "",
          "type": "uint256"
        }
      ],
      "name": "profiles",
      "outputs": [
        {
          "internalType": "uint256",
          "name": "id",
          "type": "uint256"
        },
        {
          "internalType": "address",
          "name": "owner",
          "type": "address"
        },
        {
          "internalType": "string",
          "name": "name",
          "type": "string"
        },
        {
          "internalType": "uint64",
          "name": "created",
          "type": "uint64"
        },
        {
          "internalType": "uint8",
          "name": "picId",
          "type": "uint8"
        },
        {
          "internalType": "uint256",
          "name": "heroId",
          "type": "uint256"
        },
        {
          "internalType": "bool",
          "name": "set",
          "type": "bool"
        }
      ],
      "stateMutability": "view",
      "type": "function"
    },
    {
      "inputs": [
        {
          "internalType": "bytes32",
          "name": "role",
          "type": "bytes32"
        },
        {
          "internalType": "address",
          "name": "account",
          "type": "address"
        }
      ],
      "name": "renounceRole",
      "outputs": [],
      "stateMutability": "nonpayable",
      "type": "function"
    },
    {
      "inputs": [
        {
          "internalType": "bytes32",
          "name": "role",
          "type": "bytes32"
        },
        {
          "internalType": "address",
          "name": "account",
          "type": "address"
        }
      ],
      "name": "revokeRole",
      "outputs": [],
      "stateMutability": "nonpayable",
      "type": "function"
    },
    {
      "inputs": [
        {
          "internalType": "address",
          "name": "_address",
          "type": "address"
        }
      ],
      "name": "setHeroes",
      "outputs": [
        {
          "internalType": "bool",
          "name": "success",
          "type": "bool"
        }
      ],
      "stateMutability": "nonpayable",
      "type": "function"
    },
    {
      "inputs": [
        {
          "internalType": "uint8",
          "name": "_min",
          "type": "uint8"
        },
        {
          "internalType": "uint8",
          "name": "_max",
          "type": "uint8"
        }
      ],
      "name": "setNameLengths",
      "outputs": [
        {
          "internalType": "bool",
          "name": "success",
          "type": "bool"
        }
      ],
      "stateMutability": "nonpayable",
      "type": "function"
    },
    {
      "inputs": [
        {
          "internalType": "uint8",
          "name": "_max",
          "type": "uint8"
        }
      ],
      "name": "setPicMax",
      "outputs": [
        {
          "internalType": "bool",
          "name": "success",
          "type": "bool"
        }
      ],
      "stateMutability": "nonpayable",
      "type": "function"
    }
  ],
  "bytecode": "0x608060405234801561001057600080fd5b506141cf806100206000396000f3fe608060405234801561001057600080fd5b50600436106101e55760003560e01c806391d148541161010f578063c36fe3d6116100a2578063d547741f11610071578063d547741f14610e8b578063edf26d9b14610ed9578063f667e0aa14610f31578063f6ebd47e14610f89576101e5565b8063c36fe3d614610c5a578063c39cbef114610d50578063ca15c87314610e2b578063cb73580714610e6d576101e5565b8063a217fddf116100de578063a217fddf14610a5b578063b5708ccc14610a79578063bd3eaa6f14610aad578063c148162614610b8b576101e5565b806391d14854146107ff57806391fc437e146108635780639799b4e7146109345780639a65ddec14610976576101e5565b8063393bca2d11610187578063797669c911610156578063797669c9146105f45780637d6df699146106125780638129fc1c146107935780639010d07c1461079d576101e5565b8063393bca2d146103e15780633f5df246146104355780634cd6959c14610486578063507cd30f14610590576101e5565b80632f2ff15d116101c35780632f2ff15d146102cd5780632fa32eb91461031b57806336568abe146103755780633697611a146103c3576101e5565b806305cfa06f146101ea57806321319c4914610244578063248a9ca31461028b575b600080fd5b61022c6004803603602081101561020057600080fd5b81019080803573ffffffffffffffffffffffffffffffffffffffff169060200190929190505050610fd7565b60405180821515815260200191505060405180910390f35b6102736004803603602081101561025a57600080fd5b81019080803560ff169060200190929190505050611048565b60405180821515815260200191505060405180910390f35b6102b7600480360360208110156102a157600080fd5b810190808035906020019092919050505061110a565b6040518082815260200191505060405180910390f35b610319600480360360408110156102e357600080fd5b8101908080359060200190929190803573ffffffffffffffffffffffffffffffffffffffff16906020019092919050505061112a565b005b61035d6004803603602081101561033157600080fd5b81019080803573ffffffffffffffffffffffffffffffffffffffff1690602001909291905050506111b4565b60405180821515815260200191505060405180910390f35b6103c16004803603604081101561038b57600080fd5b8101908080359060200190929190803573ffffffffffffffffffffffffffffffffffffffff1690602001909291905050506113a8565b005b6103cb611441565b6040518082815260200191505060405180910390f35b61041d600480360360408110156103f757600080fd5b81019080803560ff169060200190929190803560ff16906020019092919050505061144e565b60405180821515815260200191505060405180910390f35b61046e6004803603604081101561044b57600080fd5b8101908080359060200190929190803560ff16906020019092919050505061152c565b60405180821515815260200191505060405180910390f35b6104c86004803603602081101561049c57600080fd5b81019080803573ffffffffffffffffffffffffffffffffffffffff169060200190929190505050611898565b604051808881526020018773ffffffffffffffffffffffffffffffffffffffff168152602001806020018667ffffffffffffffff1681526020018560ff168152602001848152602001838152602001828103825287818151815260200191508051906020019080838360005b8381101561054f578082015181840152602081019050610534565b50505050905090810190601f16801561057c5780820380516001836020036101000a031916815260200191505b509850505050505050505060405180910390f35b6105dc600480360360408110156105a657600080fd5b81019080803573ffffffffffffffffffffffffffffffffffffffff16906020019092919080359060200190929190505050611b45565b60405180821515815260200191505060405180910390f35b6105fc611e65565b6040518082815260200191505060405180910390f35b6106cb6004803603602081101561062857600080fd5b810190808035906020019064010000000081111561064557600080fd5b82018360208201111561065757600080fd5b8035906020019184600183028401116401000000008311171561067957600080fd5b91908080601f016020809104026020016040519081016040528093929190818152602001838380828437600081840152601f19601f820116905080830192505050505050509192919290505050611e89565b604051808881526020018773ffffffffffffffffffffffffffffffffffffffff168152602001806020018667ffffffffffffffff1681526020018560ff168152602001848152602001838152602001828103825287818151815260200191508051906020019080838360005b83811015610752578082015181840152602081019050610737565b50505050905090810190601f16801561077f5780820380516001836020036101000a031916815260200191505b509850505050505050505060405180910390f35b61079b612160565b005b6107d3600480360360408110156107b357600080fd5b81019080803590602001909291908035906020019092919050505061254a565b604051808273ffffffffffffffffffffffffffffffffffffffff16815260200191505060405180910390f35b61084b6004803603604081101561081557600080fd5b8101908080359060200190929190803573ffffffffffffffffffffffffffffffffffffffff16906020019092919050505061257c565b60405180821515815260200191505060405180910390f35b61091c6004803603602081101561087957600080fd5b810190808035906020019064010000000081111561089657600080fd5b8201836020820111156108a857600080fd5b803590602001918460018302840111640100000000831117156108ca57600080fd5b91908080601f016020809104026020016040519081016040528093929190818152602001838380828437600081840152601f19601f8201169050808301925050505050505091929192905050506125ae565b60405180821515815260200191505060405180910390f35b6109606004803603602081101561094a57600080fd5b8101908080359060200190929190505050612623565b6040518082815260200191505060405180910390f35b610a2f6004803603602081101561098c57600080fd5b81019080803590602001906401000000008111156109a957600080fd5b8201836020820111156109bb57600080fd5b803590602001918460018302840111640100000000831117156109dd57600080fd5b91908080601f016020809104026020016040519081016040528093929190818152602001838380828437600081840152601f19601f82011690508083019250505050505050919291929050505061263b565b604051808273ffffffffffffffffffffffffffffffffffffffff16815260200191505060405180910390f35b610a63612760565b6040518082815260200191505060405180910390f35b610a81612767565b604051808273ffffffffffffffffffffffffffffffffffffffff16815260200191505060405180910390f35b610b7360048036036040811015610ac357600080fd5b8101908080359060200190640100000000811115610ae057600080fd5b820183602082011115610af257600080fd5b80359060200191846001830284011164010000000083111715610b1457600080fd5b91908080601f016020809104026020016040519081016040528093929190818152602001838380828437600081840152601f19601f820116905080830192505050505050509192919290803560ff16906020019092919050505061278d565b60405180821515815260200191505060405180910390f35b610c4460048036036020811015610ba157600080fd5b8101908080359060200190640100000000811115610bbe57600080fd5b820183602082011115610bd057600080fd5b80359060200191846001830284011164010000000083111715610bf257600080fd5b91908080601f016020809104026020016040519081016040528093929190818152602001838380828437600081840152601f19601f820116905080830192505050505050509192919290505050612d10565b6040518082815260200191505060405180910390f35b610c8660048036036020811015610c7057600080fd5b8101908080359060200190929190505050612d3e565b604051808881526020018773ffffffffffffffffffffffffffffffffffffffff168152602001806020018667ffffffffffffffff1681526020018560ff1681526020018481526020018315158152602001828103825287818151815260200191508051906020019080838360005b83811015610d0f578082015181840152602081019050610cf4565b50505050905090810190601f168015610d3c5780820380516001836020036101000a031916815260200191505b509850505050505050505060405180910390f35b610e1360048036036040811015610d6657600080fd5b810190808035906020019092919080359060200190640100000000811115610d8d57600080fd5b820183602082011115610d9f57600080fd5b80359060200191846001830284011164010000000083111715610dc157600080fd5b91908080601f016020809104026020016040519081016040528093929190818152602001838380828437600081840152601f19601f820116905080830192505050505050509192919290505050612e66565b60405180821515815260200191505060405180910390f35b610e5760048036036020811015610e4157600080fd5b810190808035906020019092919050505061338f565b6040518082815260200191505060405180910390f35b610e756133b6565b6040518082815260200191505060405180910390f35b610ed760048036036040811015610ea157600080fd5b8101908080359060200190929190803573ffffffffffffffffffffffffffffffffffffffff1690602001909291905050506133da565b005b610f0560048036036020811015610eef57600080fd5b8101908080359060200190929190505050613464565b604051808273ffffffffffffffffffffffffffffffffffffffff16815260200191505060405180910390f35b610f7360048036036020811015610f4757600080fd5b81019080803573ffffffffffffffffffffffffffffffffffffffff1690602001909291905050506134a3565b6040518082815260200191505060405180910390f35b610fbf60048036036040811015610f9f57600080fd5b8101908080359060200190929190803590602001909291905050506134bb565b60405180821515815260200191505060405180910390f35b60008060696000606560008673ffffffffffffffffffffffffffffffffffffffff1673ffffffffffffffffffffffffffffffffffffffff16815260200190815260200160002054815260200190815260200160002090508060050160009054906101000a900460ff16915050919050565b60006110747f71f3d55856e4058ed06ee057d79ada615f65cdf5f9ee88181b914225088f834f3361257c565b6110e6576040517f08c379a000000000000000000000000000000000000000000000000000000000815260040180806020018281038252600d8152602001807f6163636573732064656e6965640000000000000000000000000000000000000081525060200191505060405180910390fd5b81606860166101000a81548160ff021916908360ff16021790555060019050919050565b600060336000838152602001908152602001600020600201549050919050565b611151603360008481526020019081526020016000206002015461114c6138d6565b61257c565b6111a6576040517f08c379a000000000000000000000000000000000000000000000000000000000815260040180806020018281038252602f8152602001806140de602f913960400191505060405180910390fd5b6111b082826138de565b5050565b60006111c36000801b3361257c565b611235576040517f08c379a000000000000000000000000000000000000000000000000000000000815260040180806020018281038252600d8152602001807f6163636573732064656e6965640000000000000000000000000000000000000081525060200191505060405180910390fd5b6000829050600073ffffffffffffffffffffffffffffffffffffffff168173ffffffffffffffffffffffffffffffffffffffff16630a0f81686040518163ffffffff1660e01b815260040160206040518083038186803b15801561129857600080fd5b505afa1580156112ac573d6000803e3d6000fd5b505050506040513d60208110156112c257600080fd5b810190808051906020019092919050505073ffffffffffffffffffffffffffffffffffffffff16141561135d576040517f08c379a00000000000000000000000000000000000000000000000000000000081526004018080602001828103825260078152602001807f696e76616c69640000000000000000000000000000000000000000000000000081525060200191505060405180910390fd5b80606860006101000a81548173ffffffffffffffffffffffffffffffffffffffff021916908373ffffffffffffffffffffffffffffffffffffffff1602179055506001915050919050565b6113b06138d6565b73ffffffffffffffffffffffffffffffffffffffff168173ffffffffffffffffffffffffffffffffffffffff1614611433576040517f08c379a000000000000000000000000000000000000000000000000000000000815260040180806020018281038252602f81526020018061416b602f913960400191505060405180910390fd5b61143d8282613972565b5050565b6000606780549050905090565b600061147a7f71f3d55856e4058ed06ee057d79ada615f65cdf5f9ee88181b914225088f834f3361257c565b6114ec576040517f08c379a000000000000000000000000000000000000000000000000000000000815260040180806020018281038252600d8152602001807f6163636573732064656e6965640000000000000000000000000000000000000081525060200191505060405180910390fd5b82606860146101000a81548160ff021916908360ff16021790555081606860156101000a81548160ff021916908360ff1602179055506001905092915050565b6000606860169054906101000a900460ff1660ff168260ff16106115b8576040517f08c379a00000000000000000000000000000000000000000000000000000000081526004018080602001828103825260118152602001807f706963206f7574206f6620626f756e647300000000000000000000000000000081525060200191505060405180910390fd5b60006069600085815260200190815260200160002090508060050160009054906101000a900460ff16611653576040517f08c379a000000000000000000000000000000000000000000000000000000000815260040180806020018281038252600a8152602001807f696e76616c69642069640000000000000000000000000000000000000000000081525060200191505060405180910390fd5b3373ffffffffffffffffffffffffffffffffffffffff168160010160009054906101000a900473ffffffffffffffffffffffffffffffffffffffff1673ffffffffffffffffffffffffffffffffffffffff1614611718576040517f08c379a000000000000000000000000000000000000000000000000000000000815260040180806020018281038252600d8152602001807f6163636573732064656e6965640000000000000000000000000000000000000081525060200191505060405180910390fd5b828160030160086101000a81548160ff021916908360ff1602179055507f69e29765eee9ce41e5c9e024d867f612cb1a6690a5c5f905201d4c591c423f1e848260010160009054906101000a900473ffffffffffffffffffffffffffffffffffffffff16836002018460030160009054906101000a900467ffffffffffffffff168560030160089054906101000a900460ff168660040154604051808781526020018673ffffffffffffffffffffffffffffffffffffffff168152602001806020018567ffffffffffffffff1681526020018460ff16815260200183815260200182810382528681815460018160011615610100020316600290048152602001915080546001816001161561010002031660029004801561187a5780601f1061184f5761010080835404028352916020019161187a565b820191906000526020600020905b81548152906001019060200180831161185d57829003601f168201915b505097505050505050505060405180910390a1600191505092915050565b60008060606000806000806118ac88610fd7565b61191e576040517f08c379a00000000000000000000000000000000000000000000000000000000081526004018080602001828103825260108152602001807f6e6f2070726f66696c6520666f756e640000000000000000000000000000000081525060200191505060405180910390fd5b600060696000606560008c73ffffffffffffffffffffffffffffffffffffffff1673ffffffffffffffffffffffffffffffffffffffff1681526020019081526020016000205481526020019081526020016000206040518060e0016040529081600082015481526020016001820160009054906101000a900473ffffffffffffffffffffffffffffffffffffffff1673ffffffffffffffffffffffffffffffffffffffff1673ffffffffffffffffffffffffffffffffffffffff168152602001600282018054600181600116156101000203166002900480601f016020809104026020016040519081016040528092919081815260200182805460018160011615610100020316600290048015611a765780601f10611a4b57610100808354040283529160200191611a76565b820191906000526020600020905b815481529060010190602001808311611a5957829003601f168201915b505050505081526020016003820160009054906101000a900467ffffffffffffffff1667ffffffffffffffff1667ffffffffffffffff1681526020016003820160089054906101000a900460ff1660ff1660ff168152602001600482015481526020016005820160009054906101000a900460ff1615151515815250509050806000015181602001518260400151836060015184608001518560a00151606a60008860000151815260200190815260200160002054975097509750975097509750975050919395979092949650565b6000611b717f074d40a305a8a90af8f1a910f983406ed04849c36b2bc8143f091437b95cbb123361257c565b611be3576040517f08c379a000000000000000000000000000000000000000000000000000000000815260040180806020018281038252600d8152602001807f6163636573732064656e6965640000000000000000000000000000000000000081525060200191505060405180910390fd5b611bec83610fd7565b611c5e576040517f08c379a00000000000000000000000000000000000000000000000000000000081526004018080602001828103825260108152602001807f6e6f2070726f66696c6520666f756e640000000000000000000000000000000081525060200191505060405180910390fd5b600060696000606560008773ffffffffffffffffffffffffffffffffffffffff1673ffffffffffffffffffffffffffffffffffffffff1681526020019081526020016000205481526020019081526020016000206040518060e0016040529081600082015481526020016001820160009054906101000a900473ffffffffffffffffffffffffffffffffffffffff1673ffffffffffffffffffffffffffffffffffffffff1673ffffffffffffffffffffffffffffffffffffffff168152602001600282018054600181600116156101000203166002900480601f016020809104026020016040519081016040528092919081815260200182805460018160011615610100020316600290048015611db65780601f10611d8b57610100808354040283529160200191611db6565b820191906000526020600020905b815481529060010190602001808311611d9957829003601f168201915b505050505081526020016003820160009054906101000a900467ffffffffffffffff1667ffffffffffffffff1667ffffffffffffffff1681526020016003820160089054906101000a900460ff1660ff1660ff168152602001600482015481526020016005820160009054906101000a900460ff161515151581525050905082606a60008360000151815260200190815260200160002060008282540192505081905550600191505092915050565b7f71f3d55856e4058ed06ee057d79ada615f65cdf5f9ee88181b914225088f834f81565b6000806060600080600080611e9d886125ae565b611f0f576040517f08c379a000000000000000000000000000000000000000000000000000000000815260040180806020018281038252600e8152602001807f6e616d65206e6f7420666f756e6400000000000000000000000000000000000081525060200191505060405180910390fd5b60006069600060668b6040518082805190602001908083835b60208310611f4b5780518252602082019150602081019050602083039250611f28565b6001836020036101000a03801982511681845116808217855250505050505090500191505090815260200160405180910390205481526020019081526020016000206040518060e0016040529081600082015481526020016001820160009054906101000a900473ffffffffffffffffffffffffffffffffffffffff1673ffffffffffffffffffffffffffffffffffffffff1673ffffffffffffffffffffffffffffffffffffffff168152602001600282018054600181600116156101000203166002900480601f0160208091040260200160405190810160405280929190818152602001828054600181600116156101000203166002900480156120915780601f1061206657610100808354040283529160200191612091565b820191906000526020600020905b81548152906001019060200180831161207457829003601f168201915b505050505081526020016003820160009054906101000a900467ffffffffffffffff1667ffffffffffffffff1667ffffffffffffffff1681526020016003820160089054906101000a900460ff1660ff1660ff168152602001600482015481526020016005820160009054906101000a900460ff1615151515815250509050806000015181602001518260400151836060015184608001518560a00151606a60008860000151815260200190815260200160002054975097509750975097509750975050919395979092949650565b600060019054906101000a900460ff168061217f575061217e613a06565b5b80612195575060008054906101000a900460ff16155b6121ea576040517f08c379a000000000000000000000000000000000000000000000000000000000815260040180806020018281038252602e81526020018061413d602e913960400191505060405180910390fd5b60008060019054906101000a900460ff16159050801561223a576001600060016101000a81548160ff02191690831515021790555060016000806101000a81548160ff0219169083151502179055505b612242613a17565b61224f6000801b33613b25565b6003606860146101000a81548160ff021916908360ff1602179055506010606860156101000a81548160ff021916908360ff160217905550600f606860166101000a81548160ff021916908360ff160217905550606760009080600181540180825580915050600190039060005260206000200160009091909190916101000a81548173ffffffffffffffffffffffffffffffffffffffff021916908373ffffffffffffffffffffffffffffffffffffffff1602179055506000606560008073ffffffffffffffffffffffffffffffffffffffff1673ffffffffffffffffffffffffffffffffffffffff168152602001908152602001600020819055506000606660405180807f73656c6600000000000000000000000000000000000000000000000000000000815250600401905090815260200160405180910390208190555060006040518060e0016040528060008152602001600073ffffffffffffffffffffffffffffffffffffffff1681526020016040518060400160405280600481526020017f73656c660000000000000000000000000000000000000000000000000000000081525081526020014267ffffffffffffffff168152602001600060ff1681526020016000815260200160001515815250905080606960008081526020019081526020016000206000820151816000015560208201518160010160006101000a81548173ffffffffffffffffffffffffffffffffffffffff021916908373ffffffffffffffffffffffffffffffffffffffff16021790555060408201518160020190805190602001906124a7929190614010565b5060608201518160030160006101000a81548167ffffffffffffffff021916908367ffffffffffffffff16021790555060808201518160030160086101000a81548160ff021916908360ff16021790555060a0820151816004015560c08201518160050160006101000a81548160ff0219169083151502179055509050505080156125475760008060016101000a81548160ff0219169083151502179055505b50565b60006125748260336000868152602001908152602001600020600001613b3390919063ffffffff16565b905092915050565b60006125a68260336000868152602001908152602001600020600001613b4d90919063ffffffff16565b905092915050565b6000806066836040518082805190602001908083835b602083106125e757805182526020820191506020810190506020830392506125c4565b6001836020036101000a038019825116818451168082178552505050505050905001915050908152602001604051809103902054119050919050565b606a6020528060005260406000206000915090505481565b6000612646826125ae565b6126b8576040517f08c379a000000000000000000000000000000000000000000000000000000000815260040180806020018281038252600e8152602001807f6e616d65206e6f7420666f756e6400000000000000000000000000000000000081525060200191505060405180910390fd5b60676066836040518082805190602001908083835b602083106126f057805182526020820191506020810190506020830392506126cd565b6001836020036101000a0380198251168184511680821785525050505050509050019150509081526020016040518091039020548154811061272e57fe5b9060005260206000200160009054906101000a900473ffffffffffffffffffffffffffffffffffffffff169050919050565b6000801b81565b606860009054906101000a900473ffffffffffffffffffffffffffffffffffffffff1681565b600061279833610fd7565b1561280b576040517f08c379a00000000000000000000000000000000000000000000000000000000081526004018080602001828103825260168152602001807f70726f66696c6520616c7265616479206578697374730000000000000000000081525060200191505060405180910390fd5b612814836125ae565b15612887576040517f08c379a00000000000000000000000000000000000000000000000000000000081526004018080602001828103825260128152602001807f6e616d6520616c72656164792074616b656e000000000000000000000000000081525060200191505060405180910390fd5b606860149054906101000a900460ff1660ff1683511015612910576040517f08c379a000000000000000000000000000000000000000000000000000000000815260040180806020018281038252600e8152602001807f6e616d6520746f6f2073686f727400000000000000000000000000000000000081525060200191505060405180910390fd5b606860159054906101000a900460ff1660ff1683511115612999576040517f08c379a000000000000000000000000000000000000000000000000000000000815260040180806020018281038252600d8152602001807f6e616d6520746f6f206c6f6e670000000000000000000000000000000000000081525060200191505060405180910390fd5b600060678054905090506067339080600181540180825580915050600190039060005260206000200160009091909190916101000a81548173ffffffffffffffffffffffffffffffffffffffff021916908373ffffffffffffffffffffffffffffffffffffffff16021790555080606560003373ffffffffffffffffffffffffffffffffffffffff1673ffffffffffffffffffffffffffffffffffffffff16815260200190815260200160002081905550806066856040518082805190602001908083835b60208310612a815780518252602082019150602081019050602083039250612a5e565b6001836020036101000a03801982511681845116808217855250505050505090500191505090815260200160405180910390208190555060006040518060e001604052808381526020013373ffffffffffffffffffffffffffffffffffffffff1681526020018681526020014267ffffffffffffffff1681526020018560ff1681526020016000815260200160011515815250905080606960008481526020019081526020016000206000820151816000015560208201518160010160006101000a81548173ffffffffffffffffffffffffffffffffffffffff021916908373ffffffffffffffffffffffffffffffffffffffff1602179055506040820151816002019080519060200190612b97929190614010565b5060608201518160030160006101000a81548167ffffffffffffffff021916908367ffffffffffffffff16021790555060808201518160030160086101000a81548160ff021916908360ff16021790555060a0820151816004015560c08201518160050160006101000a81548160ff0219169083151502179055509050507f72a68484472f11fcd73602564e346c18c3d22b4869842397c7347330035c8a38828260200151836040015184606001518560800151604051808681526020018573ffffffffffffffffffffffffffffffffffffffff168152602001806020018467ffffffffffffffff1681526020018360ff168152602001828103825285818151815260200191508051906020019080838360005b83811015612cc6578082015181840152602081019050612cab565b50505050905090810190601f168015612cf35780820380516001836020036101000a031916815260200191505b50965050505050505060405180910390a160019250505092915050565b6066818051602081018201805184825260208301602085012081835280955050505050506000915090505481565b60696020528060005260406000206000915090508060000154908060010160009054906101000a900473ffffffffffffffffffffffffffffffffffffffff1690806002018054600181600116156101000203166002900480601f016020809104026020016040519081016040528092919081815260200182805460018160011615610100020316600290048015612e165780601f10612deb57610100808354040283529160200191612e16565b820191906000526020600020905b815481529060010190602001808311612df957829003601f168201915b5050505050908060030160009054906101000a900467ffffffffffffffff16908060030160089054906101000a900460ff16908060040154908060050160009054906101000a900460ff16905087565b6000612e927f71f3d55856e4058ed06ee057d79ada615f65cdf5f9ee88181b914225088f834f3361257c565b612f04576040517f08c379a000000000000000000000000000000000000000000000000000000000815260040180806020018281038252600d8152602001807f6163636573732064656e6965640000000000000000000000000000000000000081525060200191505060405180910390fd5b612f0d826125ae565b15612f80576040517f08c379a00000000000000000000000000000000000000000000000000000000081526004018080602001828103825260128152602001807f6e616d6520616c72656164792074616b656e000000000000000000000000000081525060200191505060405180910390fd5b606860149054906101000a900460ff1660ff1682511015613009576040517f08c379a000000000000000000000000000000000000000000000000000000000815260040180806020018281038252600e8152602001807f6e616d6520746f6f2073686f727400000000000000000000000000000000000081525060200191505060405180910390fd5b606860159054906101000a900460ff1660ff1682511115613092576040517f08c379a000000000000000000000000000000000000000000000000000000000815260040180806020018281038252600d8152602001807f6e616d6520746f6f206c6f6e670000000000000000000000000000000000000081525060200191505060405180910390fd5b60006069600085815260200190815260200160002090508060050160009054906101000a900460ff1661312d576040517f08c379a000000000000000000000000000000000000000000000000000000000815260040180806020018281038252600a8152602001807f696e76616c69642069640000000000000000000000000000000000000000000081525060200191505060405180910390fd5b836066846040518082805190602001908083835b602083106131645780518252602082019150602081019050602083039250613141565b6001836020036101000a03801982511681845116808217855250505050505090500191505090815260200160405180910390208190555060668160020160405180828054600181600116156101000203166002900480156131fc5780601f106131da5761010080835404028352918201916131fc565b820191906000526020600020905b8154815290600101906020018083116131e8575b50509150509081526020016040518091039020600090558281600201908051906020019061322b929190614010565b507f69e29765eee9ce41e5c9e024d867f612cb1a6690a5c5f905201d4c591c423f1e848260010160009054906101000a900473ffffffffffffffffffffffffffffffffffffffff16836002018460030160009054906101000a900467ffffffffffffffff168560030160089054906101000a900460ff168660040154604051808781526020018673ffffffffffffffffffffffffffffffffffffffff168152602001806020018567ffffffffffffffff1681526020018460ff1681526020018381526020018281038252868181546001816001161561010002031660029004815260200191508054600181600116156101000203166002900480156133715780601f1061334657610100808354040283529160200191613371565b820191906000526020600020905b81548152906001019060200180831161335457829003601f168201915b505097505050505050505060405180910390a1600191505092915050565b60006133af60336000848152602001908152602001600020600001613b7d565b9050919050565b7f074d40a305a8a90af8f1a910f983406ed04849c36b2bc8143f091437b95cbb1281565b61340160336000848152602001908152602001600020600201546133fc6138d6565b61257c565b613456576040517f08c379a000000000000000000000000000000000000000000000000000000000815260040180806020018281038252603081526020018061410d6030913960400191505060405180910390fd5b6134608282613972565b5050565b6067818154811061347457600080fd5b906000526020600020016000915054906101000a900473ffffffffffffffffffffffffffffffffffffffff1681565b60656020528060005260406000206000915090505481565b6000806069600085815260200190815260200160002090508060050160009054906101000a900460ff16613557576040517f08c379a000000000000000000000000000000000000000000000000000000000815260040180806020018281038252600a8152602001807f696e76616c69642069640000000000000000000000000000000000000000000081525060200191505060405180910390fd5b3373ffffffffffffffffffffffffffffffffffffffff168160010160009054906101000a900473ffffffffffffffffffffffffffffffffffffffff1673ffffffffffffffffffffffffffffffffffffffff161461361c576040517f08c379a000000000000000000000000000000000000000000000000000000000815260040180806020018281038252600d8152602001807f6163636573732064656e6965640000000000000000000000000000000000000081525060200191505060405180910390fd5b3373ffffffffffffffffffffffffffffffffffffffff16606860009054906101000a900473ffffffffffffffffffffffffffffffffffffffff1673ffffffffffffffffffffffffffffffffffffffff1663aa54beac856040518263ffffffff1660e01b81526004018082815260200191505060206040518083038186803b1580156136a657600080fd5b505afa1580156136ba573d6000803e3d6000fd5b505050506040513d60208110156136d057600080fd5b810190808051906020019092919050505073ffffffffffffffffffffffffffffffffffffffff161461376a576040517f08c379a000000000000000000000000000000000000000000000000000000000815260040180806020018281038252600d8152602001807f696e76616c6964206f776e65720000000000000000000000000000000000000081525060200191505060405180910390fd5b8281600401819055507f69e29765eee9ce41e5c9e024d867f612cb1a6690a5c5f905201d4c591c423f1e848260010160009054906101000a900473ffffffffffffffffffffffffffffffffffffffff16836002018460030160009054906101000a900467ffffffffffffffff168560030160089054906101000a900460ff168660040154604051808781526020018673ffffffffffffffffffffffffffffffffffffffff168152602001806020018567ffffffffffffffff1681526020018460ff1681526020018381526020018281038252868181546001816001161561010002031660029004815260200191508054600181600116156101000203166002900480156138b85780601f1061388d576101008083540402835291602001916138b8565b820191906000526020600020905b81548152906001019060200180831161389b57829003601f168201915b505097505050505050505060405180910390a1600191505092915050565b600033905090565b6139068160336000858152602001908152602001600020600001613b9290919063ffffffff16565b1561396e576139136138d6565b73ffffffffffffffffffffffffffffffffffffffff168173ffffffffffffffffffffffffffffffffffffffff16837f2f8788117e7eff1d82e926ec794901d17c78024a50270940304540a733656f0d60405160405180910390a45b5050565b61399a8160336000858152602001908152602001600020600001613bc290919063ffffffff16565b15613a02576139a76138d6565b73ffffffffffffffffffffffffffffffffffffffff168173ffffffffffffffffffffffffffffffffffffffff16837ff6391f5c32d9c69d2a47ea670b442974b53935d1edc7fd64eb21e047a839171b60405160405180910390a45b5050565b6000613a1130613bf2565b15905090565b600060019054906101000a900460ff1680613a365750613a35613a06565b5b80613a4c575060008054906101000a900460ff16155b613aa1576040517f08c379a000000000000000000000000000000000000000000000000000000000815260040180806020018281038252602e81526020018061413d602e913960400191505060405180910390fd5b60008060019054906101000a900460ff161590508015613af1576001600060016101000a81548160ff02191690831515021790555060016000806101000a81548160ff0219169083151502179055505b613af9613c05565b613b01613d03565b8015613b225760008060016101000a81548160ff0219169083151502179055505b50565b613b2f82826138de565b5050565b6000613b428360000183613e01565b60001c905092915050565b6000613b75836000018373ffffffffffffffffffffffffffffffffffffffff1660001b613e84565b905092915050565b6000613b8b82600001613ea7565b9050919050565b6000613bba836000018373ffffffffffffffffffffffffffffffffffffffff1660001b613eb8565b905092915050565b6000613bea836000018373ffffffffffffffffffffffffffffffffffffffff1660001b613f28565b905092915050565b600080823b905060008111915050919050565b600060019054906101000a900460ff1680613c245750613c23613a06565b5b80613c3a575060008054906101000a900460ff16155b613c8f576040517f08c379a000000000000000000000000000000000000000000000000000000000815260040180806020018281038252602e81526020018061413d602e913960400191505060405180910390fd5b60008060019054906101000a900460ff161590508015613cdf576001600060016101000a81548160ff02191690831515021790555060016000806101000a81548160ff0219169083151502179055505b8015613d005760008060016101000a81548160ff0219169083151502179055505b50565b600060019054906101000a900460ff1680613d225750613d21613a06565b5b80613d38575060008054906101000a900460ff16155b613d8d576040517f08c379a000000000000000000000000000000000000000000000000000000000815260040180806020018281038252602e81526020018061413d602e913960400191505060405180910390fd5b60008060019054906101000a900460ff161590508015613ddd576001600060016101000a81548160ff02191690831515021790555060016000806101000a81548160ff0219169083151502179055505b8015613dfe5760008060016101000a81548160ff0219169083151502179055505b50565b600081836000018054905011613e62576040517f08c379a00000000000000000000000000000000000000000000000000000000081526004018080602001828103825260228152602001806140bc6022913960400191505060405180910390fd5b826000018281548110613e7157fe5b9060005260206000200154905092915050565b600080836001016000848152602001908152602001600020541415905092915050565b600081600001805490509050919050565b6000613ec48383613e84565b613f1d578260000182908060018154018082558091505060019003906000526020600020016000909190919091505582600001805490508360010160008481526020019081526020016000208190555060019050613f22565b600090505b92915050565b600080836001016000848152602001908152602001600020549050600081146140045760006001820390506000600186600001805490500390506000866000018281548110613f7357fe5b9060005260206000200154905080876000018481548110613f9057fe5b9060005260206000200181905550600183018760010160008381526020019081526020016000208190555086600001805480613fc857fe5b6001900381819060005260206000200160009055905586600101600087815260200190815260200160002060009055600194505050505061400a565b60009150505b92915050565b828054600181600116156101000203166002900490600052602060002090601f016020900481019282614046576000855561408d565b82601f1061405f57805160ff191683800117855561408d565b8280016001018555821561408d579182015b8281111561408c578251825591602001919060010190614071565b5b50905061409a919061409e565b5090565b5b808211156140b757600081600090555060010161409f565b509056fe456e756d657261626c655365743a20696e646578206f7574206f6620626f756e6473416363657373436f6e74726f6c3a2073656e646572206d75737420626520616e2061646d696e20746f206772616e74416363657373436f6e74726f6c3a2073656e646572206d75737420626520616e2061646d696e20746f207265766f6b65496e697469616c697a61626c653a20636f6e747261637420697320616c726561647920696e697469616c697a6564416363657373436f6e74726f6c3a2063616e206f6e6c792072656e6f756e636520726f6c657320666f722073656c66a2646970667358221220811a6336249069e34ccff69e26dfb0001193e479e49c789188ab7eac1664d48264736f6c63430007060033",
  "linkReferences": {},
  "deployedLinkReferences": {}
}