{
  "_format": "hh-sol-artifact-1",
  "contractName": "Affiliate",
  "sourceName": "contracts/Affiliate.sol",
  "abi": [
    {
      "inputs": [],
      "stateMutability": "nonpayable",
      "type": "constructor"
    },
    {
      "inputs": [
        {
          "internalType": "address",
          "name": "",
          "type": "address"
        }
      ],
      "name": "affiliate_link",
      "outputs": [
        {
          "internalType": "address",
          "name": "referrer",
          "type": "address"
        },
        {
          "internalType": "string",
          "name": "promo_code",
          "type": "string"
        },
        {
          "internalType": "bool",
          "name": "signed_up",
          "type": "bool"
        }
      ],
      "stateMutability": "view",
      "type": "function"
    },
    {
      "inputs": [
        {
          "internalType": "address",
          "name": "",
          "type": "address"
        },
        {
          "internalType": "uint256",
          "name": "",
          "type": "uint256"
        }
      ],
      "name": "all_promo_codes_owned_by_user",
      "outputs": [
        {
          "internalType": "string",
          "name": "",
          "type": "string"
        }
      ],
      "stateMutability": "view",
      "type": "function"
    },
    {
      "inputs": [],
      "name": "escrowContractLink",
      "outputs": [
        {
          "internalType": "address",
          "name": "",
          "type": "address"
        }
      ],
      "stateMutability": "view",
      "type": "function"
    },
    {
      "inputs": [
        {
          "internalType": "address",
          "name": "user",
          "type": "address"
        }
      ],
      "name": "fetch_all_promo_codes_owned_by_user",
      "outputs": [
        {
          "internalType": "string[]",
          "name": "",
          "type": "string[]"
        }
      ],
      "stateMutability": "view",
      "type": "function"
    },
    {
      "inputs": [
        {
          "internalType": "string",
          "name": "promo_code",
          "type": "string"
        }
      ],
      "name": "fetch_promo_code_owner",
      "outputs": [
        {
          "components": [
            {
              "internalType": "address",
              "name": "owner",
              "type": "address"
            },
            {
              "internalType": "uint256",
              "name": "signups",
              "type": "uint256"
            },
            {
              "internalType": "uint256",
              "name": "accumulated_earnings",
              "type": "uint256"
            }
          ],
          "internalType": "struct Affiliate.promo_code_object",
          "name": "",
          "type": "tuple"
        }
      ],
      "stateMutability": "view",
      "type": "function"
    },
    {
      "inputs": [
        {
          "internalType": "address",
          "name": "user",
          "type": "address"
        }
      ],
      "name": "get_affiliate_owner",
      "outputs": [
        {
          "components": [
            {
              "internalType": "address",
              "name": "referrer",
              "type": "address"
            },
            {
              "internalType": "string",
              "name": "promo_code",
              "type": "string"
            },
            {
              "internalType": "bool",
              "name": "signed_up",
              "type": "bool"
            }
          ],
          "internalType": "struct Affiliate.new_account",
          "name": "",
          "type": "tuple"
        }
      ],
      "stateMutability": "view",
      "type": "function"
    },
    {
      "inputs": [
        {
          "internalType": "string",
          "name": "promo_code_used",
          "type": "string"
        },
        {
          "internalType": "uint256",
          "name": "num_gold",
          "type": "uint256"
        }
      ],
      "name": "increment_referral_earnings",
      "outputs": [],
      "stateMutability": "nonpayable",
      "type": "function"
    },
    {
      "inputs": [],
      "name": "owner",
      "outputs": [
        {
          "internalType": "address",
          "name": "",
          "type": "address"
        }
      ],
      "stateMutability": "view",
      "type": "function"
    },
    {
      "inputs": [
        {
          "internalType": "string",
          "name": "",
          "type": "string"
        }
      ],
      "name": "promo_code_ownership",
      "outputs": [
        {
          "internalType": "address",
          "name": "owner",
          "type": "address"
        },
        {
          "internalType": "uint256",
          "name": "signups",
          "type": "uint256"
        },
        {
          "internalType": "uint256",
          "name": "accumulated_earnings",
          "type": "uint256"
        }
      ],
      "stateMutability": "view",
      "type": "function"
    },
    {
      "inputs": [
        {
          "internalType": "string",
          "name": "existing_promo_code",
          "type": "string"
        }
      ],
      "name": "remove_promo_code",
      "outputs": [],
      "stateMutability": "nonpayable",
      "type": "function"
    },
    {
      "inputs": [
        {
          "internalType": "address",
          "name": "escrowContractAddress",
          "type": "address"
        }
      ],
      "name": "setEscrowContractLink",
      "outputs": [],
      "stateMutability": "nonpayable",
      "type": "function"
    },
    {
      "inputs": [
        {
          "internalType": "string",
          "name": "new_promo_code",
          "type": "string"
        }
      ],
      "name": "set_promo_code_ownership",
      "outputs": [],
      "stateMutability": "nonpayable",
      "type": "function"
    },
    {
      "inputs": [
        {
          "internalType": "string",
          "name": "promo_code_used",
          "type": "string"
        }
      ],
      "name": "sign_up_with_promo",
      "outputs": [],
      "stateMutability": "nonpayable",
      "type": "function"
    }
  ],
  "bytecode": "0x608060405234801561001057600080fd5b5033600160006101000a81548173ffffffffffffffffffffffffffffffffffffffff021916908373ffffffffffffffffffffffffffffffffffffffff160217905550612275806100616000396000f3fe608060405234801561001057600080fd5b50600436106100cf5760003560e01c80638da5cb5b1161008c57806397ba10951161006657806397ba109514610224578063be06c0b714610242578063c92efd3114610274578063fe0e444114610290576100cf565b80638da5cb5b146101a657806394bab3f4146101c4578063969ceac1146101f4576100cf565b806309fac817146100d457806327975a3f146100f05780633301e4751461010c5780633c50c1b61461012857806365b452cf1461015857806374df6ed51461018a575b600080fd5b6100ee60048036038101906100e9919061190e565b6102c0565b005b61010a60048036038101906101059190611953565b6106c1565b005b6101266004803603810190610121919061190e565b61081f565b005b610142600480360381019061013d91906118d2565b610cf4565b60405161014f9190611f4e565b60405180910390f35b610172600480360381019061016d91906118a9565b610dbd565b60405161018193929190611eb7565b60405180910390f35b6101a4600480360381019061019f919061190e565b610eac565b005b6101ae611091565b6040516101bb9190611e9c565b60405180910390f35b6101de60048036038101906101d991906118a9565b6110b7565b6040516101eb9190612050565b60405180910390f35b61020e600480360381019061020991906118a9565b611223565b60405161021b9190611f2c565b60405180910390f35b61022c61134b565b6040516102399190611e9c565b60405180910390f35b61025c600480360381019061025791906119ab565b61136f565b60405161026b93929190611ef5565b60405180910390f35b61028e600480360381019061028991906118a9565b6113cf565b005b6102aa60048036038101906102a5919061190e565b6114a2565b6040516102b79190612072565b60405180910390f35b3373ffffffffffffffffffffffffffffffffffffffff16600283836040516102e9929190611e6c565b908152602001604051809103902060000160009054906101000a900473ffffffffffffffffffffffffffffffffffffffff1673ffffffffffffffffffffffffffffffffffffffff1614610371576040517f08c379a000000000000000000000000000000000000000000000000000000000815260040161036890612010565b60405180910390fd5b600060028383604051610385929190611e6c565b908152602001604051809103902060000160006101000a81548173ffffffffffffffffffffffffffffffffffffffff021916908373ffffffffffffffffffffffffffffffffffffffff1602179055506000600283836040516103e8929190611e6c565b908152602001604051809103902060010181905550600060028383604051610411929190611e6c565b90815260200160405180910390206002018190555060005b600360003373ffffffffffffffffffffffffffffffffffffffff1673ffffffffffffffffffffffffffffffffffffffff168152602001908152602001600020805490508110156106bc578282604051602001610486929190611e6c565b60405160208183030381529060405280519060200120600360003373ffffffffffffffffffffffffffffffffffffffff1673ffffffffffffffffffffffffffffffffffffffff16815260200190815260200160002082815481106104e657fe5b906000526020600020016040516020016105009190611e85565b6040516020818303038152906040528051906020012014156106af5760008190505b6001600360003373ffffffffffffffffffffffffffffffffffffffff1673ffffffffffffffffffffffffffffffffffffffff168152602001908152602001600020805490500381101561064757600360003373ffffffffffffffffffffffffffffffffffffffff1673ffffffffffffffffffffffffffffffffffffffff16815260200190815260200160002060018201815481106105bc57fe5b90600052602060002001600360003373ffffffffffffffffffffffffffffffffffffffff1673ffffffffffffffffffffffffffffffffffffffff168152602001908152602001600020828154811061061057fe5b906000526020600020019080546001816001161561010002031660029004610639929190611547565b508080600101915050610522565b50600360003373ffffffffffffffffffffffffffffffffffffffff1673ffffffffffffffffffffffffffffffffffffffff16815260200190815260200160002080548061069057fe5b6001900381819060005260206000200160006106ac91906115dc565b90555b8080600101915050610429565b505050565b60008054906101000a900473ffffffffffffffffffffffffffffffffffffffff1673ffffffffffffffffffffffffffffffffffffffff163373ffffffffffffffffffffffffffffffffffffffff161461074f576040517f08c379a000000000000000000000000000000000000000000000000000000000815260040161074690611f90565b60405180910390fd5b600073ffffffffffffffffffffffffffffffffffffffff1660028484604051610779929190611e6c565b908152602001604051809103902060000160009054906101000a900473ffffffffffffffffffffffffffffffffffffffff1673ffffffffffffffffffffffffffffffffffffffff1614156107cc5761081a565b80600284846040516107df929190611e6c565b9081526020016040518091039020600201540160028484604051610804929190611e6c565b9081526020016040518091039020600201819055505b505050565b3373ffffffffffffffffffffffffffffffffffffffff1660028383604051610848929190611e6c565b908152602001604051809103902060000160009054906101000a900473ffffffffffffffffffffffffffffffffffffffff1673ffffffffffffffffffffffffffffffffffffffff1614156108d1576040517f08c379a00000000000000000000000000000000000000000000000000000000081526004016108c890611fb0565b60405180910390fd5b60001515600460003373ffffffffffffffffffffffffffffffffffffffff1673ffffffffffffffffffffffffffffffffffffffff16815260200190815260200160002060020160009054906101000a900460ff16151514610967576040517f08c379a000000000000000000000000000000000000000000000000000000000815260040161095e90611fd0565b60405180910390fd5b60008282905014610bac57600060028383604051610986929190611e6c565b908152602001604051809103902060000160009054906101000a900473ffffffffffffffffffffffffffffffffffffffff169050600073ffffffffffffffffffffffffffffffffffffffff168173ffffffffffffffffffffffffffffffffffffffff161415610a2a576040517f08c379a0000000000000000000000000000000000000000000000000000000008152600401610a2190611f70565b60405180910390fd5b600160028484604051610a3e929190611e6c565b9081526020016040518091039020600101540160028484604051610a63929190611e6c565b90815260200160405180910390206001018190555080600460003373ffffffffffffffffffffffffffffffffffffffff1673ffffffffffffffffffffffffffffffffffffffff16815260200190815260200160002060000160006101000a81548173ffffffffffffffffffffffffffffffffffffffff021916908373ffffffffffffffffffffffffffffffffffffffff1602179055508282600460003373ffffffffffffffffffffffffffffffffffffffff1673ffffffffffffffffffffffffffffffffffffffff1681526020019081526020016000206001019190610b4a929190611624565b506001600460003373ffffffffffffffffffffffffffffffffffffffff1673ffffffffffffffffffffffffffffffffffffffff16815260200190815260200160002060020160006101000a81548160ff02191690831515021790555050610cf0565b6000600460003373ffffffffffffffffffffffffffffffffffffffff1673ffffffffffffffffffffffffffffffffffffffff16815260200190815260200160002060000160006101000a81548173ffffffffffffffffffffffffffffffffffffffff021916908373ffffffffffffffffffffffffffffffffffffffff16021790555060405180602001604052806000815250600460003373ffffffffffffffffffffffffffffffffffffffff1673ffffffffffffffffffffffffffffffffffffffff1681526020019081526020016000206001019080519060200190610c939291906116b2565b506001600460003373ffffffffffffffffffffffffffffffffffffffff1673ffffffffffffffffffffffffffffffffffffffff16815260200190815260200160002060020160006101000a81548160ff0219169083151502179055505b5050565b60036020528160005260406000208181548110610d1057600080fd5b90600052602060002001600091509150508054600181600116156101000203166002900480601f016020809104026020016040519081016040528092919081815260200182805460018160011615610100020316600290048015610db55780601f10610d8a57610100808354040283529160200191610db5565b820191906000526020600020905b815481529060010190602001808311610d9857829003601f168201915b505050505081565b60046020528060005260406000206000915090508060000160009054906101000a900473ffffffffffffffffffffffffffffffffffffffff1690806001018054600181600116156101000203166002900480601f016020809104026020016040519081016040528092919081815260200182805460018160011615610100020316600290048015610e8f5780601f10610e6457610100808354040283529160200191610e8f565b820191906000526020600020905b815481529060010190602001808311610e7257829003601f168201915b5050505050908060020160009054906101000a900460ff16905083565b600073ffffffffffffffffffffffffffffffffffffffff1660028383604051610ed6929190611e6c565b908152602001604051809103902060000160009054906101000a900473ffffffffffffffffffffffffffffffffffffffff1673ffffffffffffffffffffffffffffffffffffffff1614610f5e576040517f08c379a0000000000000000000000000000000000000000000000000000000008152600401610f5590611ff0565b60405180910390fd5b3360028383604051610f71929190611e6c565b908152602001604051809103902060000160006101000a81548173ffffffffffffffffffffffffffffffffffffffff021916908373ffffffffffffffffffffffffffffffffffffffff160217905550600060028383604051610fd4929190611e6c565b908152602001604051809103902060010181905550600060028383604051610ffd929190611e6c565b908152602001604051809103902060020181905550600360003373ffffffffffffffffffffffffffffffffffffffff1673ffffffffffffffffffffffffffffffffffffffff16815260200190815260200160002082829091806001815401808255809150506001900390600052602060002001600090919290919290919290919250919061108c929190611624565b505050565b600160009054906101000a900473ffffffffffffffffffffffffffffffffffffffff1681565b6110bf611740565b600460008373ffffffffffffffffffffffffffffffffffffffff1673ffffffffffffffffffffffffffffffffffffffff1681526020019081526020016000206040518060600160405290816000820160009054906101000a900473ffffffffffffffffffffffffffffffffffffffff1673ffffffffffffffffffffffffffffffffffffffff1673ffffffffffffffffffffffffffffffffffffffff168152602001600182018054600181600116156101000203166002900480601f0160208091040260200160405190810160405280929190818152602001828054600181600116156101000203166002900480156111f85780601f106111cd576101008083540402835291602001916111f8565b820191906000526020600020905b8154815290600101906020018083116111db57829003601f168201915b505050505081526020016002820160009054906101000a900460ff1615151515815250509050919050565b6060600360008373ffffffffffffffffffffffffffffffffffffffff1673ffffffffffffffffffffffffffffffffffffffff168152602001908152602001600020805480602002602001604051908101604052809291908181526020016000905b82821015611340578382906000526020600020018054600181600116156101000203166002900480601f01602080910402602001604051908101604052809291908181526020018280546001816001161561010002031660029004801561132c5780601f106113015761010080835404028352916020019161132c565b820191906000526020600020905b81548152906001019060200180831161130f57829003601f168201915b505050505081526020019060010190611284565b505050509050919050565b60008054906101000a900473ffffffffffffffffffffffffffffffffffffffff1681565b6002818051602081018201805184825260208301602085012081835280955050505050506000915090508060000160009054906101000a900473ffffffffffffffffffffffffffffffffffffffff16908060010154908060020154905083565b600160009054906101000a900473ffffffffffffffffffffffffffffffffffffffff1673ffffffffffffffffffffffffffffffffffffffff163373ffffffffffffffffffffffffffffffffffffffff161461145f576040517f08c379a000000000000000000000000000000000000000000000000000000000815260040161145690612030565b60405180910390fd5b806000806101000a81548173ffffffffffffffffffffffffffffffffffffffff021916908373ffffffffffffffffffffffffffffffffffffffff16021790555050565b6114aa611779565b600283836040516114bc929190611e6c565b90815260200160405180910390206040518060600160405290816000820160009054906101000a900473ffffffffffffffffffffffffffffffffffffffff1673ffffffffffffffffffffffffffffffffffffffff1673ffffffffffffffffffffffffffffffffffffffff16815260200160018201548152602001600282015481525050905092915050565b828054600181600116156101000203166002900490600052602060002090601f01602090048101928261157d57600085556115cb565b82601f1061158e57805485556115cb565b828001600101855582156115cb57600052602060002091601f016020900482015b828111156115ca5782548255916001019190600101906115af565b5b5090506115d891906117b0565b5090565b50805460018160011615610100020316600290046000825580601f106116025750611621565b601f01602090049060005260206000209081019061162091906117b0565b5b50565b828054600181600116156101000203166002900490600052602060002090601f01602090048101928261165a57600085556116a1565b82601f1061167357803560ff19168380011785556116a1565b828001600101855582156116a1579182015b828111156116a0578235825591602001919060010190611685565b5b5090506116ae91906117b0565b5090565b828054600181600116156101000203166002900490600052602060002090601f0160209004810192826116e8576000855561172f565b82601f1061170157805160ff191683800117855561172f565b8280016001018555821561172f579182015b8281111561172e578251825591602001919060010190611713565b5b50905061173c91906117b0565b5090565b6040518060600160405280600073ffffffffffffffffffffffffffffffffffffffff168152602001606081526020016000151581525090565b6040518060600160405280600073ffffffffffffffffffffffffffffffffffffffff16815260200160008152602001600081525090565b5b808211156117c95760008160009055506001016117b1565b5090565b60006117e06117db846120be565b61208d565b9050828152602081018484840111156117f857600080fd5b6118038482856121bc565b509392505050565b60008135905061181a81612211565b92915050565b60008083601f84011261183257600080fd5b8235905067ffffffffffffffff81111561184b57600080fd5b60208301915083600182028301111561186357600080fd5b9250929050565b600082601f83011261187b57600080fd5b813561188b8482602086016117cd565b91505092915050565b6000813590506118a381612228565b92915050565b6000602082840312156118bb57600080fd5b60006118c98482850161180b565b91505092915050565b600080604083850312156118e557600080fd5b60006118f38582860161180b565b925050602061190485828601611894565b9150509250929050565b6000806020838503121561192157600080fd5b600083013567ffffffffffffffff81111561193b57600080fd5b61194785828601611820565b92509250509250929050565b60008060006040848603121561196857600080fd5b600084013567ffffffffffffffff81111561198257600080fd5b61198e86828701611820565b935093505060206119a186828701611894565b9150509250925092565b6000602082840312156119bd57600080fd5b600082013567ffffffffffffffff8111156119d757600080fd5b6119e38482850161186a565b91505092915050565b60006119f88383611ad6565b905092915050565b611a0981612174565b82525050565b611a1881612174565b82525050565b6000611a2982612113565b611a338185612136565b935083602082028501611a45856120ee565b8060005b85811015611a815784840389528151611a6285826119ec565b9450611a6d83612129565b925060208a01995050600181019050611a49565b50829750879550505050505092915050565b611a9c81612186565b82525050565b611aab81612186565b82525050565b6000611abd8385612169565b9350611aca8385846121bc565b82840190509392505050565b6000611ae18261211e565b611aeb8185612147565b9350611afb8185602086016121cb565b611b0481612200565b840191505092915050565b6000611b1a8261211e565b611b248185612158565b9350611b348185602086016121cb565b611b3d81612200565b840191505092915050565b600081546001811660008114611b655760018114611b8a57611bce565b607f6002830416611b768187612169565b955060ff1983168652808601935050611bce565b60028204611b988187612169565b9550611ba3856120fe565b60005b82811015611bc557815481890152600182019150602081019050611ba6565b82880195505050505b505092915050565b6000611be3601283612158565b91507f496e76616c69642050726f6d6f20436f646500000000000000000000000000006000830152602082019050919050565b6000611c23601d83612158565b91507f4f6e6c7920457363726f7720436f6e74726163742063616e2063616c6c0000006000830152602082019050919050565b6000611c63602283612158565b91507f43616e2774207369676e207570207573696e67206f776e2070726f6d6f20636f60008301527f64650000000000000000000000000000000000000000000000000000000000006020830152604082019050919050565b6000611cc9601183612158565b91507f416c7265616479205369676e65642055700000000000000000000000000000006000830152602082019050919050565b6000611d09601783612158565b91507f50726f6d6f20636f646520616c726561647920757365640000000000000000006000830152602082019050919050565b6000611d49601783612158565b91507f4e6f207065726d697373696f6e20746f2072656d6f76650000000000000000006000830152602082019050919050565b6000611d89600a83612158565b91507f4f6e6c79204f776e6572000000000000000000000000000000000000000000006000830152602082019050919050565b6000606083016000830151611dd46000860182611a00565b5060208301518482036020860152611dec8282611ad6565b9150506040830151611e016040860182611a93565b508091505092915050565b606082016000820151611e226000850182611a00565b506020820151611e356020850182611e4e565b506040820151611e486040850182611e4e565b50505050565b611e57816121b2565b82525050565b611e66816121b2565b82525050565b6000611e79828486611ab1565b91508190509392505050565b6000611e918284611b48565b915081905092915050565b6000602082019050611eb16000830184611a0f565b92915050565b6000606082019050611ecc6000830186611a0f565b8181036020830152611ede8185611b0f565b9050611eed6040830184611aa2565b949350505050565b6000606082019050611f0a6000830186611a0f565b611f176020830185611e5d565b611f246040830184611e5d565b949350505050565b60006020820190508181036000830152611f468184611a1e565b905092915050565b60006020820190508181036000830152611f688184611b0f565b905092915050565b60006020820190508181036000830152611f8981611bd6565b9050919050565b60006020820190508181036000830152611fa981611c16565b9050919050565b60006020820190508181036000830152611fc981611c56565b9050919050565b60006020820190508181036000830152611fe981611cbc565b9050919050565b6000602082019050818103600083015261200981611cfc565b9050919050565b6000602082019050818103600083015261202981611d3c565b9050919050565b6000602082019050818103600083015261204981611d7c565b9050919050565b6000602082019050818103600083015261206a8184611dbc565b905092915050565b60006060820190506120876000830184611e0c565b92915050565b6000604051905081810181811067ffffffffffffffff821117156120b4576120b36121fe565b5b8060405250919050565b600067ffffffffffffffff8211156120d9576120d86121fe565b5b601f19601f8301169050602081019050919050565b6000819050602082019050919050565b60008190508160005260206000209050919050565b600081519050919050565b600081519050919050565b6000602082019050919050565b600082825260208201905092915050565b600082825260208201905092915050565b600082825260208201905092915050565b600081905092915050565b600061217f82612192565b9050919050565b60008115159050919050565b600073ffffffffffffffffffffffffffffffffffffffff82169050919050565b6000819050919050565b82818337600083830152505050565b60005b838110156121e95780820151818401526020810190506121ce565b838111156121f8576000848401525b50505050565bfe5b6000601f19601f8301169050919050565b61221a81612174565b811461222557600080fd5b50565b612231816121b2565b811461223c57600080fd5b5056fea26469706673582212203af82502c99e4a96dede486ef7dc79630fa42faa39a318be4d39144a4d6fc7b664736f6c63430007060033",
  "linkReferences": {},
  "deployedLinkReferences": {}
}