{
  "_format": "hh-sol-artifact-1",
  "contractName": "JewelOracle",
  "sourceName": "contracts/JewelOracle.sol",
  "abi": [
    {
      "inputs": [],
      "stateMutability": "nonpayable",
      "type": "constructor"
    },
    {
      "inputs": [],
      "name": "admin",
      "outputs": [
        {
          "internalType": "address",
          "name": "",
          "type": "address"
        }
      ],
      "stateMutability": "view",
      "type": "function"
    },
    {
      "inputs": [],
      "name": "dollarDenomatedJewelPrice",
      "outputs": [
        {
          "internalType": "uint256",
          "name": "",
          "type": "uint256"
        }
      ],
      "stateMutability": "view",
      "type": "function"
    },
    {
      "inputs": [],
      "name": "getDollarDenomatedJewelPrice",
      "outputs": [
        {
          "internalType": "uint256",
          "name": "",
          "type": "uint256"
        }
      ],
      "stateMutability": "view",
      "type": "function"
    },
    {
      "inputs": [],
      "name": "getJewelPrice",
      "outputs": [
        {
          "internalType": "uint256",
          "name": "",
          "type": "uint256"
        }
      ],
      "stateMutability": "view",
      "type": "function"
    },
    {
      "inputs": [],
      "name": "jewelTokenDecimals",
      "outputs": [
        {
          "internalType": "uint256",
          "name": "",
          "type": "uint256"
        }
      ],
      "stateMutability": "view",
      "type": "function"
    },
    {
      "inputs": [],
      "name": "setJewelPrice",
      "outputs": [],
      "stateMutability": "nonpayable",
      "type": "function"
    }
  ],
  "bytecode": "0x6080604052670de0b6b3a764000060025534801561001c57600080fd5b50336000806101000a81548173ffffffffffffffffffffffffffffffffffffffff021916908373ffffffffffffffffffffffffffffffffffffffff16021790555061096a8061006c6000396000f3fe608060405234801561001057600080fd5b50600436106100625760003560e01c80636e32c14a1461006757806385e4d3dd14610071578063895fa9221461008f578063b0985428146100ad578063e2628015146100cb578063f851a440146100e9575b600080fd5b61006f610107565b005b6100796101a6565b60405161008691906107ea565b60405180910390f35b6100976101ac565b6040516100a491906107ea565b60405180910390f35b6100b56101b6565b6040516100c291906107ea565b60405180910390f35b6100d36101bc565b6040516100e091906107ea565b60405180910390f35b6100f1610232565b6040516100fe919061076d565b60405180910390f35b60008054906101000a900473ffffffffffffffffffffffffffffffffffffffff1673ffffffffffffffffffffffffffffffffffffffff163373ffffffffffffffffffffffffffffffffffffffff1614610195576040517f08c379a000000000000000000000000000000000000000000000000000000000815260040161018c906107ca565b60405180910390fd5b67016345785d8a0000600181905550565b60025481565b6000600154905090565b60015481565b6000806101dc73e01502db14929b7733e7112e173c3bcf566f996e610256565b905060006101fd73a1221a5bbea699f507cc00bdedea05b5d2e32eba610256565b90506000610227600261021984866104a190919063ffffffff16565b6104f690919063ffffffff16565b905080935050505090565b60008054906101000a900473ffffffffffffffffffffffffffffffffffffffff1681565b60008082905060008173ffffffffffffffffffffffffffffffffffffffff16630dfe16816040518163ffffffff1660e01b815260040160206040518083038186803b1580156102a457600080fd5b505afa1580156102b8573d6000803e3d6000fd5b505050506040513d601f19601f820116820180604052508101906102dc91906105f5565b905060008273ffffffffffffffffffffffffffffffffffffffff1663d21220a76040518163ffffffff1660e01b815260040160206040518083038186803b15801561032657600080fd5b505afa15801561033a573d6000803e3d6000fd5b505050506040513d601f19601f8201168201806040525081019061035e91906105f5565b90506000808473ffffffffffffffffffffffffffffffffffffffff16630902f1ac6040518163ffffffff1660e01b815260040160606040518083038186803b1580156103a957600080fd5b505afa1580156103bd573d6000803e3d6000fd5b505050506040513d601f19601f820116820180604052508101906103e1919061061e565b506dffffffffffffffffffffffffffff1691506dffffffffffffffffffffffffffff169150808373ffffffffffffffffffffffffffffffffffffffff1663313ce5676040518163ffffffff1660e01b815260040160206040518083038186803b15801561044d57600080fd5b505afa158015610461573d6000803e3d6000fd5b505050506040513d601f19601f82011682018060405250810190610485919061066d565b60ff16600a0a83028161049457fe5b0495505050505050919050565b6000808284019050838110156104ec576040517f08c379a00000000000000000000000000000000000000000000000000000000081526004016104e3906107aa565b60405180910390fd5b8091505092915050565b600061053883836040518060400160405280601a81526020017f536166654d6174683a206469766973696f6e206279207a65726f000000000000815250610540565b905092915050565b60008083118290610587576040517f08c379a000000000000000000000000000000000000000000000000000000000815260040161057e9190610788565b60405180910390fd5b50600083858161059357fe5b049050809150509392505050565b6000815190506105b0816108d8565b92915050565b6000815190506105c5816108ef565b92915050565b6000815190506105da81610906565b92915050565b6000815190506105ef8161091d565b92915050565b60006020828403121561060757600080fd5b6000610615848285016105a1565b91505092915050565b60008060006060848603121561063357600080fd5b6000610641868287016105b6565b9350506020610652868287016105b6565b9250506040610663868287016105cb565b9150509250925092565b60006020828403121561067f57600080fd5b600061068d848285016105e0565b91505092915050565b61069f81610821565b82525050565b60006106b082610805565b6106ba8185610810565b93506106ca818560208601610894565b6106d3816108c7565b840191505092915050565b60006106eb601b83610810565b91507f536166654d6174683a206164646974696f6e206f766572666c6f7700000000006000830152602082019050919050565b600061072b600a83610810565b91507f4f6e6c79204f776e6572000000000000000000000000000000000000000000006000830152602082019050919050565b6107678161086d565b82525050565b60006020820190506107826000830184610696565b92915050565b600060208201905081810360008301526107a281846106a5565b905092915050565b600060208201905081810360008301526107c3816106de565b9050919050565b600060208201905081810360008301526107e38161071e565b9050919050565b60006020820190506107ff600083018461075e565b92915050565b600081519050919050565b600082825260208201905092915050565b600061082c8261084d565b9050919050565b60006dffffffffffffffffffffffffffff82169050919050565b600073ffffffffffffffffffffffffffffffffffffffff82169050919050565b6000819050919050565b600063ffffffff82169050919050565b600060ff82169050919050565b60005b838110156108b2578082015181840152602081019050610897565b838111156108c1576000848401525b50505050565b6000601f19601f8301169050919050565b6108e181610821565b81146108ec57600080fd5b50565b6108f881610833565b811461090357600080fd5b50565b61090f81610877565b811461091a57600080fd5b50565b61092681610887565b811461093157600080fd5b5056fea2646970667358221220a8cf576b57eaa52dc74e114bb1ec288412ebcac5cb3ef40f6ab25b3bdf477b7064736f6c63430007060033",
  "linkReferences": {},
  "deployedLinkReferences": {}
}