{
  "_format": "hh-sol-artifact-1",
  "contractName": "BattleContractProxy",
  "sourceName": "contracts/BattleContractProxy.sol",
  "abi": [
    {
      "inputs": [],
      "stateMutability": "nonpayable",
      "type": "constructor"
    },
    {
      "anonymous": false,
      "inputs": [
        {
          "indexed": true,
          "internalType": "address",
          "name": "gamer",
          "type": "address"
        },
        {
          "indexed": true,
          "internalType": "uint256",
          "name": "pair_id",
          "type": "uint256"
        },
        {
          "indexed": false,
          "internalType": "uint256",
          "name": "timestamp",
          "type": "uint256"
        }
      ],
      "name": "ConFirm_Game",
      "type": "event"
    },
    {
      "anonymous": false,
      "inputs": [
        {
          "indexed": true,
          "internalType": "address",
          "name": "player1",
          "type": "address"
        },
        {
          "indexed": true,
          "internalType": "address",
          "name": "player2",
          "type": "address"
        },
        {
          "indexed": false,
          "internalType": "address",
          "name": "game_winner",
          "type": "address"
        },
        {
          "components": [
            {
              "internalType": "bytes",
              "name": "id",
              "type": "bytes"
            },
            {
              "components": [
                {
                  "internalType": "uint256",
                  "name": "statGenes",
                  "type": "uint256"
                },
                {
                  "internalType": "uint256",
                  "name": "visualGenes",
                  "type": "uint256"
                },
                {
                  "internalType": "uint256",
                  "name": "rarity",
                  "type": "uint256"
                },
                {
                  "internalType": "bool",
                  "name": "shiny",
                  "type": "bool"
                },
                {
                  "internalType": "uint256",
                  "name": "generation",
                  "type": "uint256"
                },
                {
                  "internalType": "uint256",
                  "name": "firstName",
                  "type": "uint256"
                },
                {
                  "internalType": "uint256",
                  "name": "lastName",
                  "type": "uint256"
                },
                {
                  "internalType": "uint256",
                  "name": "shinyStyle",
                  "type": "uint256"
                },
                {
                  "internalType": "uint256",
                  "name": "class",
                  "type": "uint256"
                },
                {
                  "internalType": "uint256",
                  "name": "subClass",
                  "type": "uint256"
                }
              ],
              "internalType": "struct IHero.Info",
              "name": "info",
              "type": "tuple"
            },
            {
              "components": [
                {
                  "internalType": "uint256",
                  "name": "staminaFullAt",
                  "type": "uint256"
                },
                {
                  "internalType": "uint256",
                  "name": "hpFullAt",
                  "type": "uint256"
                },
                {
                  "internalType": "uint256",
                  "name": "mpFullAt",
                  "type": "uint256"
                },
                {
                  "internalType": "uint16",
                  "name": "level",
                  "type": "uint16"
                },
                {
                  "internalType": "uint64",
                  "name": "xp",
                  "type": "uint64"
                },
                {
                  "internalType": "address",
                  "name": "currentQuest",
                  "type": "address"
                },
                {
                  "internalType": "uint8",
                  "name": "sp",
                  "type": "uint8"
                },
                {
                  "internalType": "uint8",
                  "name": "status",
                  "type": "uint8"
                }
              ],
              "internalType": "struct IHero.State",
              "name": "state",
              "type": "tuple"
            },
            {
              "internalType": "bytes",
              "name": "stats",
              "type": "bytes"
            }
          ],
          "indexed": false,
          "internalType": "struct BattleContractProxy.EncodedHero",
          "name": "player1Hero",
          "type": "tuple"
        },
        {
          "components": [
            {
              "internalType": "bytes",
              "name": "id",
              "type": "bytes"
            },
            {
              "components": [
                {
                  "internalType": "uint256",
                  "name": "statGenes",
                  "type": "uint256"
                },
                {
                  "internalType": "uint256",
                  "name": "visualGenes",
                  "type": "uint256"
                },
                {
                  "internalType": "uint256",
                  "name": "rarity",
                  "type": "uint256"
                },
                {
                  "internalType": "bool",
                  "name": "shiny",
                  "type": "bool"
                },
                {
                  "internalType": "uint256",
                  "name": "generation",
                  "type": "uint256"
                },
                {
                  "internalType": "uint256",
                  "name": "firstName",
                  "type": "uint256"
                },
                {
                  "internalType": "uint256",
                  "name": "lastName",
                  "type": "uint256"
                },
                {
                  "internalType": "uint256",
                  "name": "shinyStyle",
                  "type": "uint256"
                },
                {
                  "internalType": "uint256",
                  "name": "class",
                  "type": "uint256"
                },
                {
                  "internalType": "uint256",
                  "name": "subClass",
                  "type": "uint256"
                }
              ],
              "internalType": "struct IHero.Info",
              "name": "info",
              "type": "tuple"
            },
            {
              "components": [
                {
                  "internalType": "uint256",
                  "name": "staminaFullAt",
                  "type": "uint256"
                },
                {
                  "internalType": "uint256",
                  "name": "hpFullAt",
                  "type": "uint256"
                },
                {
                  "internalType": "uint256",
                  "name": "mpFullAt",
                  "type": "uint256"
                },
                {
                  "internalType": "uint16",
                  "name": "level",
                  "type": "uint16"
                },
                {
                  "internalType": "uint64",
                  "name": "xp",
                  "type": "uint64"
                },
                {
                  "internalType": "address",
                  "name": "currentQuest",
                  "type": "address"
                },
                {
                  "internalType": "uint8",
                  "name": "sp",
                  "type": "uint8"
                },
                {
                  "internalType": "uint8",
                  "name": "status",
                  "type": "uint8"
                }
              ],
              "internalType": "struct IHero.State",
              "name": "state",
              "type": "tuple"
            },
            {
              "internalType": "bytes",
              "name": "stats",
              "type": "bytes"
            }
          ],
          "indexed": false,
          "internalType": "struct BattleContractProxy.EncodedHero",
          "name": "player2Hero",
          "type": "tuple"
        },
        {
          "indexed": false,
          "internalType": "bool",
          "name": "is_draw",
          "type": "bool"
        },
        {
          "indexed": true,
          "internalType": "uint256",
          "name": "pair_id",
          "type": "uint256"
        },
        {
          "components": [
            {
              "internalType": "address",
              "name": "attacker",
              "type": "address"
            },
            {
              "internalType": "address",
              "name": "defender",
              "type": "address"
            },
            {
              "internalType": "uint256",
              "name": "skill",
              "type": "uint256"
            },
            {
              "internalType": "uint16",
              "name": "damage",
              "type": "uint16"
            }
          ],
          "indexed": false,
          "internalType": "struct BattleContractProxy.Fight_Round[]",
          "name": "fight_rounds",
          "type": "tuple[]"
        },
        {
          "indexed": false,
          "internalType": "uint256",
          "name": "gold_amount",
          "type": "uint256"
        },
        {
          "indexed": false,
          "internalType": "uint256",
          "name": "timestamp",
          "type": "uint256"
        }
      ],
      "name": "Finished_Game",
      "type": "event"
    },
    {
      "anonymous": false,
      "inputs": [
        {
          "indexed": true,
          "internalType": "address",
          "name": "gamer1",
          "type": "address"
        },
        {
          "indexed": true,
          "internalType": "address",
          "name": "gamer2",
          "type": "address"
        },
        {
          "indexed": false,
          "internalType": "uint256",
          "name": "pair_id",
          "type": "uint256"
        },
        {
          "indexed": false,
          "internalType": "uint256",
          "name": "timestamp",
          "type": "uint256"
        }
      ],
      "name": "Game_Abandoned_PostPair",
      "type": "event"
    },
    {
      "anonymous": false,
      "inputs": [
        {
          "indexed": true,
          "internalType": "address",
          "name": "creator",
          "type": "address"
        },
        {
          "indexed": false,
          "internalType": "uint256",
          "name": "hero_id",
          "type": "uint256"
        },
        {
          "indexed": false,
          "internalType": "uint256",
          "name": "gold_amount",
          "type": "uint256"
        },
        {
          "indexed": false,
          "internalType": "uint256",
          "name": "jewel_amount",
          "type": "uint256"
        },
        {
          "indexed": false,
          "internalType": "uint256",
          "name": "pair_id",
          "type": "uint256"
        },
        {
          "indexed": false,
          "internalType": "uint256",
          "name": "timestamp",
          "type": "uint256"
        }
      ],
      "name": "Game_Abandoned_PrePair",
      "type": "event"
    },
    {
      "anonymous": false,
      "inputs": [
        {
          "indexed": true,
          "internalType": "address",
          "name": "creator",
          "type": "address"
        },
        {
          "indexed": false,
          "internalType": "uint256",
          "name": "hero_id",
          "type": "uint256"
        },
        {
          "indexed": false,
          "internalType": "uint256",
          "name": "gold_amount",
          "type": "uint256"
        },
        {
          "indexed": false,
          "internalType": "uint256",
          "name": "jewel_amount",
          "type": "uint256"
        },
        {
          "indexed": false,
          "internalType": "uint256",
          "name": "pair_id",
          "type": "uint256"
        },
        {
          "indexed": false,
          "internalType": "uint256",
          "name": "timestamp",
          "type": "uint256"
        }
      ],
      "name": "Game_Created",
      "type": "event"
    },
    {
      "anonymous": false,
      "inputs": [
        {
          "indexed": true,
          "internalType": "address",
          "name": "player1",
          "type": "address"
        },
        {
          "indexed": true,
          "internalType": "address",
          "name": "player2",
          "type": "address"
        },
        {
          "indexed": false,
          "internalType": "uint256",
          "name": "pair_id",
          "type": "uint256"
        },
        {
          "indexed": false,
          "internalType": "uint256",
          "name": "timestamp",
          "type": "uint256"
        }
      ],
      "name": "Post_Game_Updates",
      "type": "event"
    },
    {
      "anonymous": false,
      "inputs": [
        {
          "indexed": true,
          "internalType": "address",
          "name": "gamer",
          "type": "address"
        },
        {
          "indexed": false,
          "internalType": "uint256",
          "name": "hero_id",
          "type": "uint256"
        },
        {
          "indexed": false,
          "internalType": "uint256",
          "name": "gold_amount",
          "type": "uint256"
        },
        {
          "indexed": false,
          "internalType": "uint256",
          "name": "jewel_amount",
          "type": "uint256"
        },
        {
          "indexed": false,
          "internalType": "uint256",
          "name": "pair_id",
          "type": "uint256"
        },
        {
          "indexed": false,
          "internalType": "uint256",
          "name": "timestamp",
          "type": "uint256"
        }
      ],
      "name": "Second_Player_Joined",
      "type": "event"
    },
    {
      "anonymous": false,
      "inputs": [
        {
          "indexed": true,
          "internalType": "address",
          "name": "gamer",
          "type": "address"
        },
        {
          "indexed": true,
          "internalType": "uint256",
          "name": "pair_id",
          "type": "uint256"
        },
        {
          "indexed": false,
          "internalType": "uint256",
          "name": "timestamp",
          "type": "uint256"
        }
      ],
      "name": "Start_Game",
      "type": "event"
    },
    {
      "inputs": [
        {
          "internalType": "address",
          "name": "",
          "type": "address"
        }
      ],
      "name": "auto_accept",
      "outputs": [
        {
          "internalType": "bool",
          "name": "",
          "type": "bool"
        }
      ],
      "stateMutability": "view",
      "type": "function"
    },
    {
      "inputs": [
        {
          "internalType": "uint256",
          "name": "pair_id",
          "type": "uint256"
        }
      ],
      "name": "confirm_game_post_pairing",
      "outputs": [],
      "stateMutability": "nonpayable",
      "type": "function"
    },
    {
      "inputs": [
        {
          "internalType": "uint256",
          "name": "_hero_id",
          "type": "uint256"
        },
        {
          "internalType": "uint256",
          "name": "_gold_amount",
          "type": "uint256"
        }
      ],
      "name": "create_game",
      "outputs": [],
      "stateMutability": "nonpayable",
      "type": "function"
    },
    {
      "inputs": [],
      "name": "escrowLink",
      "outputs": [
        {
          "internalType": "address",
          "name": "",
          "type": "address"
        }
      ],
      "stateMutability": "view",
      "type": "function"
    },
    {
      "inputs": [],
      "name": "goldOracleLink",
      "outputs": [
        {
          "internalType": "address",
          "name": "",
          "type": "address"
        }
      ],
      "stateMutability": "view",
      "type": "function"
    },
    {
      "inputs": [
        {
          "internalType": "uint256",
          "name": "",
          "type": "uint256"
        }
      ],
      "name": "heroCooldownUntil",
      "outputs": [
        {
          "internalType": "uint256",
          "name": "",
          "type": "uint256"
        }
      ],
      "stateMutability": "view",
      "type": "function"
    },
    {
      "inputs": [],
      "name": "integrateDFKContracts",
      "outputs": [
        {
          "internalType": "bool",
          "name": "",
          "type": "bool"
        }
      ],
      "stateMutability": "view",
      "type": "function"
    },
    {
      "inputs": [
        {
          "internalType": "uint256",
          "name": "pair_id",
          "type": "uint256"
        },
        {
          "internalType": "uint256",
          "name": "hero_id",
          "type": "uint256"
        },
        {
          "internalType": "uint256",
          "name": "gold_amount",
          "type": "uint256"
        }
      ],
      "name": "join_existing_game",
      "outputs": [],
      "stateMutability": "nonpayable",
      "type": "function"
    },
    {
      "inputs": [],
      "name": "match_expiration_timer",
      "outputs": [
        {
          "internalType": "uint256",
          "name": "",
          "type": "uint256"
        }
      ],
      "stateMutability": "view",
      "type": "function"
    },
    {
      "inputs": [
        {
          "internalType": "uint256",
          "name": "",
          "type": "uint256"
        }
      ],
      "name": "open_pairings",
      "outputs": [
        {
          "internalType": "uint256",
          "name": "",
          "type": "uint256"
        }
      ],
      "stateMutability": "view",
      "type": "function"
    },
    {
      "inputs": [],
      "name": "owner",
      "outputs": [
        {
          "internalType": "address",
          "name": "",
          "type": "address"
        }
      ],
      "stateMutability": "view",
      "type": "function"
    },
    {
      "inputs": [],
      "name": "pairings_count",
      "outputs": [
        {
          "internalType": "uint256",
          "name": "",
          "type": "uint256"
        }
      ],
      "stateMutability": "view",
      "type": "function"
    },
    {
      "inputs": [
        {
          "internalType": "uint256",
          "name": "",
          "type": "uint256"
        },
        {
          "internalType": "uint256",
          "name": "",
          "type": "uint256"
        }
      ],
      "name": "pairings_gamers",
      "outputs": [
        {
          "internalType": "address",
          "name": "gamer_address",
          "type": "address"
        },
        {
          "internalType": "bytes",
          "name": "hero_id",
          "type": "bytes"
        },
        {
          "internalType": "uint256",
          "name": "gold_staked",
          "type": "uint256"
        },
        {
          "internalType": "uint256",
          "name": "jewel_staked",
          "type": "uint256"
        },
        {
          "components": [
            {
              "internalType": "bytes",
              "name": "id",
              "type": "bytes"
            },
            {
              "components": [
                {
                  "internalType": "uint256",
                  "name": "statGenes",
                  "type": "uint256"
                },
                {
                  "internalType": "uint256",
                  "name": "visualGenes",
                  "type": "uint256"
                },
                {
                  "internalType": "uint256",
                  "name": "rarity",
                  "type": "uint256"
                },
                {
                  "internalType": "bool",
                  "name": "shiny",
                  "type": "bool"
                },
                {
                  "internalType": "uint256",
                  "name": "generation",
                  "type": "uint256"
                },
                {
                  "internalType": "uint256",
                  "name": "firstName",
                  "type": "uint256"
                },
                {
                  "internalType": "uint256",
                  "name": "lastName",
                  "type": "uint256"
                },
                {
                  "internalType": "uint256",
                  "name": "shinyStyle",
                  "type": "uint256"
                },
                {
                  "internalType": "uint256",
                  "name": "class",
                  "type": "uint256"
                },
                {
                  "internalType": "uint256",
                  "name": "subClass",
                  "type": "uint256"
                }
              ],
              "internalType": "struct IHero.Info",
              "name": "info",
              "type": "tuple"
            },
            {
              "components": [
                {
                  "internalType": "uint256",
                  "name": "staminaFullAt",
                  "type": "uint256"
                },
                {
                  "internalType": "uint256",
                  "name": "hpFullAt",
                  "type": "uint256"
                },
                {
                  "internalType": "uint256",
                  "name": "mpFullAt",
                  "type": "uint256"
                },
                {
                  "internalType": "uint16",
                  "name": "level",
                  "type": "uint16"
                },
                {
                  "internalType": "uint64",
                  "name": "xp",
                  "type": "uint64"
                },
                {
                  "internalType": "address",
                  "name": "currentQuest",
                  "type": "address"
                },
                {
                  "internalType": "uint8",
                  "name": "sp",
                  "type": "uint8"
                },
                {
                  "internalType": "uint8",
                  "name": "status",
                  "type": "uint8"
                }
              ],
              "internalType": "struct IHero.State",
              "name": "state",
              "type": "tuple"
            },
            {
              "internalType": "bytes",
              "name": "stats",
              "type": "bytes"
            }
          ],
          "internalType": "struct BattleContractProxy.EncodedHero",
          "name": "selected_hero",
          "type": "tuple"
        },
        {
          "internalType": "bool",
          "name": "is_confirmed",
          "type": "bool"
        },
        {
          "internalType": "bool",
          "name": "did_win",
          "type": "bool"
        },
        {
          "internalType": "uint256",
          "name": "creation_time",
          "type": "uint256"
        }
      ],
      "stateMutability": "view",
      "type": "function"
    },
    {
      "inputs": [
        {
          "internalType": "address",
          "name": "",
          "type": "address"
        },
        {
          "internalType": "uint256",
          "name": "",
          "type": "uint256"
        }
      ],
      "name": "pairings_involved",
      "outputs": [
        {
          "internalType": "uint256",
          "name": "",
          "type": "uint256"
        }
      ],
      "stateMutability": "view",
      "type": "function"
    },
    {
      "inputs": [
        {
          "internalType": "uint256",
          "name": "",
          "type": "uint256"
        }
      ],
      "name": "pairings_status",
      "outputs": [
        {
          "internalType": "enum BattleContractProxy.GameStatus",
          "name": "",
          "type": "uint8"
        }
      ],
      "stateMutability": "view",
      "type": "function"
    }
  ],
  "bytecode": "0x608060405261012c600b5534801561001657600080fd5b50336000806101000a81548173ffffffffffffffffffffffffffffffffffffffff021916908373ffffffffffffffffffffffffffffffffffffffff160217905550615cae80620000676000396000f3fe608060405234801561001057600080fd5b50600436106100f55760003560e01c8063971cecea11610097578063d842f2cf11610066578063d842f2cf1461029a578063e0163c59146102b6578063ef26dc32146102d4578063fe61a4461461030b576100f5565b8063971cecea146101ee57806397d6ef4f1461021e5780639ec9542a1461023a578063a25d10221461026a576100f5565b806353c05416116100d357806353c05416146101665780636263ea0b146101965780638da5cb5b146101b25780638fe7e342146101d0576100f5565b80630c0dbe99146100fa5780631b20ed86146101185780633bd3dd6a14610136575b600080fd5b610102610329565b60405161010f9190615408565b60405180910390f35b61012061034f565b60405161012d9190615408565b60405180910390f35b610150600480360381019061014b919061484f565b610375565b60405161015d91906158be565b60405180910390f35b610180600480360381019061017b9190614826565b6103a6565b60405161018d9190615638565b60405180910390f35b6101b060048036038101906101ab9190614abf565b6103c6565b005b6101ba611082565b6040516101c79190615408565b60405180910390f35b6101d86110a6565b6040516101e59190615638565b60405180910390f35b610208600480360381019061020391906149ce565b6110b9565b60405161021591906158be565b60405180910390f35b610238600480360381019061023391906149ce565b6110d1565b005b610254600480360381019061024f91906149ce565b6115bf565b6040516102619190615653565b60405180910390f35b610284600480360381019061027f91906149ce565b6115df565b60405161029191906158be565b60405180910390f35b6102b460048036038101906102af9190614a83565b611603565b005b6102be6120e8565b6040516102cb91906158be565b60405180910390f35b6102ee60048036038101906102e99190614a83565b6120ee565b604051610302989796959493929190615528565b60405180910390f35b610313612512565b60405161032091906158be565b60405180910390f35b600c60009054906101000a900473ffffffffffffffffffffffffffffffffffffffff1681565b600d60009054906101000a900473ffffffffffffffffffffffffffffffffffffffff1681565b6008602052816000526040600020818154811061039157600080fd5b90600052602060002001600091509150505481565b600a6020528060005260406000206000915054906101000a900460ff1681565b600160066000858152602001908152602001600020805490501480156104225750600160078111156103f457fe5b6007600085815260200190815260200160002060009054906101000a900460ff16600781111561042057fe5b145b610461576040517f08c379a00000000000000000000000000000000000000000000000000000000081526004016104589061568e565b60405180910390fd5b600061046c83612518565b905060088160400151610100015114158015610492575060098160400151610100015114155b80156104a8575060148160400151610100015114155b6104e7576040517f08c379a00000000000000000000000000000000000000000000000000000000081526004016104de9061578e565b60405180910390fd5b6000600c60009054906101000a900473ffffffffffffffffffffffffffffffffffffffff1673ffffffffffffffffffffffffffffffffffffffff1663926456d26006600088815260200190815260200160002060008154811061054657fe5b9060005260206000209060160201600401600b0160030160009054906101000a900461ffff168460600151606001516040518363ffffffff1660e01b81526004016105929291906157ea565b602060405180830381600087803b1580156105ac57600080fd5b505af11580156105c0573d6000803e3d6000fd5b505050506040513d601f19601f820116820180604052508101906105e4919061488b565b9050600115158115151461062d576040517f08c379a00000000000000000000000000000000000000000000000000000000081526004016106249061574e565b60405180910390fd5b6000600c60009054906101000a900473ffffffffffffffffffffffffffffffffffffffff1673ffffffffffffffffffffffffffffffffffffffff1663300c3fa0846040518263ffffffff1660e01b815260040161068a91906157ce565b60206040518083038186803b1580156106a257600080fd5b505afa1580156106b6573d6000803e3d6000fd5b505050506040513d601f19601f820116820180604052508101906106da91906149f7565b9050600e6000868152602001908152602001600020544211610731576040517f08c379a00000000000000000000000000000000000000000000000000000000081526004016107289061570e565b60405180910390fd5b836006600088815260200190815260200160002060008154811061075157fe5b906000526020600020906016020160020154146107a3576040517f08c379a000000000000000000000000000000000000000000000000000000000815260040161079a906157ae565b60405180910390fd5b83600c60009054906101000a900473ffffffffffffffffffffffffffffffffffffffff1673ffffffffffffffffffffffffffffffffffffffff16630bd976ac336040518263ffffffff1660e01b81526004016107ff9190615423565b60206040518083038186803b15801561081757600080fd5b505afa15801561082b573d6000803e3d6000fd5b505050506040513d601f19601f8201168201806040525081019061084f91906149f7565b1015610890576040517f08c379a0000000000000000000000000000000000000000000000000000000008152600401610887906156ce565b60405180910390fd5b80600c60009054906101000a900473ffffffffffffffffffffffffffffffffffffffff1673ffffffffffffffffffffffffffffffffffffffff1663b6624a03336040518263ffffffff1660e01b81526004016108ec9190615423565b60206040518083038186803b15801561090457600080fd5b505afa158015610918573d6000803e3d6000fd5b505050506040513d601f19601f8201168201806040525081019061093c91906149f7565b101561097d576040517f08c379a0000000000000000000000000000000000000000000000000000000008152600401610974906156ee565b60405180910390fd5b600460009054906101000a900473ffffffffffffffffffffffffffffffffffffffff1673ffffffffffffffffffffffffffffffffffffffff166323b872dd3330886040518463ffffffff1660e01b81526004016109dc9392919061543e565b600060405180830381600087803b1580156109f657600080fd5b505af1158015610a0a573d6000803e3d6000fd5b50505050600c60009054906101000a900473ffffffffffffffffffffffffffffffffffffffff1673ffffffffffffffffffffffffffffffffffffffff1663170373f433866001600d60149054906101000a900460ff166040518563ffffffff1660e01b8152600401610a7f94939291906154ac565b600060405180830381600087803b158015610a9957600080fd5b505af1158015610aad573d6000803e3d6000fd5b50505050600c60009054906101000a900473ffffffffffffffffffffffffffffffffffffffff1673ffffffffffffffffffffffffffffffffffffffff1663578b9f41338360016040518463ffffffff1660e01b8152600401610b1193929190615475565b600060405180830381600087803b158015610b2b57600080fd5b505af1158015610b3f573d6000803e3d6000fd5b5050505060006040518060800160405280856000015133604051602001610b679291906158d9565b604051602081830303815290604052815260200185604001518152602001856060015181526020018560800151600001518660800151602001518760800151604001518860800151606001518960800151608001518a6080015160a001518b6080015160c001518c6080015160e001518d6080015161010001518e6080015161012001518f608001516101400151604051602001610c0f9b9a99989796959493929190615813565b604051602081830303815290604052815250905060006040518061010001604052803373ffffffffffffffffffffffffffffffffffffffff16815260200188338987604051602001610c649493929190615902565b60405160208183030381529060405281526020018781526020018481526020018381526020016000151581526020016000151581526020014281525090506006600089815260200190815260200160002081908060018154018082558091505060019003906000526020600020906016020160009091909190915060008201518160000160006101000a81548173ffffffffffffffffffffffffffffffffffffffff021916908373ffffffffffffffffffffffffffffffffffffffff1602179055506020820151816001019080519060200190610d42929190614028565b5060408201518160020155606082015181600301556080820151816004016000820151816000019080519060200190610d7c929190614028565b5060208201518160010160008201518160000155602082015181600101556040820151816002015560608201518160030160006101000a81548160ff0219169083151502179055506080820151816004015560a0820151816005015560c0820151816006015560e08201518160070155610100820151816008015561012082015181600901555050604082015181600b0160008201518160000155602082015181600101556040820151816002015560608201518160030160006101000a81548161ffff021916908361ffff16021790555060808201518160030160026101000a81548167ffffffffffffffff021916908367ffffffffffffffff16021790555060a082015181600301600a6101000a81548173ffffffffffffffffffffffffffffffffffffffff021916908373ffffffffffffffffffffffffffffffffffffffff16021790555060c082015181600301601e6101000a81548160ff021916908360ff16021790555060e082015181600301601f6101000a81548160ff021916908360ff1602179055505050606082015181600f019080519060200190610f24929190614028565b50505060a08201518160140160006101000a81548160ff02191690831515021790555060c08201518160140160016101000a81548160ff02191690831515021790555060e0820151816015015550506003600760008a815260200190815260200160002060006101000a81548160ff02191690836007811115610fa357fe5b0217905550600860003373ffffffffffffffffffffffffffffffffffffffff1673ffffffffffffffffffffffffffffffffffffffff1681526020019081526020016000208890806001815401808255809150506001900390600052602060002001600090919091909150556110196009896125d9565b3373ffffffffffffffffffffffffffffffffffffffff167fc23cc90a48aca69d1dda7cba702c29ac08229cdf0744c641c99448eaef3cfe3e8888868c42604051611067959493929190615970565b60405180910390a2611078886110d1565b5050505050505050565b60008054906101000a900473ffffffffffffffffffffffffffffffffffffffff1681565b600d60149054906101000a900460ff1681565b600e6020528060005260406000206000915090505481565b6002600660008381526020019081526020016000208054905014801561112d5750600360078111156110ff57fe5b6007600083815260200190815260200160002060009054906101000a900460ff16600781111561112b57fe5b145b61116c576040517f08c379a00000000000000000000000000000000000000000000000000000000081526004016111639061572e565b60405180910390fd5b3373ffffffffffffffffffffffffffffffffffffffff16600660008381526020019081526020016000206000815481106111a257fe5b906000526020600020906016020160000160009054906101000a900473ffffffffffffffffffffffffffffffffffffffff1673ffffffffffffffffffffffffffffffffffffffff16148061127157503373ffffffffffffffffffffffffffffffffffffffff166006600083815260200190815260200160002060018154811061122757fe5b906000526020600020906016020160000160009054906101000a900473ffffffffffffffffffffffffffffffffffffffff1673ffffffffffffffffffffffffffffffffffffffff16145b6112b0576040517f08c379a00000000000000000000000000000000000000000000000000000000081526004016112a7906156ae565b60405180910390fd5b3373ffffffffffffffffffffffffffffffffffffffff16600660008381526020019081526020016000206000815481106112e657fe5b906000526020600020906016020160000160009054906101000a900473ffffffffffffffffffffffffffffffffffffffff1673ffffffffffffffffffffffffffffffffffffffff1614156113f957600b546006600083815260200190815260200160002060018154811061135657fe5b906000526020600020906016020160150154014211156113ab576040517f08c379a00000000000000000000000000000000000000000000000000000000081526004016113a29061566e565b60405180910390fd5b6001600660008381526020019081526020016000206000815481106113cc57fe5b906000526020600020906016020160140160006101000a81548160ff021916908315150217905550611443565b60016006600083815260200190815260200160002060018154811061141a57fe5b906000526020600020906016020160140160006101000a81548160ff0219169083151502179055505b600115156006600083815260200190815260200160002060008154811061146657fe5b906000526020600020906016020160140160009054906101000a900460ff1615151480156114d5575060011515600660008381526020019081526020016000206001815481106114b257fe5b906000526020600020906016020160140160009054906101000a900460ff161515145b1561156c5760056007600083815260200190815260200160002060006101000a81548160ff0219169083600781111561150a57fe5b0217905550803373ffffffffffffffffffffffffffffffffffffffff167f08a955804c57f7e832d516c08d147f6939a7b2fecc11fd86bcac86e2e6548b594260405161155691906158be565b60405180910390a361156781612690565b6115bc565b803373ffffffffffffffffffffffffffffffffffffffff167f5f15581a5f435613e2ea7d56ec70bc7c0033e5f7464609d6fa8564625f3c2e03426040516115b391906158be565b60405180910390a35b50565b60076020528060005260406000206000915054906101000a900460ff1681565b600981815481106115ef57600080fd5b906000526020600020016000915090505481565b600061160e83612518565b90506000600c60009054906101000a900473ffffffffffffffffffffffffffffffffffffffff1673ffffffffffffffffffffffffffffffffffffffff1663300c3fa0836040518263ffffffff1660e01b815260040161166d91906157ce565b60206040518083038186803b15801561168557600080fd5b505afa158015611699573d6000803e3d6000fd5b505050506040513d601f19601f820116820180604052508101906116bd91906149f7565b9050600882604001516101000151141580156116e3575060098260400151610100015114155b80156116f9575060148260400151610100015114155b611738576040517f08c379a000000000000000000000000000000000000000000000000000000000815260040161172f9061578e565b60405180910390fd5b600e600085815260200190815260200160002054421161178d576040517f08c379a00000000000000000000000000000000000000000000000000000000081526004016117849061570e565b60405180910390fd5b82600c60009054906101000a900473ffffffffffffffffffffffffffffffffffffffff1673ffffffffffffffffffffffffffffffffffffffff16630bd976ac336040518263ffffffff1660e01b81526004016117e99190615423565b60206040518083038186803b15801561180157600080fd5b505afa158015611815573d6000803e3d6000fd5b505050506040513d601f19601f8201168201806040525081019061183991906149f7565b101561187a576040517f08c379a0000000000000000000000000000000000000000000000000000000008152600401611871906156ce565b60405180910390fd5b80600c60009054906101000a900473ffffffffffffffffffffffffffffffffffffffff1673ffffffffffffffffffffffffffffffffffffffff1663b6624a03336040518263ffffffff1660e01b81526004016118d69190615423565b60206040518083038186803b1580156118ee57600080fd5b505afa158015611902573d6000803e3d6000fd5b505050506040513d601f19601f8201168201806040525081019061192691906149f7565b1015611967576040517f08c379a000000000000000000000000000000000000000000000000000000000815260040161195e906156ee565b60405180910390fd5b600460009054906101000a900473ffffffffffffffffffffffffffffffffffffffff1673ffffffffffffffffffffffffffffffffffffffff166323b872dd3330876040518463ffffffff1660e01b81526004016119c69392919061543e565b600060405180830381600087803b1580156119e057600080fd5b505af11580156119f4573d6000803e3d6000fd5b50505050600c60009054906101000a900473ffffffffffffffffffffffffffffffffffffffff1673ffffffffffffffffffffffffffffffffffffffff1663170373f433856001600d60149054906101000a900460ff166040518563ffffffff1660e01b8152600401611a6994939291906154ac565b600060405180830381600087803b158015611a8357600080fd5b505af1158015611a97573d6000803e3d6000fd5b50505050600c60009054906101000a900473ffffffffffffffffffffffffffffffffffffffff1673ffffffffffffffffffffffffffffffffffffffff1663578b9f41338360016040518463ffffffff1660e01b8152600401611afb93929190615475565b600060405180830381600087803b158015611b1557600080fd5b505af1158015611b29573d6000803e3d6000fd5b5050505060006040518060800160405280846000015133604051602001611b519291906158d9565b60405160208183030381529060405281526020018460400151815260200184606001518152602001846080015160000151856080015160200151866080015160400151876080015160600151886080015160800151896080015160a001518a6080015160c001518b6080015160e001518c6080015161010001518d6080015161012001518e608001516101400151604051602001611bf99b9a99989796959493929190615813565b604051602081830303815290604052815250905060006040518061010001604052803373ffffffffffffffffffffffffffffffffffffffff16815260200187338887604051602001611c4e9493929190615902565b6040516020818303038152906040528152602001868152602001848152602001838152602001600a60003373ffffffffffffffffffffffffffffffffffffffff1673ffffffffffffffffffffffffffffffffffffffff16815260200190815260200160002060009054906101000a900460ff161515815260200160001515815260200142815250905060066000600154815260200190815260200160002081908060018154018082558091505060019003906000526020600020906016020160009091909190915060008201518160000160006101000a81548173ffffffffffffffffffffffffffffffffffffffff021916908373ffffffffffffffffffffffffffffffffffffffff1602179055506020820151816001019080519060200190611d79929190614028565b5060408201518160020155606082015181600301556080820151816004016000820151816000019080519060200190611db3929190614028565b5060208201518160010160008201518160000155602082015181600101556040820151816002015560608201518160030160006101000a81548160ff0219169083151502179055506080820151816004015560a0820151816005015560c0820151816006015560e08201518160070155610100820151816008015561012082015181600901555050604082015181600b0160008201518160000155602082015181600101556040820151816002015560608201518160030160006101000a81548161ffff021916908361ffff16021790555060808201518160030160026101000a81548167ffffffffffffffff021916908367ffffffffffffffff16021790555060a082015181600301600a6101000a81548173ffffffffffffffffffffffffffffffffffffffff021916908373ffffffffffffffffffffffffffffffffffffffff16021790555060c082015181600301601e6101000a81548160ff021916908360ff16021790555060e082015181600301601f6101000a81548160ff021916908360ff1602179055505050606082015181600f019080519060200190611f5b929190614028565b50505060a08201518160140160006101000a81548160ff02191690831515021790555060c08201518160140160016101000a81548160ff02191690831515021790555060e082015181601501555050600160076000600154815260200190815260200160002060006101000a81548160ff02191690836007811115611fdc57fe5b0217905550600860003373ffffffffffffffffffffffffffffffffffffffff1673ffffffffffffffffffffffffffffffffffffffff1681526020019081526020016000206001549080600181540180825580915050600190039060005260206000200160009091909190915055600960015490806001815401808255809150506001900390600052602060002001600090919091909150556001600081548092919060010191905055503373ffffffffffffffffffffffffffffffffffffffff167f356b600ff3879993dc1f71b7472a70ea06142dfd6bc9746cceb5e9db2f0268808787866001805403426040516120d8959493929190615970565b60405180910390a2505050505050565b60015481565b6006602052816000526040600020818154811061210a57600080fd5b9060005260206000209060160201600091509150508060000160009054906101000a900473ffffffffffffffffffffffffffffffffffffffff1690806001018054600181600116156101000203166002900480601f0160208091040260200160405190810160405280929190818152602001828054600181600116156101000203166002900480156121dd5780601f106121b2576101008083540402835291602001916121dd565b820191906000526020600020905b8154815290600101906020018083116121c057829003601f168201915b50505050509080600201549080600301549080600401604051806080016040529081600082018054600181600116156101000203166002900480601f0160208091040260200160405190810160405280929190818152602001828054600181600116156101000203166002900480156122975780601f1061226c57610100808354040283529160200191612297565b820191906000526020600020905b81548152906001019060200180831161227a57829003601f168201915b5050505050815260200160018201604051806101400160405290816000820154815260200160018201548152602001600282015481526020016003820160009054906101000a900460ff1615151515815260200160048201548152602001600582015481526020016006820154815260200160078201548152602001600882015481526020016009820154815250508152602001600b8201604051806101000160405290816000820154815260200160018201548152602001600282015481526020016003820160009054906101000a900461ffff1661ffff1661ffff1681526020016003820160029054906101000a900467ffffffffffffffff1667ffffffffffffffff1667ffffffffffffffff16815260200160038201600a9054906101000a900473ffffffffffffffffffffffffffffffffffffffff1673ffffffffffffffffffffffffffffffffffffffff1673ffffffffffffffffffffffffffffffffffffffff16815260200160038201601e9054906101000a900460ff1660ff1660ff16815260200160038201601f9054906101000a900460ff1660ff1660ff16815250508152602001600f82018054600181600116156101000203166002900480601f0160208091040260200160405190810160405280929190818152602001828054600181600116156101000203166002900480156124d85780601f106124ad576101008083540402835291602001916124d8565b820191906000526020600020905b8154815290600101906020018083116124bb57829003601f168201915b505050505081525050908060140160009054906101000a900460ff16908060140160019054906101000a900460ff16908060150154905088565b600b5481565b6125206140b6565b6000600460009054906101000a900473ffffffffffffffffffffffffffffffffffffffff1673ffffffffffffffffffffffffffffffffffffffff166321d80111846040518263ffffffff1660e01b815260040161257d91906158be565b6104806040518083038186803b15801561259657600080fd5b505afa1580156125aa573d6000803e3d6000fd5b505050506040513d601f19601f820116820180604052508101906125ce91906148b4565b905080915050919050565b60005b828054905081101561268b57818382815481106125f557fe5b9060005260206000200154141561267e5760008190505b600184805490500381101561265c5783600182018154811061262a57fe5b906000526020600020015484828154811061264157fe5b9060005260206000200181905550808060010191505061260c565b508280548061266757fe5b600190038181906000526020600020016000905590555b80806001019150506125dc565b505050565b6005600781111561269d57fe5b6007600083815260200190815260200160002060009054906101000a900460ff1660078111156126c957fe5b14612709576040517f08c379a00000000000000000000000000000000000000000000000000000000081526004016127009061576e565b60405180910390fd5b60066007600083815260200190815260200160002060006101000a81548160ff0219169083600781111561273957fe5b02179055506127466140fd565b60006006600084815260200190815260200160002060008154811061276757fe5b9060005260206000209060160201600401604051806080016040529081600082018054600181600116156101000203166002900480601f01602080910402602001604051908101604052809291908181526020018280546001816001161561010002031660029004801561281c5780601f106127f15761010080835404028352916020019161281c565b820191906000526020600020905b8154815290600101906020018083116127ff57829003601f168201915b5050505050815260200160018201604051806101400160405290816000820154815260200160018201548152602001600282015481526020016003820160009054906101000a900460ff1615151515815260200160048201548152602001600582015481526020016006820154815260200160078201548152602001600882015481526020016009820154815250508152602001600b8201604051806101000160405290816000820154815260200160018201548152602001600282015481526020016003820160009054906101000a900461ffff1661ffff1661ffff1681526020016003820160029054906101000a900467ffffffffffffffff1667ffffffffffffffff1667ffffffffffffffff16815260200160038201600a9054906101000a900473ffffffffffffffffffffffffffffffffffffffff1673ffffffffffffffffffffffffffffffffffffffff1673ffffffffffffffffffffffffffffffffffffffff16815260200160038201601e9054906101000a900460ff1660ff1660ff16815260200160038201601f9054906101000a900460ff1660ff1660ff16815250508152602001600f82018054600181600116156101000203166002900480601f016020809104026020016040519081016040528092919081815260200182805460018160011615610100020316600290048015612a5d5780601f10612a3257610100808354040283529160200191612a5d565b820191906000526020600020905b815481529060010190602001808311612a4057829003601f168201915b5050505050815250509050600060066000858152602001908152602001600020600181548110612a8957fe5b9060005260206000209060160201600401604051806080016040529081600082018054600181600116156101000203166002900480601f016020809104026020016040519081016040528092919081815260200182805460018160011615610100020316600290048015612b3e5780601f10612b1357610100808354040283529160200191612b3e565b820191906000526020600020905b815481529060010190602001808311612b2157829003601f168201915b5050505050815260200160018201604051806101400160405290816000820154815260200160018201548152602001600282015481526020016003820160009054906101000a900460ff1615151515815260200160048201548152602001600582015481526020016006820154815260200160078201548152602001600882015481526020016009820154815250508152602001600b8201604051806101000160405290816000820154815260200160018201548152602001600282015481526020016003820160009054906101000a900461ffff1661ffff1661ffff1681526020016003820160029054906101000a900467ffffffffffffffff1667ffffffffffffffff1667ffffffffffffffff16815260200160038201600a9054906101000a900473ffffffffffffffffffffffffffffffffffffffff1673ffffffffffffffffffffffffffffffffffffffff1673ffffffffffffffffffffffffffffffffffffffff16815260200160038201601e9054906101000a900460ff1660ff1660ff16815260200160038201601f9054906101000a900460ff1660ff1660ff16815250508152602001600f82018054600181600116156101000203166002900480601f016020809104026020016040519081016040528092919081815260200182805460018160011615610100020316600290048015612d7f5780601f10612d5457610100808354040283529160200191612d7f565b820191906000526020600020905b815481529060010190602001808311612d6257829003601f168201915b505050505081525050905060066000858152602001908152602001600020600081548110612da957fe5b906000526020600020906016020160000160009054906101000a900473ffffffffffffffffffffffffffffffffffffffff16836000019073ffffffffffffffffffffffffffffffffffffffff16908173ffffffffffffffffffffffffffffffffffffffff168152505060066000858152602001908152602001600020600181548110612e3157fe5b906000526020600020906016020160000160009054906101000a900473ffffffffffffffffffffffffffffffffffffffff16836020019073ffffffffffffffffffffffffffffffffffffffff16908173ffffffffffffffffffffffffffffffffffffffff168152505060066000858152602001908152602001600020600081548110612eb957fe5b9060005260206000209060160201600201548360400181815250508160600151806020019051810190612eec91906148de565b90919293949596979899509091929394959697985090919293949596975090919293949596509091929394955090919293945090919293509091925050846060018560a0018261ffff1661ffff168152508261ffff1661ffff1681525050508060600151806020019051810190612f6391906148de565b90919293949596979899509091929394959697985090919293949596975090919293949596509091929394955090919293945090919293509091925050846080018560c0018261ffff1661ffff168152508261ffff1661ffff1681525050508260a00151836060015101836060019061ffff16908161ffff16815250508260c00151836080015101836080019061ffff16908161ffff16815250506064836080015184606001510161ffff168161301657fe5b048360e0019061ffff16908161ffff16815250506000613034613f37565b90506000815167ffffffffffffffff8111801561305057600080fd5b5060405190808252806020026020018201604052801561308a57816020015b61307761418d565b81526020019060019003908161306f5790505b50905060005b8251811015613a045760008382815181106130a757fe5b60200260200101519050600080600083141561316a5787606001518060200190518101906130d591906148de565b909192939495969798995090919293949596975090919293949596509091929394955090919293945090919293509091925090915090505080925050866060015180602001905181019061312991906148de565b909192939495969798995090919293949596975090919293949596509091929394955090919293945090919293509091925090915090505080915050613685565b600183141561322457876060015180602001905181019061318b91906148de565b909192939495969798995090919293949596979850909192939495969750909192939495509091929394509091929350909192509091509050508092505086606001518060200190518101906131e191906148de565b9091929394959697989950909192939495969798509091929394959697509091929394955090919293945090919293509091925090915090505080915050613684565b60028314156132e257876060015180602001905181019061324591906148de565b90919293949596979899509091929394959697985090919293949596975090919293949596509091929394955090919293509091925090915090505080925050866060015180602001905181019061329d91906148de565b90919293949596979899509091929394959697985090919293949596975090919293949596509091929394955090919293509091925090915090505080915050613683565b60038314156133a457876060015180602001905181019061330391906148de565b909192939495969798995090919293949596979850909192939495969750909192939495965090919293949550909192939450909192935090915090505080925050866060015180602001905181019061335d91906148de565b909192939495969798995090919293949596979850909192939495969750909192939495965090919293949550909192939450909192935090915090505080915050613682565b60048314156134585787606001518060200190518101906133c591906148de565b9091929394959697985090919293949596975090919293949596509091929394955090919293945090919293509091925090915090505080925050866060015180602001905181019061341891906148de565b9091929394959697985090919293949596975090919293949596509091929394955090919293945090919293509091925090915090505080915050613681565b600583141561351057876060015180602001905181019061347991906148de565b9091929394959697989950909192939495969798509091929394959650909192939495509091929394509091929350909192509091509050508092505086606001518060200190518101906134ce91906148de565b90919293949596979899509091929394959697985090919293949596509091929394955090919293945090919293509091925090915090505080915050613680565b60068314156135cc57876060015180602001905181019061353191906148de565b909192939495969798995090919293949596979850909192939495969750909192939495965090919293945090919293509091925090915090505080925050866060015180602001905181019061358891906148de565b90919293949596979899509091929394959697985090919293949596975090919293949596509091929394509091929350909192509091509050508091505061367f565b87606001518060200190518101906135e491906148de565b9091929394959697989950909192939495969798509091929394959697509091929394959650909192939495509091929394509091925090915090505080925050866060015180602001905181019061363d91906148de565b90919293949596979899509091929394959697985090919293949596975090919293949596509091929394955090919293945090919250909150905050809150505b5b5b5b5b5b5b8061ffff168261ffff161115613800578860e001518183030289610100019061ffff16908161ffff1681525050886080015161ffff1689610100015161ffff161061376157600060405180608001604052808b6000015173ffffffffffffffffffffffffffffffffffffffff1681526020018b6020015173ffffffffffffffffffffffffffffffffffffffff1681526020018581526020018b6080015161ffff1681525090508086868151811061373857fe5b602002602001018190525060008a6080019061ffff16908161ffff168152505050505050613a04565b886101000151896080015103896080019061ffff16908161ffff1681525050600060405180608001604052808b6000015173ffffffffffffffffffffffffffffffffffffffff1681526020018b6020015173ffffffffffffffffffffffffffffffffffffffff1681526020018581526020018b610100015161ffff168152509050808686815181106137ef57fe5b6020026020010181905250506139f4565b8161ffff168161ffff16111561397b578860e001518183030289610100019061ffff16908161ffff1681525050886060015161ffff1689610100015161ffff16106138dc57600060405180608001604052808b6020015173ffffffffffffffffffffffffffffffffffffffff1681526020018b6000015173ffffffffffffffffffffffffffffffffffffffff1681526020018581526020018b6060015161ffff168152509050808686815181106138b357fe5b602002602001018190525060008a6060019061ffff16908161ffff168152505050505050613a04565b886101000151896060015103896060019061ffff16908161ffff1681525050600060405180608001604052808b6020015173ffffffffffffffffffffffffffffffffffffffff1681526020018b6000015173ffffffffffffffffffffffffffffffffffffffff1681526020018581526020018b610100015161ffff1681525090508086868151811061396a57fe5b6020026020010181905250506139f3565b600060405180608001604052808b6000015173ffffffffffffffffffffffffffffffffffffffff1681526020018b6020015173ffffffffffffffffffffffffffffffffffffffff168152602001858152602001600061ffff168152509050808686815181106139e657fe5b6020026020010181905250505b5b5050508080600101915050613090565b50600080600090506000876060015161ffff161415613c0e57866020015191506001600660008a8152602001908152602001600020600181548110613a4557fe5b906000526020600020906016020160140160016101000a81548160ff021916908315150217905550600c60009054906101000a900473ffffffffffffffffffffffffffffffffffffffff1673ffffffffffffffffffffffffffffffffffffffff166309530dd5886020015189600001518a604001516040518463ffffffff1660e01b8152600401613ad8939291906154f1565b600060405180830381600087803b158015613af257600080fd5b505af1158015613b06573d6000803e3d6000fd5b505050506000600660008a8152602001908152602001600020600181548110613b2b57fe5b90600052602060002090601602016001018054600181600116156101000203166002900480601f016020809104026020016040519081016040528092919081815260200182805460018160011615610100020316600290048015613bd05780601f10613ba557610100808354040283529160200191613bd0565b820191906000526020600020905b815481529060010190602001808311613bb357829003601f168201915b5050505050806020019051810190613be89190614a20565b5050509050601e4201600e60008381526020019081526020016000208190555050613eaf565b6000876080015161ffff161415613e1057866000015191506001600660008a8152602001908152602001600020600081548110613c4757fe5b906000526020600020906016020160140160016101000a81548160ff021916908315150217905550600c60009054906101000a900473ffffffffffffffffffffffffffffffffffffffff1673ffffffffffffffffffffffffffffffffffffffff166309530dd5886000015189602001518a604001516040518463ffffffff1660e01b8152600401613cda939291906154f1565b600060405180830381600087803b158015613cf457600080fd5b505af1158015613d08573d6000803e3d6000fd5b505050506000600660008a8152602001908152602001600020600081548110613d2d57fe5b90600052602060002090601602016001018054600181600116156101000203166002900480601f016020809104026020016040519081016040528092919081815260200182805460018160011615610100020316600290048015613dd25780601f10613da757610100808354040283529160200191613dd2565b820191906000526020600020905b815481529060010190602001808311613db557829003601f168201915b5050505050806020019051810190613dea9190614a20565b5050509050601e4201600e60008381526020019081526020016000208190555050613eae565b86600001519150600190506001600660008a8152602001908152602001600020600081548110613e3c57fe5b906000526020600020906016020160140160016101000a81548160ff0219169083151502179055506001600660008a8152602001908152602001600020600181548110613e8557fe5b906000526020600020906016020160140160016101000a81548160ff0219169083151502179055505b5b87876020015173ffffffffffffffffffffffffffffffffffffffff16886000015173ffffffffffffffffffffffffffffffffffffffff167f2fe8ef38365b06be0d86729f5d74e54cc328ccb389452df40de9e20ce0193f77858a8a878a8f6040015142604051613f2597969594939291906155b4565b60405180910390a45050505050505050565b606060004443600154604051602001613f52939291906153cb565b6040516020818303038152906040528051906020012060001c90506000606490508067ffffffffffffffff81118015613f8a57600080fd5b50604051908082528060200260200182016040528015613fb95781602001602082028036833780820191505090505b50925060005b818110156140225760088382604051602001613fdc929190615947565b6040516020818303038152906040528051906020012060001c81613ffc57fe5b0684828151811061400957fe5b6020026020010181815250508080600101915050613fbf565b50505090565b828054600181600116156101000203166002900490600052602060002090601f01602090048101928261405e57600085556140a5565b82601f1061407757805160ff19168380011785556140a5565b828001600101855582156140a5579182015b828111156140a4578251825591602001919060010190614089565b5b5090506140b291906141e5565b5090565b6040518060a00160405280600081526020016140d0614202565b81526020016140dd614238565b81526020016140ea61428d565b81526020016140f76142fc565b81525090565b604051806101200160405280600073ffffffffffffffffffffffffffffffffffffffff168152602001600073ffffffffffffffffffffffffffffffffffffffff16815260200160008152602001600061ffff168152602001600061ffff168152602001600061ffff168152602001600061ffff168152602001600061ffff168152602001600061ffff1681525090565b6040518060800160405280600073ffffffffffffffffffffffffffffffffffffffff168152602001600073ffffffffffffffffffffffffffffffffffffffff16815260200160008152602001600061ffff1681525090565b5b808211156141fe5760008160009055506001016141e6565b5090565b6040518060c001604052806000815260200160008152602001600081526020016000815260200160008152602001600081525090565b6040518061014001604052806000815260200160008152602001600081526020016000151581526020016000815260200160008152602001600081526020016000815260200160008152602001600081525090565b604051806101000160405280600081526020016000815260200160008152602001600061ffff168152602001600067ffffffffffffffff168152602001600073ffffffffffffffffffffffffffffffffffffffff168152602001600060ff168152602001600060ff1681525090565b604051806101600160405280600061ffff168152602001600061ffff168152602001600061ffff168152602001600061ffff168152602001600061ffff168152602001600061ffff168152602001600061ffff168152602001600061ffff168152602001600061ffff168152602001600061ffff168152602001600061ffff1681525090565b60008135905061439181615bd7565b92915050565b6000815190506143a681615bd7565b92915050565b6000815190506143bb81615bee565b92915050565b6000815190506143d081615c05565b92915050565b600061048082840312156143e957600080fd5b6143f360a06159c3565b90506000614403848285016147e7565b600083015250602061441784828501614721565b60208301525060e061442b84828501614461565b60408301525061022061444084828501614553565b60608301525061032061445584828501614619565b60808301525092915050565b6000610140828403121561447457600080fd5b61447f6101406159c3565b9050600061448f848285016147e7565b60008301525060206144a3848285016147e7565b60208301525060406144b7848285016147e7565b60408301525060606144cb848285016143c1565b60608301525060806144df848285016147e7565b60808301525060a06144f3848285016147e7565b60a08301525060c0614507848285016147e7565b60c08301525060e061451b848285016147e7565b60e083015250610100614530848285016147e7565b61010083015250610120614546848285016147e7565b6101208301525092915050565b6000610100828403121561456657600080fd5b6145716101006159c3565b90506000614581848285016147e7565b6000830152506020614595848285016147e7565b60208301525060406145a9848285016147e7565b60408301525060606145bd848285016147bd565b60608301525060806145d1848285016147fc565b60808301525060a06145e584828501614397565b60a08301525060c06145f984828501614811565b60c08301525060e061460d84828501614811565b60e08301525092915050565b6000610160828403121561462c57600080fd5b6146376101606159c3565b90506000614647848285016147bd565b600083015250602061465b848285016147bd565b602083015250604061466f848285016147bd565b6040830152506060614683848285016147bd565b6060830152506080614697848285016147bd565b60808301525060a06146ab848285016147bd565b60a08301525060c06146bf848285016147bd565b60c08301525060e06146d3848285016147bd565b60e0830152506101006146e8848285016147bd565b610100830152506101206146fe848285016147bd565b61012083015250610140614714848285016147bd565b6101408301525092915050565b600060c0828403121561473357600080fd5b61473d60c06159c3565b9050600061474d848285016147e7565b6000830152506020614761848285016147e7565b6020830152506040614775848285016147e7565b6040830152506060614789848285016147e7565b606083015250608061479d848285016147e7565b60808301525060a06147b1848285016147e7565b60a08301525092915050565b6000815190506147cc81615c1c565b92915050565b6000813590506147e181615c33565b92915050565b6000815190506147f681615c33565b92915050565b60008151905061480b81615c4a565b92915050565b60008151905061482081615c61565b92915050565b60006020828403121561483857600080fd5b600061484684828501614382565b91505092915050565b6000806040838503121561486257600080fd5b600061487085828601614382565b9250506020614881858286016147d2565b9150509250929050565b60006020828403121561489d57600080fd5b60006148ab848285016143c1565b91505092915050565b600061048082840312156148c757600080fd5b60006148d5848285016143d6565b91505092915050565b60008060008060008060008060008060006101608c8e03121561490057600080fd5b600061490e8e828f016147bd565b9b5050602061491f8e828f016147bd565b9a505060406149308e828f016147bd565b99505060606149418e828f016147bd565b98505060806149528e828f016147bd565b97505060a06149638e828f016147bd565b96505060c06149748e828f016147bd565b95505060e06149858e828f016147bd565b9450506101006149978e828f016147bd565b9350506101206149a98e828f016147bd565b9250506101406149bb8e828f016147bd565b9150509295989b509295989b9093969950565b6000602082840312156149e057600080fd5b60006149ee848285016147d2565b91505092915050565b600060208284031215614a0957600080fd5b6000614a17848285016147e7565b91505092915050565b60008060008060808587031215614a3657600080fd5b6000614a44878288016147e7565b9450506020614a55878288016143ac565b9350506040614a66878288016147e7565b9250506060614a77878288016147e7565b91505092959194509250565b60008060408385031215614a9657600080fd5b6000614aa4858286016147d2565b9250506020614ab5858286016147d2565b9150509250929050565b600080600060608486031215614ad457600080fd5b6000614ae2868287016147d2565b9350506020614af3868287016147d2565b9250506040614b04868287016147d2565b9150509250925092565b6000614b1a8383614fc1565b60808301905092915050565b614b2f81615b07565b82525050565b614b3e81615a7d565b82525050565b614b4d81615a6b565b82525050565b614b5c81615a6b565b82525050565b6000614b6d82615a04565b614b778185615a27565b9350614b82836159f4565b8060005b83811015614bb3578151614b9a8882614b0e565b9750614ba583615a1a565b925050600181019050614b86565b5085935050505092915050565b614bc981615a8f565b82525050565b614bd881615a8f565b82525050565b6000614be982615a0f565b614bf38185615a38565b9350614c03818560208601615b73565b614c0c81615bb2565b840191505092915050565b6000614c2282615a0f565b614c2c8185615a49565b9350614c3c818560208601615b73565b614c4581615bb2565b840191505092915050565b614c5981615b19565b82525050565b614c6881615b2b565b82525050565b6000614c7b600d83615a5a565b91507f4d617463682045787069726564000000000000000000000000000000000000006000830152602082019050919050565b6000614cbb601383615a5a565b91507f4e6f2057616974696e67204f70706f6e656e74000000000000000000000000006000830152602082019050919050565b6000614cfb601883615a5a565b91507f4e6f207065726d697373696f6e20746f20636f6e6669726d00000000000000006000830152602082019050919050565b6000614d3b600f83615a5a565b91507f4e6f7420656e6f75676820676f6c6400000000000000000000000000000000006000830152602082019050919050565b6000614d7b602083615a5a565b91507f4e6f7420656e6f75676820746f20636f7665722070726f746f636f6c206665656000830152602082019050919050565b6000614dbb601183615a5a565b91507f5374696c6c20696e20436f6f6c646f776e0000000000000000000000000000006000830152602082019050919050565b6000614dfb602b83615a5a565b91507f43616e206f6e6c792063616c6c206966203220706c617965727320686176652060008301527f6265656e207061697265640000000000000000000000000000000000000000006020830152604082019050919050565b6000614e61601983615a5a565b91507f4865726f204c6576656c7320546f6f20556e6d617463686564000000000000006000830152602082019050919050565b6000614ea1601983615a5a565b91507f466967687420616c726561647920696e2070726f6772657373000000000000006000830152602082019050919050565b6000614ee1601283615a5a565b91507f496e76616c6964204865726f20436c61737300000000000000000000000000006000830152602082019050919050565b6000614f21601e83615a5a565b91507f556e657175616c20416d6f756e74206f6620476f6c64205761676572656400006000830152602082019050919050565b6000610280830160008301518482036000860152614f728282614bde565b9150506020830151614f876020860182615081565b506040830151614f9b61016086018261514d565b506060830151848203610260860152614fb48282614bde565b9150508091505092915050565b608082016000820151614fd76000850182614b44565b506020820151614fea6020850182614b44565b506040820151614ffd6040850182615378565b506060820151615010606085018261534b565b50505050565b6104808201600082015161502d6000850182615378565b50602082015161504060208501826152d0565b50604082015161505360e0850182615081565b50606082015161506761022085018261514d565b50608082015161507b6103208501826151ef565b50505050565b610140820160008201516150986000850182615378565b5060208201516150ab6020850182615378565b5060408201516150be6040850182615378565b5060608201516150d16060850182614bc0565b5060808201516150e46080850182615378565b5060a08201516150f760a0850182615378565b5060c082015161510a60c0850182615378565b5060e082015161511d60e0850182615378565b50610100820151615132610100850182615378565b50610120820151615147610120850182615378565b50505050565b610100820160008201516151646000850182615378565b5060208201516151776020850182615378565b50604082015161518a6040850182615378565b50606082015161519d606085018261534b565b5060808201516151b060808501826153ad565b5060a08201516151c360a0850182614b44565b5060c08201516151d660c08501826153bc565b5060e08201516151e960e08501826153bc565b50505050565b61016082016000820151615206600085018261534b565b506020820151615219602085018261534b565b50604082015161522c604085018261534b565b50606082015161523f606085018261534b565b506080820151615252608085018261534b565b5060a082015161526560a085018261534b565b5060c082015161527860c085018261534b565b5060e082015161528b60e085018261534b565b506101008201516152a061010085018261534b565b506101208201516152b561012085018261534b565b506101408201516152ca61014085018261534b565b50505050565b60c0820160008201516152e66000850182615378565b5060208201516152f96020850182615378565b50604082015161530c6040850182615378565b50606082015161531f6060850182615378565b5060808201516153326080850182615378565b5060a082015161534560a0850182615378565b50505050565b61535481615aae565b82525050565b61536381615aae565b82525050565b61537281615b61565b82525050565b61538181615adc565b82525050565b61539081615adc565b82525050565b6153a76153a282615adc565b615ba6565b82525050565b6153b681615ae6565b82525050565b6153c581615afa565b82525050565b60006153d78286615396565b6020820191506153e78285615396565b6020820191506153f78284615396565b602082019150819050949350505050565b600060208201905061541d6000830184614b53565b92915050565b60006020820190506154386000830184614b26565b92915050565b60006060820190506154536000830186614b26565b6154606020830185614b53565b61546d6040830184615387565b949350505050565b600060608201905061548a6000830186614b26565b6154976020830185615387565b6154a46040830184614c5f565b949350505050565b60006080820190506154c16000830187614b26565b6154ce6020830186615387565b6154db6040830185614c5f565b6154e86060830184614bcf565b95945050505050565b60006060820190506155066000830186614b53565b6155136020830185614b53565b6155206040830184615387565b949350505050565b60006101008201905061553e600083018b614b53565b8181036020830152615550818a614c17565b905061555f6040830189615387565b61556c6060830188615387565b818103608083015261557e8187614f54565b905061558d60a0830186614bcf565b61559a60c0830185614bcf565b6155a760e0830184615387565b9998505050505050505050565b600060e0820190506155c9600083018a614b53565b81810360208301526155db8189614f54565b905081810360408301526155ef8188614f54565b90506155fe6060830187614bcf565b81810360808301526156108186614b62565b905061561f60a0830185615387565b61562c60c0830184615387565b98975050505050505050565b600060208201905061564d6000830184614bcf565b92915050565b60006020820190506156686000830184614c50565b92915050565b6000602082019050818103600083015261568781614c6e565b9050919050565b600060208201905081810360008301526156a781614cae565b9050919050565b600060208201905081810360008301526156c781614cee565b9050919050565b600060208201905081810360008301526156e781614d2e565b9050919050565b6000602082019050818103600083015261570781614d6e565b9050919050565b6000602082019050818103600083015261572781614dae565b9050919050565b6000602082019050818103600083015261574781614dee565b9050919050565b6000602082019050818103600083015261576781614e54565b9050919050565b6000602082019050818103600083015261578781614e94565b9050919050565b600060208201905081810360008301526157a781614ed4565b9050919050565b600060208201905081810360008301526157c781614f14565b9050919050565b6000610480820190506157e46000830184615016565b92915050565b60006040820190506157ff6000830185615369565b61580c6020830184615369565b9392505050565b600061016082019050615829600083018e61535a565b615836602083018d61535a565b615843604083018c61535a565b615850606083018b61535a565b61585d608083018a61535a565b61586a60a083018961535a565b61587760c083018861535a565b61588460e083018761535a565b61589261010083018661535a565b6158a061012083018561535a565b6158ae61014083018461535a565b9c9b505050505050505050505050565b60006020820190506158d36000830184615387565b92915050565b60006040820190506158ee6000830185615387565b6158fb6020830184614b35565b9392505050565b60006080820190506159176000830187615387565b6159246020830186614b35565b6159316040830185615387565b61593e6060830184615387565b95945050505050565b600060408201905061595c6000830185615387565b6159696020830184615387565b9392505050565b600060a0820190506159856000830188615387565b6159926020830187615387565b61599f6040830186615387565b6159ac6060830185615387565b6159b96080830184615387565b9695505050505050565b6000604051905081810181811067ffffffffffffffff821117156159ea576159e9615bb0565b5b8060405250919050565b6000819050602082019050919050565b600081519050919050565b600081519050919050565b6000602082019050919050565b600082825260208201905092915050565b600082825260208201905092915050565b600082825260208201905092915050565b600082825260208201905092915050565b6000615a7682615abc565b9050919050565b6000615a8882615abc565b9050919050565b60008115159050919050565b6000819050615aa982615bc3565b919050565b600061ffff82169050919050565b600073ffffffffffffffffffffffffffffffffffffffff82169050919050565b6000819050919050565b600067ffffffffffffffff82169050919050565b600060ff82169050919050565b6000615b1282615b3d565b9050919050565b6000615b2482615a9b565b9050919050565b6000615b3682615adc565b9050919050565b6000615b4882615b4f565b9050919050565b6000615b5a82615abc565b9050919050565b6000615b6c82615aae565b9050919050565b60005b83811015615b91578082015181840152602081019050615b76565b83811115615ba0576000848401525b50505050565b6000819050919050565bfe5b6000601f19601f8301169050919050565b60088110615bd457615bd3615bb0565b5b50565b615be081615a6b565b8114615beb57600080fd5b50565b615bf781615a7d565b8114615c0257600080fd5b50565b615c0e81615a8f565b8114615c1957600080fd5b50565b615c2581615aae565b8114615c3057600080fd5b50565b615c3c81615adc565b8114615c4757600080fd5b50565b615c5381615ae6565b8114615c5e57600080fd5b50565b615c6a81615afa565b8114615c7557600080fd5b5056fea2646970667358221220a8179bd0d420827290228ec921fe78b0ecf91db001b4a44d7df071e65675790e64736f6c63430007060033",
  "linkReferences": {},
  "deployedLinkReferences": {}
}