{
  "_format": "hh-sol-artifact-1",
  "contractName": "GoldOracle",
  "sourceName": "contracts/GoldOracle.sol",
  "abi": [
    {
      "inputs": [],
      "stateMutability": "nonpayable",
      "type": "constructor"
    },
    {
      "inputs": [],
      "name": "admin",
      "outputs": [
        {
          "internalType": "address",
          "name": "",
          "type": "address"
        }
      ],
      "stateMutability": "view",
      "type": "function"
    },
    {
      "inputs": [],
      "name": "dollarDenomatedGoldPrice",
      "outputs": [
        {
          "internalType": "uint256",
          "name": "",
          "type": "uint256"
        }
      ],
      "stateMutability": "view",
      "type": "function"
    },
    {
      "inputs": [],
      "name": "getDollarDenomatedGoldPrice",
      "outputs": [
        {
          "internalType": "uint256",
          "name": "",
          "type": "uint256"
        }
      ],
      "stateMutability": "view",
      "type": "function"
    },
    {
      "inputs": [],
      "name": "getGoldPrice",
      "outputs": [
        {
          "internalType": "uint256",
          "name": "",
          "type": "uint256"
        }
      ],
      "stateMutability": "view",
      "type": "function"
    },
    {
      "inputs": [],
      "name": "goldTokenDecimals",
      "outputs": [
        {
          "internalType": "uint256",
          "name": "",
          "type": "uint256"
        }
      ],
      "stateMutability": "view",
      "type": "function"
    },
    {
      "inputs": [],
      "name": "setGoldPrice",
      "outputs": [],
      "stateMutability": "nonpayable",
      "type": "function"
    }
  ],
  "bytecode": "0x60806040526103e860025534801561001657600080fd5b50336000806101000a81548173ffffffffffffffffffffffffffffffffffffffff021916908373ffffffffffffffffffffffffffffffffffffffff16021790555061088c806100666000396000f3fe608060405234801561001057600080fd5b50600436106100625760003560e01c8063374404db146100675780634baf5c3314610085578063da6bae10146100a3578063e58c9fc1146100c1578063f681471b146100df578063f851a440146100e9575b600080fd5b61006f610107565b60405161007c919061070c565b60405180910390f35b61008d61010d565b60405161009a919061070c565b60405180910390f35b6100ab610113565b6040516100b8919061070c565b60405180910390f35b6100c9610189565b6040516100d6919061070c565b60405180910390f35b6100e7610193565b005b6100f16101b4565b6040516100fe91906106af565b60405180910390f35b60025481565b60015481565b600080610133734852dea68e7cdeca04cdc9957a5bd1a1abe50d9e6101d8565b90506000610154736a85e72b4401ae06dc637ee7bbe2c156a65cb3646101d8565b9050600061017e6002610170848661042390919063ffffffff16565b61047890919063ffffffff16565b905080935050505090565b6000600154905090565b620151806003540142106101b257612710600181905550426003819055505b565b60008054906101000a900473ffffffffffffffffffffffffffffffffffffffff1681565b60008082905060008173ffffffffffffffffffffffffffffffffffffffff16630dfe16816040518163ffffffff1660e01b815260040160206040518083038186803b15801561022657600080fd5b505afa15801561023a573d6000803e3d6000fd5b505050506040513d601f19601f8201168201806040525081019061025e9190610577565b905060008273ffffffffffffffffffffffffffffffffffffffff1663d21220a76040518163ffffffff1660e01b815260040160206040518083038186803b1580156102a857600080fd5b505afa1580156102bc573d6000803e3d6000fd5b505050506040513d601f19601f820116820180604052508101906102e09190610577565b90506000808473ffffffffffffffffffffffffffffffffffffffff16630902f1ac6040518163ffffffff1660e01b815260040160606040518083038186803b15801561032b57600080fd5b505afa15801561033f573d6000803e3d6000fd5b505050506040513d601f19601f8201168201806040525081019061036391906105a0565b506dffffffffffffffffffffffffffff1691506dffffffffffffffffffffffffffff169150808373ffffffffffffffffffffffffffffffffffffffff1663313ce5676040518163ffffffff1660e01b815260040160206040518083038186803b1580156103cf57600080fd5b505afa1580156103e3573d6000803e3d6000fd5b505050506040513d601f19601f8201168201806040525081019061040791906105ef565b60ff16600a0a83028161041657fe5b0495505050505050919050565b60008082840190508381101561046e576040517f08c379a0000000000000000000000000000000000000000000000000000000008152600401610465906106ec565b60405180910390fd5b8091505092915050565b60006104ba83836040518060400160405280601a81526020017f536166654d6174683a206469766973696f6e206279207a65726f0000000000008152506104c2565b905092915050565b60008083118290610509576040517f08c379a000000000000000000000000000000000000000000000000000000000815260040161050091906106ca565b60405180910390fd5b50600083858161051557fe5b049050809150509392505050565b600081519050610532816107fa565b92915050565b60008151905061054781610811565b92915050565b60008151905061055c81610828565b92915050565b6000815190506105718161083f565b92915050565b60006020828403121561058957600080fd5b600061059784828501610523565b91505092915050565b6000806000606084860312156105b557600080fd5b60006105c386828701610538565b93505060206105d486828701610538565b92505060406105e58682870161054d565b9150509250925092565b60006020828403121561060157600080fd5b600061060f84828501610562565b91505092915050565b61062181610743565b82525050565b600061063282610727565b61063c8185610732565b935061064c8185602086016107b6565b610655816107e9565b840191505092915050565b600061066d601b83610732565b91507f536166654d6174683a206164646974696f6e206f766572666c6f7700000000006000830152602082019050919050565b6106a98161078f565b82525050565b60006020820190506106c46000830184610618565b92915050565b600060208201905081810360008301526106e48184610627565b905092915050565b6000602082019050818103600083015261070581610660565b9050919050565b600060208201905061072160008301846106a0565b92915050565b600081519050919050565b600082825260208201905092915050565b600061074e8261076f565b9050919050565b60006dffffffffffffffffffffffffffff82169050919050565b600073ffffffffffffffffffffffffffffffffffffffff82169050919050565b6000819050919050565b600063ffffffff82169050919050565b600060ff82169050919050565b60005b838110156107d45780820151818401526020810190506107b9565b838111156107e3576000848401525b50505050565b6000601f19601f8301169050919050565b61080381610743565b811461080e57600080fd5b50565b61081a81610755565b811461082557600080fd5b50565b61083181610799565b811461083c57600080fd5b50565b610848816107a9565b811461085357600080fd5b5056fea264697066735822122001a22f87315cb63f84c535e06c992bf2e64a5d812c91bd214e5b78a5871ac78d64736f6c63430007060033",
  "linkReferences": {},
  "deployedLinkReferences": {}
}